:02000004085F93
:10A0000000A05F08FCFF5F080000060020000501BB
:08A0100004017C1500000000B2
:10A018001348144908B5884205D0134A824202D031
:10A02800124B121A98471248124A0021124B121A60
:10A03800984712481249884205D0124A824202D0F3
:10A048000A4B121A984710481049884205D0104AFE
:10A05800824202D0054B121A9847014808BD00BF3A
:10A06800B0AC07108CFC5F0828AD07102D0D11103F
:10A0780028AD0710E8AF0710A10E111010A43F0279
:10A08800A8A05F0818A43F0218A43F02B0A05F0868
:0CA09800F4FF3F0219A05F080000000068
:08A0A8009CA05F089CED3F0243
:10A0B00010F8012B11F8013B012A28BF9A42F7D072
:10A0C000D01A7047034613F8012B002AFBD1181A47
:10A0D0000138704770B504F067F90025054E064C4D
:10A0E000A41BA408AC4200D170BD56F8043B9847AD
:10A0F0000135F7E7D0FF3F02F4FF3F0200F060B800
:10A1000008B500F073F8BDE8084004F005B902F0A6
:10A11000DBB902F0D9B902F0E5B900000C2008B5AE
:10A12000024A034902F08EF8FEE700BFA5C03F02D5
:10A13000ACED3F020078B0FA80F04009704701238F
:10A14000037070477047000010B50446094B036068
:10A1500002F0DAFE214603F011F904F04DF804F0A4
:10A160003FF82046044B40F8043B02F0A3FF204692
:10A1700010BD00BF18EE3F0200EE3F0210B50446CE
:10A18000FFF7E2FF20462421FFF7C5FF204610BD60
:10A190000EB44FF0200C002300B58CB00DAA52F87D
:10A1A000041BCDE904C3CDE900120392016804AA9F
:10A1B0001E2002F055F80CB05DF804EB03B07047B8
:10A1C00008B504F019F84FF4165104F005F80448E6
:10A1D0000449FFF7DDFFBDE80840034801F09ABCE1
:10A1E00070AE0710C1ED3F0264AD071038B5174DD2
:10A1F000D5E88F3F13F0010F154C09D12846FFF722
:10A2000099FF28B101F0A8FD20602846FFF797FFCD
:10A2100001F0A2FD2368C01A41F28833984214D994
:10A220000C4D0D48297881F001032B7001F04AFC98
:10A2300029780A4B0A4A0B48002908BF1A460A49DE
:10A24000FFF7A6FF01F088FD206038BD34AD071090
:10A2500038AD07103CAD071064AD0710DAED3F02D2
:10A26000D7ED3F0270AE0710DEED3F0270B5142649
:10A27000D0E90053044606FB0356AE4204D02846FC
:10A2800003F04DFE1435F8E7206802F02BF9204664
:10A2900070BD8842F8B504460D46164616D9904260
:10A2A00015D2A2F11406751AA1F114072C44B74275
:10A2B0001CD02CB13146204603F09AFE337C237427
:10A2C000304603F02CFE143E143CF0E70ED0B542AD
:10A2D0000CD02CB12946204603F08AFE2B7C237437
:10A2E000284603F01CFE14351434F0E7F8BD0023B3
:10A2F0002DE9F041C0E9003383604F6804469F4276
:10A300000E4624DD4FF0140808FB07F002F0DCF8DD
:10A310000546E0B1D4E9001208FB0212FFF7B9FFCD
:10A32000206802F0DFF82560A760D6E9007308FB1B
:10A330000378B84509D03946284603F073FE3B7CC4
:10A34000143505F8043C1437F3E77368636020465E
:10A35000BDE8F08170B50024254B264A8CB09A6088
:10A36000C3E90044022001F0A5FF2146012001F0CD
:10A37000BDFFCDE90044029403F03EFF1E4C0546AC
:10A380002646694603A8FFF7B2FF03A906A8FFF710
:10A39000AEFF1A4B06A946F8043B09A8FFF7A7FF32
:10A3A00009AA1E21304603F0CBF809A8FFF75EFF8B
:10A3B00006A8FFF75BFF124B2562236003A8FFF797
:10A3C00055FF104B236003F017FF4FF4165103F0B5
:10A3D00003FF02F099FD214602F08AFF6846FFF76D
:10A3E00045FF09480CB0BDE8704001F02FBB00BF2D
:10A3F00028AD07100000FFFF40AD071000EE3F0240
:10A4000008FD3F0218EE3F0264AD071042600022D3
:10A41000027220220170C260704710B5037A0446B0
:10A4200053B12178606802F08BF9606802F090F90E
:10A43000B0FA80F0400910BD012100F003F80028B7
:10A44000EFD1F8E738B5044640680D4602F072F9DE
:10A450000120207225B12046BDE83840FFF7DDBF5E
:10A4600038BD2DE9F8431F46DDE90896C368154657
:10A4700032449A420446884602D90020BDE8F88357
:10A480000178406802F05CF97EB960682A4603688A
:10A490004146DB6898478542EFD13946606802F053
:10A4A00053F9B0FA80F04009E8E7B9F1000FECD0B9
:10A4B0006068324603684946DB6898478642DCD1CB
:10A4C000E3E708B5406802F031F9012008BD10B596
:10A4D0000446406810B103689B689847204610BD49
:10A4E00038B5044690F90E00411C09D0012180B214
:10A4F00003F0CAFF94F90E00012180B203F0D5FFEA
:10A50000256835B1284603F05BFC012084F834004F
:10A5100038BD94F90F00012180B203F0B5FF637BD1
:10A5200094F90F00012B94BF2946012180B203F05A
:10A53000BCFF94F91000421C09D0012180B203F045
:10A54000A3FF94F91000012180B203F0AEFF94F94B
:10A550001100431CD9D0002180B203F095FFD4E74D
:10A560002DE9F04F044600680D4685B040B1002348
:10A57000009313460A4603F0BFFC05B0BDE8F08F18
:10A58000237BA068002B0CBF4FF0010B4FF0800B1A
:10A590000B78444F1BEA030FB7FBF0F70CBF4FF0EB
:10A5A00001094FF000098B18FFB20393039BAB42E4
:10A5B000E3D05E464FF0000895F800A017B138468A
:10A5C00001F0BCFB637B13F0FD0F41D194F9103017
:10A5D0005A1C0FD01AEA060114BF012300234B4571
:10A5E00008D06369606A1A6800292CD04FF001090D
:10A5F00002431A60A169E36A0A6813430B6017B14A
:10A60000384601F09BFB94F91130013306D0E36921
:10A610001A68A36A1A4218BF46EA0808A169E36AE1
:10A620000A6822EA03030B6094F91130013318BF62
:10A6300085F80080237B002B32D17600F6B2002E05
:10A64000BCD10135B2E722EA000289461A60D1E79F
:10A65000A169E36A0A6813430B6017B1384601F039
:10A660006DFB94F91030013308D06369616A1A6890
:10A670001AEA060F14BF0A438A431A60A169E36A03
:10A680000A6822EA03030B6094F911300133CBD03E
:10A69000E3691A68A36A1A4218BF46EA0808C3E7C2
:10A6A0007608CCE720A1070007B501228DF8071036
:10A6B0000DF10701FFF754FF9DF8070003B05DF8A7
:10A6C00004FB03681BB14168184603F0A7BB704741
:10A6D000006808B103F088BB704790F90E00431C76
:10A6E00003D0C9B280B203F0E0BE704710B5044693
:10A6F000FFF7E7FF2046BDE810400021FFF7EDBF60
:10A7000010B504460121FFF7E8FF2046BDE81040E0
:10A71000FFF7DEBF2DE9F0411C4606460D46174601
:10A72000FFF7E4FF069B04EB0308444508D12F44E0
:10A73000BD420BD0304615F8011BFFF7B5FFF7E718
:10A74000304614F8011BFFF7AFFFEEE73046FFF786
:10A75000D7FF0120BDE8F0812DE9F04F1F4685B0FD
:10A76000BDF93880A7EB010AA8EB0209B9F1000F87
:10A77000B8BFC9F10009BAF1000FB8BFCAF1000AA9
:10A78000D14583460C461546BDF83C3004DD3A46BB
:10A790002C4647460D469046BC4205DD2A464546B6
:10A7A000904622463C4617463E1BB2B20092A8EBAA
:10A7B000050282EAE271A1EBE271C6F3C03202FA4D
:10A7C00086F64545B4BF01224FF0FF320191761065
:10A7D0000292BC421CDCDBF80020D145D2F8188084
:10A7E000C7BF294622462A46214603935846C047FA
:10A7F000019A039BB61AB1B236B2002E05DA029A5C
:10A800001544009A2DB2561836B2013424B2E0E74E
:10A8100005B0BDE8F08F704710B404682469A44601
:10A820005DF8044B604730B4BDF8085004680295E9
:10A83000A46BA44630BC604730B4BDF8085004682F
:10A840000295E46BA44630BC604770B4BDF90C506F
:10A85000BDF810600468CDE90356246CA44670BCB2
:10A8600060472DE9F3411C46164605460F4603682E
:10A87000013CBDF820805B693444984724B22B68C2
:10A88000CDF80480009428469C6A32463B463946FF
:10A89000A04728462B68DB6A02B0BDE8F0411847A4
:10A8A0002DE9F341174604461D460E460368BDF8E0
:10A8B00020805B699847CDE9007822686B1E33449D
:10A8C0002046956A31463A461BB2A847204623687F
:10A8D000DB6A02B0BDE8F04118472DE9F3471E4698
:10A8E00003680C465B6905461746BDF92890BDF81C
:10A8F0002C8098472644B4422B680BDACDF80080B0
:10A900002146D3F820A03A464B4628460134D0478A
:10A9100024B2F0E72846DB6A02B0BDE8F0471847EA
:10A9200013B50191B0F90E1002680091146C002269
:10A93000B0F90C301146A04702B010BD2DE9F74325
:10A940009942164680460D461C46BDF92870BDF852
:10A950002C90026812D1BE42C2BF33463E461F460B
:10A96000CDF828907B1C946B9B1B324629464046B1
:10A97000A4461BB203B0BDE8F0436047BE420AD113
:10A980009942C2BF0B4625461C46CDF82890631C51
:10A990005B1BD46BE9E753699847CDE90079D8F898
:10A9A000003040469F6A324623462946B847404613
:10A9B000D8F80030DB6A03B0BDE8F04318472DE952
:10A9C000F34704460F4616461D460368BDF82C8023
:10A9D0005B69BDF9289098472368CDF8008032461E
:10A9E00039462046D3F824A02B46D047236809F1E6
:10A9F000FF32CDF80080324439462046D3F824A0F7
:10AA000012B22B46D0472368CDF800803246394633
:10AA10002046D3F820A04B46D0476B1ED919236897
:10AA2000CDF8008020461D6A32464B4609B2A84741
:10AA300020462368DB6A02B0BDE8F047184770473C
:10AA400001F00303B0F90A208376B0F90830C90792
:10AA500059BF8381C2818281C381704730B5018132
:10AA6000002481814FF0FF31054D4281C281054AAA
:10AA70004460C0E90512056004610477046230BDDA
:10AA800030F33F02010100012DE9F04F1C4687B071
:10AA90000092A2B2C2F10106C2EBC232520012B25F
:10AAA0000392002280469DF8403002920193019A61
:10AAB000BDF8443002F0040236B204928FB2029A1A
:10AAC000A24280F29980002E08DB039A013C0232F8
:10AAD00011B216FA82F624B2039136B2029A01320A
:10AAE00095B212B2029206EB4506049A013636B2CE
:10AAF000F2B1009AD8F800001FFA84FA1AFA82F22A
:10AB00007919D0F818B0BDF800904046059312B2FC
:10AB100009B2D847D8F8003009EB050207EB0A0163
:10AB2000D3F818B04046059B12B209B2D847059B2E
:10AB3000019A90071DD5BDF80090D8F800001FFAC3
:10AB400084FAA9EB0A027919D0F818B005934046A7
:10AB500012B209B2D847D8F80030A9EB050207EBCA
:10AB60000A01D3F818B04046059B12B209B2D84783
:10AB7000059B019A11071ED5009AD8F800001FFA0C
:10AB800084F915FA82F2A7EB0901D0F818B0BDF8E4
:10AB900000A04046059312B209B2D847D8F8003059
:10ABA00009EB0A02791BD3F818B04046059B12B294
:10ABB00009B2D847059B019AD20780D5BDF800900D
:10ABC000D8F800001FFA84FAA9EB0502A7EB0A01E6
:10ABD000D0F818B00593404612B209B2D847791B95
:10ABE000D8F80050A9EB0A02059B4046AD6912B2A5
:10ABF00009B2A847059B62E707B0BDE8F08F2DE9D1
:10AC0000F04F1C468BB0BDF8583083460493A3B276
:10AC1000C3F10105C3EBC3335B001BB20793BDF95E
:10AC20005430884601339BB2059393B20693059B3B
:10AC30009DF8501003930023029301F00103089341
:10AC4000DDF818A001F002032DB20993029BA34284
:10AC50006FDA002D6BDB079B661E02331AB215FA02
:10AC600083F536B207922DB2029F01371FFA87F99A
:10AC70003BB205EB490501359E4202932DB229DB1B
:10AC8000089B93B1049806990090DBF80000059B9F
:10AC9000006AB2B203EB42038A1A09EB08010746C5
:10ACA0001BB2584612B209B2B847099B93B1049837
:10ACB0000699059BB2B20090DBF8000003EB42035B
:10ACC0008A1AA8EB09011BB2D0F8209012B258469C
:10ACD00009B2C847B44220D0089B73B1049ADBF88C
:10ACE0000030009208EB0401D3F820905846BDF9DB
:10ACF0000C300FFA8AF209B2C847099B6BB1049A6B
:10AD0000DBF80030A8EB040100921C6A5846BDF93C
:10AD10000C300FFA8AF209B2A0470AF1FF331FFA8A
:10AD200083FA039B344602339BB203938EE7264695
:10AD30009AE70BB0BDE8F08F2DE9F04F89B0BDF96F
:10AD400048908B4699454D46A8BF1D46BDF94C100D
:10AD500005EBD5756E108E42A8BF0E4604460168FD
:10AD6000059202934969BDF8507088471FFA8BF32A
:10AD70000493029B1FFA86FA9BB202934FEA4A039E
:10AD80009BB203932168DDE902321AFA8BF89B1A11
:10AD90000FFA88F81BB2009720464D6A059A414683
:10ADA0000793A847059A216895B26A1E1FFA89F38E
:10ADB00012FA89F20593009793B22046D1F82490B5
:10ADC00006934146079B12B2C8470399059B0AEBBD
:10ADD00005025B1A216812B21BB2009720460D6A69
:10ADE000059359460392A847049B2068591E029B6D
:10ADF000039A19440097056A059B20461FFA81F9BA
:10AE0000029209B2A847012341462046029A0093C4
:10AE100001973346FFF738FE0223A9EB0A012046CB
:10AE2000029A09B20093019733460391FFF72CFE73
:10AE3000069B2046A3EB0A020423039912B2009357
:10AE4000019733460292FFF71FFE08232046009326
:10AE500041463346029A0197FFF716FE20462368C3
:10AE6000DB6A09B0BDE8F04F18472DE9F04F2DED32
:10AE7000028B994687B0BDF948500F464D452B4689
:10AE8000A8BF4B46BDF94C1003EBD3735C108C424A
:10AE9000A8BF0C46036806461FFA84F85B69934610
:10AEA000BDF850A09847BBB218FA87F705933BB29C
:10AEB00008EE103ACDE9005A31681FFA89F34FEADB
:10AEC0004809CA691FFA89F90493A3EB09031746D5
:10AED00018EE101A5A4630461BB2B847059B013D82
:10AEE000591E049BA5EB0905194401232DB208EB5B
:10AEF0000B02A1EB0801304612B20093CDE9015AD2
:10AF0000234609B20492FFF77AFE022330460093EB
:10AF100018EE101A2346CDE9015A049AFFF76FFE86
:10AF200030463368DB6A07B0BDEC028BBDE8F04FFA
:10AF300018472DE9F04F0026354689B0CDE90212B9
:10AF400004930268BDF94C30BDF9488052690593FD
:10AF50000446BDF850A0904718F1070248BF08F119
:10AF60000E024FEAE20B0196039B019ABDF9041011
:10AF70009A18059B12B28B4227DD4FF00009049B03
:10AF8000334406930FFA89F080451FFA89F117DDE3
:10AF90004F0705BF069BC0106D001D5C18BFEDB2CA
:10AFA0002B060AD5029B20681944836907921F4625
:10AFB0002046534609B2B847079A09F10109E1E76B
:10AFC000019B5E4401330193CEE720462368DB6A90
:10AFD00009B0BDE8F04F18472DE9F04F2DED028B79
:10AFE00091B016461F46026ABDF870308346BDF820
:10AFF00074809DF878509DF87C4003910493002A5A
:10B0000040F0C580B0F90C308B4240F34C81B0F970
:10B010000E30B34240F34781062313FB0513002B88
:10B0200040F3418106EBC403002B40F33C81037FD6
:10B030001BB9AF2F84BF0137FFB2DBF80030584691
:10B040005B6998470522099200220592984A07EB0E
:10B050008703D3180C93B3B20693059A0C9B02FB9B
:10B0600005F99B5C0793ABB20B93BDF80C300893CA
:10B07000039B19FA83F90FFA89F308EE103A0823B3
:10B080004FF000090A93039B02EB030A0FFA8AFAB6
:10B09000079ADBF80030D20752D5012D1FFA89F24A
:10B0A0003ED1012C3CD19B6906991F46049B0A4462
:10B0B0005146584612B2B84709F101034FFA83F9D5
:10B0C000079B5B0807930A9B013B13F0FF030A935E
:10B0D000DED1059F01377BB20593099B013B13F03D
:10B0E000FF030993B9D1049B43450FD0012DDBF831
:10B0F00000303BD1012C39D10899CDF800800531C1
:10B100001C6A32460823584609B2A0475846DBF865
:10B110000030DB6A11B0BDEC028BBDE8F04F184780
:10B1200014FB02F206990A44049901910094DB6928
:10B1300018EE101A1F4658462B4612B2B847BBE706
:10B14000049A4245B8D0012D1FFA89F207D1012C8B
:10B1500005D19B6906991F460A444346A8E714FB9C
:10B1600002F20699CDF804800A44DFE70B9AE40066
:10B1700002EB8201089ACDF804800A44114600943B
:10B18000DC6932462B46584609B2A047BEE7137A1F
:10B190005168FF1A1268FFB20B9231F8372001EBA9
:10B1A000C70306929A78012D0992DA7893F906A0DE
:10B1B0000C9293F905200A9201D8012C57D9BDF9B8
:10B1C000283008930FFA8AF307934FF00008C1461E
:10B1D0004746DBF8003058465B699847B3B20E9398
:10B1E0001AFA86F30F930C9B9F428FD2079B0E9AFD
:10B1F0003B4403FB042300221BB208EE103A4346F3
:10B2000005920F9A02EB070A0FFA8AFA099A059932
:10B21000914241D25A1CD2B25B070D9207D1069BD4
:10B2200006990B9A01339BB212F80190069319F01C
:10B23000800F12D0012DDBF80030BDF80C101AD1B0
:10B24000012C18D10A9A9B691144059A1E46114493
:10B2500058465246049B09B2B047059E4FEA490939
:10B260000136F3B205935FFA89F90D9BCEE700230F
:10B27000CDE90733A9E70598089A024402FB0511B6
:10B28000049A5846CDE90042DB6918EE102A1E46A2
:10B2900009B22B46B047E0E7099B013798445FFAB3
:10B2A00088F8FFB29FE711B0BDEC028BBDE8F08FCC
:10B2B00028EE3F02F0B5026A04460B4685B0002A2C
:10B2C00034D10A2908D1438A0282427E03EBC203A9
:10B2D0006382012005B0F0BD0D29FAD0E17E007E29
:10B2E000657E71B10621B4F9106011FB0061B4F9FB
:10B2F0000C60B142C1BFB4F91210228201EBC50249
:10B300006282E28ACDE902050192A28A2046009279
:10B31000B4F91010B4F91220FFF75EFE237E228AE2
:10B3200003EB430302EB43032382D2E70A2907D14D
:10B3300000230382417E127B438A01FB0233C7E76D
:10B340000D29C6D0157AA942C3D3917A9942C0D3A8
:10B3500051685D1BEDB201EBC505A87828B3E9780B
:10B3600019B3E17E267E677E91B195F905100844F8
:10B37000B4F9101006FB0011B4F90C00814207DD8E
:10B3800000202082B4F91210127B02FB07126282A5
:10B39000E28A20460192A28ACDE902670092B4F9BE
:10B3A0001010B4F91220FFF717FE2979227E238AA4
:10B3B00001FB0233B8E7012938BF0121017641764C
:10B3C0007047036A29B113B9438A06334382016285
:10B3D0007047002BFBD0438A063BF7E70029F0B506
:10B3E00066DBB0F90C408C4262DD002A60DBB0F90C
:10B3F0000E4094425CDD847E022C5AD0032C61D036
:10B40000012C04D1D243048914440A4621B2B0F974
:10B4100038408C42A8BF0C460487B0F93A409442A9
:10B42000A8BF14464487B0F93C408C42B8BF0C46D4
:10B430008487B0F93E409442B8BF1446C48790F860
:10B440004C40012C16D1012B42D0022B51D08BB98C
:10B450001446002A0589B8BFD41DE41014FB051456
:10B460000125476B02F0070605FA06F63D5D25EA61
:10B4700006053D5590F84C40042C19D1048914FB65
:10B4800002F202EBD27401EBD17242F34F0202EBF3
:10B490006402446BC907A05C4BBF03F00F0300F0CC
:10B4A0000F0020F00F0040EA031348BF0343A354EA
:10B4B000F0BDD2430489013C611A448909B2224497
:10B4C00012B2A4E74489013C641A114622B29EE7F5
:10B4D0001446002A0589B8BFD41DE41014FB0514D6
:10B4E0000125466B02F00707BD40375D3D433555EA
:10B4F000C0E71446002A0589B8BFD41DE41014FB28
:10B5000005140125466B02F00707BD40375D7D40FD
:10B51000EDE7000038B50D46114604461AB209B2EF
:10B52000FFF79CFA0B4B069A23600023E262079A0E
:10B53000C4E90933C4E90C234FF0FF33C4E91033E5
:10B540009DF914302046A364049B84F84C50236575
:10B5500038BD00BF88F33F0238B50C4B044603608A
:10B56000406B18B100F0BEFF00236363656A35B11C
:10B570002846FEF7ACFF38212846FEF7CCFDA06A2E
:10B5800010B11021FEF7C7FD204638BD88F33F02F9
:10B5900030B5856A87B004468DF80F107DB1002361
:10B5A000CAB2CDE900338DF814308DF8152001238F
:10B5B0000222284605A9FEF754FF07B030BD2946F0
:10B5C000B0F8400002F071FF2B460122606A00953E
:10B5D0000DF10F01FFF79EF8EFE7002914BFA72137
:10B5E000A621FFF7D5BFF0B5856A04460E4617467B
:10B5F00085B065B100238DF80F3001230DF10F00E8
:10B60000009001932846FEF72CFF05B0F0BD2946B7
:10B61000B0F8400002F049FF2B463A463146606AD6
:10B620000095FFF777F8F0E710B5038990F84C2004
:10B63000B0F90A1012FB03F2CB1D48BF01F10E0353
:10B64000DB1004465A430021406B03F080F80023CE
:10B65000A3632389013BA3876389013BE38710BD73
:10B6600070B5436B04460E4615460BB3002D33D11F
:10B67000236D002B50D01020FEF749FD054618B170
:10B680003146226DFEF7C2FEA5621DB30121284698
:10B69000FEF7D8FEF0B12046FFF7C6FF0023A363F4
:10B6A00023890120013BA3876389013BE38712E0E3
:10B6B000238990F84C00B4F90A2010FB03F0D31D45
:10B6C00048BF02F10E03DB10584300F0FDFE60633B
:10B6D0000028CBD1002070BDA06C0028C8DB012160
:10B6E00080B202F0D1FE0121B4F8480002F0DDFE84
:10B6F0000A2000F04BFF0021B4F8480002F0D5FE0C
:10B700000A2000F043FFB4F84800012102F0CDFE0A
:10B710000A2000F03BFFABE7606A0028DAD0FEF7B2
:10B72000DFFE0028D6D00121B4F8400002F0ACFEC4
:10B73000B1E7812307B502228DF8051001A98DF824
:10B740000430FFF750FF03B05DF804FB10B504466A
:10B75000024B036000F058F9204610BDC4F53F02CB
:10B7600010B50446FFF7F2FF20465821FEF7D3FC40
:10B77000204610BD30B5044685B00A9D0295099D4E
:10B7800001959DF92050009500F024F92046024BC8
:10B79000236005B030BD00BFC4F53F0230B504469C
:10B7A00085B0FFF75DFF2F212046FFF7C2FFA2689B
:10B7B0002F4B9A4221D12368012120461B6B9847C9
:10B7C00001252023CDE901357323B4F90820B4F90C
:10B7D0000A10203A733902EBD27201EBD171204684
:10B7E000009341F34F01234B42F34F02FFF7A1FBBC
:10B7F0002368002120461B6B9847A368B3F1801F84
:10B8000017D120230120CDE901307323B4F908209A
:10B81000B4F90A10203A733902EBD27201EBD171FC
:10B8200000932046134B42F34F0241F34F01FFF7C1
:10B8300080FB162220461049FFF7D5FE054618B9B1
:10B840000025284605B030BDA368B3F1801F07D09E
:10B85000642000F09BFEAF212046FFF799FEF0E741
:10B86000042220460549FFF7BEFE0028F0D1E7E795
:10B8700040008000DCF33F021CF63F0218F63F0256
:10B880002DE9F04F89B0044600F004FA40238DF80A
:10B890001B30B4F90A30B4F93A5094F808A0DA1D14
:10B8A00094F8388048BF03F10E02002DB8BF073569
:10B8B000D04528BFD046C2F3C7030393C5F3C705DD
:10B8C000B4F93C3005FB0A8B23EAE3730AF1010269
:10B8D00052FA83F30493039B9D4271D2049B268901
:10B8E00094F854209E1B4244676BA36A4FEA221CC3
:10B8F000A6EB0806A5F150015F44F6B2C9B20CF1FF
:10B90000100C02F00F02002B3AD0D8688DF81D10F1
:10B9100001381FFA80F94FF00000E16A8DF81C0031
:10B9200018468DF81EC08DF81F20FEF7CAFD0023B3
:10B930000422CDE90033A06A012307A9FEF791FD97
:10B940005FFA89F9A06AA6B10123B1454A4628BF2A
:10B95000324601930DF11B033946009301230592F2
:10B96000FEF77FFD059AB61A1744F6B200F092F979
:10B97000E8E7216BFEF7A5FD0135EDB2D344AAE758
:10B98000B4F840008DF81C1019468DF81DC08DF8D4
:10B990001E20059302F089FD059B0322009307A951
:10B9A000606AFEF7B7FEB4F84000012102F07DFDA9
:10B9B000059B32463946606A0093FEF7ABFEDBE733
:10B9C0004FF004224FF0FF33C4E90E2309B0BDE865
:10B9D000F08F000030B5044685B00A9D0395099D9F
:10B9E00002959DF92050CDE9003513460A46012104
:10B9F000FFF790FD034B20462360002384F854306A
:10BA000005B030BD3CF63F0210B50446024B036062
:10BA1000FFF7A2FD204610BD3CF63F020EB44FF0EA
:10BA2000200C002300B58CB00DAA52F8041BCDE900
:10BA300004C3CDE900120392016804AA322000F089
:10BA40000FFC0CB05DF804EB03B070471FB5044663
:10BA500002F060FD154A16490346CDE901214FF079
:10BA6000FF324021009220468022FFF783FE002310
:10BA700010491A4604F1580000F072F81C23002205
:10BA80000D4904F17C0000F06BF8382300220B49CB
:10BA900004F1A00000F064F854230022084904F1E6
:10BAA000C40000F05DF8204604B010BD801A060006
:10BAB000A08601008EF73F0246F73F02FEF63F02E6
:10BAC000B6F63F0213B504467C30019000F05AF8F8
:10BAD0002146019802B0BDE8104000F057B810B5FB
:10BAE00004460146583000F051F8214604F17C002C
:10BAF00000F04CF8214604F1A00000F047F804F1F2
:10BB0000C400214600F042F82046BDE81040FFF78F
:10BB1000B7BE000010B501223C210446FFF73EFEEF
:10BB200050B90B490B48FFF779FF0B4C00F014F9A3
:10BB3000206000F005FCF9E708490648FEF728FBFD
:10BB40002046FFF771FD2046BDE81040FFF7C7BF54
:10BB500090F63F0270AE0710F0AE0710ABF63F0252
:10BB6000C0E900128360402218232221C0E9032388
:10BB70001B23C0E905131123C361012310B580F80D
:10BB8000203010BD80F8201070470000F0B50D4641
:10BB900004463D49284685B0FFF713FC022128469C
:10BBA000FFF709FCD4E9022394F82060616820695A
:10BBB000002E30D14FF0010C0327023000B2CDE946
:10BBC000017C00901BB2284612B209B2FFF74DF972
:10BBD000A2686168B4F9103001320131CDE9013653
:10BBE000009312B2236809B22846FFF7A2F9E2696E
:10BBF000A3686169134462686B820A4423492A82FC
:10BC00006E61284602F09DF828462B681B6D05B032
:10BC1000BDE8F040184703270026CDE9017601264C
:10BC2000013000B200901BB2284612B209B2FFF7F1
:10BC30001CF92369284602331BB2B4F90820B4F971
:10BC400004100093CDE90176B4F90C30FFF774F8D5
:10BC5000A2686168B4F9103032443144CDE901364C
:10BC6000009312B2236809B22846FFF762F9E2692D
:10BC7000A368A169134462686B824FF001130A4400
:10BC80002A8203496B61BCE7E0FB3F02D7ED3F022C
:10BC9000DAED3F0209B504480068044B03441B6811
:10BCA000DB68029309BD0000B0AC07103000000053
:10BCB00009B504480068044B03441B685B6C02939D
:10BCC00009BD0000B0AC07103000000009B5044801
:10BCD0000068044B03441B689B6C029309BD000081
:10BCE000B0AC07103000000009B504480068044BF0
:10BCF00003441B68DB6C029309BD0000B0AC071065
:10BD00003000000009B504480068044B03441B6878
:10BD10005B6D029309BD0000B0AC0710300000005D
:10BD200009B504480068044B03441B685B68029330
:10BD300009BD0000B0AC07100000000009B50448C0
:10BD40000068044B03441B68DB68029309BD0000D4
:10BD5000B0AC07100000000009B504480068044BAF
:10BD600003441B685B69029309BD0000B0AC071077
:10BD70000000000009B504480068044B03441B6838
:10BD80009B68029309BD0000B0AC071014000000CE
:10BD900009B504480068044B03441B68DB68029340
:10BDA00009BD0000B0AC07101400000009B504483C
:10BDB0000068044B03441B681B69029309BD000023
:10BDC000B0AC07101400000009B504480068044B2B
:10BDD00003441B681B68029309BD0000B0AC071048
:10BDE0001000000009B504480068044B03441B68B8
:10BDF000DB68029309BD0000B0AC07101000000022
:10BE000009B504480068044B03441B689B6902930E
:10BE100009BD0000B0AC07101000000009B50448CF
:10BE20000068044B03441B68DB69029309BD0000F2
:10BE3000B0AC07101000000009B504480068044BBE
:10BE400003441B681B6A029309BD0000B0AC0710D5
:10BE50001000000009B504480068044B03441B6847
:10BE60005B6A029309BD0000B0AC0710100000002F
:10BE700009B504480068044B03441B689B6A02939D
:10BE800009BD0000B0AC07101000000009B504485F
:10BE90000068044B03441B68DB6A029309BD000081
:10BEA000B0AC07101000000009B504480068044B4E
:10BEB00003441B681B6B029309BD0000B0AC071064
:10BEC0001000000009B504480068044B03441B68D7
:10BED0005B6B029309BD0000B0AC071010000000BE
:10BEE00009B504480068044B03441B681B6C0293AB
:10BEF00009BD0000B0AC07101000000009B50448EF
:10BF00000068044B03441B685B69029309BD000091
:10BF1000B0AC07104C00000009B504480068044BA1
:10BF200003441B689B68029309BD0000B0AC071076
:10BF30005000000009B504480068044B03441B6826
:10BF4000DB68029309BD0000B0AC07105000000090
:10BF500009B504480068044B03441B681B6802933E
:10BF600009BD0000B0AC07101800000009B5044876
:10BF70000068044B03441B68DB69029309BD0000A1
:10BF8000B0AC07101800000009B504480068044B65
:10BF900003441B681B6A029309BD0000B0AC071084
:10BFA0001800000009B504480068044B03441B68EE
:10BFB0005B6A029309BD0000B0AC071018000000D6
:10BFC00009B504480068044B03441B689B6A02934C
:10BFD00009BD0000B0AC07101800000009B5044806
:10BFE0000068044B03441B689B6B029309BD00006F
:10BFF000B0AC07101800000009B504480068044BF5
:10C0000003441B68DB6B029309BD0000B0AC071052
:10C010001800000009B504480068044B03441B687D
:10C020001B6C029309BD0000B0AC071018000000A3
:10C0300009B504480068044B03441B685B6C029319
:10C0400009BD0000B0AC07101800000009B5044895
:10C050000068044B03441B689B68029309BD000001
:10C06000B0AC07102400000009B504480068044B78
:10C0700003441B68DB68029309BD0000B0AC0710E5
:10C080002400000009B504480068044B03441B6801
:10C090001B69029309BD0000B0AC0710240000002A
:10C0A00009B504480068044B03441B685B690293AC
:10C0B00009BD0000B0AC07102400000009B5044819
:10C0C0000068044B03441B689B69029309BD000090
:10C0D000B0AC07102400000009B504480068044B08
:10C0E00003441B68DB69029309BD0000B0AC071074
:10C0F0002400000009B504480068044B03441B6891
:10C100001B6A029309BD0000B0AC071024000000B8
:10C1100009B504480068044B03441B689B6A0293FA
:10C1200009BD0000B0AC07102400000009B50448A8
:10C130000068044B03441B68DB6A029309BD0000DE
:10C14000B0AC07102400000009B504480068044B97
:10C1500003441B681B6C029309BD0000B0AC0710C0
:10C160002400000009B504480068044B03441B6820
:10C170001B68029309BD0000B0AC0710340000003A
:10C1800009B504480068044B03441B685B680293CC
:10C1900009BD0000B0AC07103400000009B5044828
:10C1A0000068044B03441B689B68029309BD0000B0
:10C1B000B0AC07103400000009B504480068044B17
:10C1C00003441B681B69029309BD0000B0AC071053
:10C1D0003400000009B504480068044B03441B68A0
:10C1E0005B69029309BD0000B0AC07103400000089
:10C1F00009B504480068044B03441B689B6902931B
:10C2000009BD0000B0AC07103400000009B50448B7
:10C210000068044B03441B68DB69029309BD0000FE
:10C22000B0AC07103400000009B504480068044BA6
:10C2300003441B681B6A029309BD0000B0AC0710E1
:10C240003400000009B504480068044B03441B682F
:10C250005B6B029309BD0000B0AC07104800000002
:10C2600009B504480068044B03441B685B6D0293E6
:10C2700009BD0000B0AC07104800000009B5044833
:10C280000068044B03441B68DB6E029309BD000089
:10C29000B0AC07104800000009B504480068044B22
:10C2A00003441B681B6F029309BD0000B0AC07106C
:10C2B0004800000009B504480068044B03441B68AB
:10C2C0005B68029309BD0000B0AC071008000000D5
:10C2D00009B504480068044B03441B685B6902937A
:10C2E00009BD0000B0AC07100800000009B5044803
:10C2F0000068044B03441B68DB6A029309BD00001D
:10C30000B0AC07100800000009B504480068044BF1
:10C3100003441B68D3F88830029309BDB0AC071002
:10C320000800000009B504480068044B03441B687A
:10C33000D3F89430029309BDB0AC07100800000098
:10C3400009B504480068044B03441B689B680293CA
:10C3500009BD0000B0AC07102C00000009B504486E
:10C360000068044B03441B68DB6B029309BD0000AB
:10C37000B0AC07102C00000009B504480068044B5D
:10C3800003441B685B68029309BD0000B0AC071052
:10C390002800000009B504480068044B03441B68EA
:10C3A0009B68029309BD0000B0AC07102800000094
:10C3B00009B504480068044B03441B68DB6802931A
:10C3C00009BD0000B0AC07102800000009B5044802
:10C3D0000068044B03441B681B69029309BD0000FD
:10C3E000B0AC07102800000009B504480068044BF1
:10C3F00003441B685B69029309BD0000B0AC0710E1
:10C400002800000009B504480068044B03441B6879
:10C410009B69029309BD0000B0AC07102800000022
:10C4200009B504480068044B03441B68DB690293A8
:10C4300009BD0000B0AC07102800000009B5044891
:10C440000068044B03441B681B6A029309BD00008B
:10C45000B0AC07102800000009B504480068044B80
:10C4600003441B681B6B029309BD0000B0AC0710AE
:10C470002800000009B504480068044B03441B6809
:10C480005B6B029309BD0000B0AC071028000000F0
:10C4900009B504480068044B03441B681B6C0293F5
:10C4A00009BD0000B0AC07102800000009B5044821
:10C4B0000068044B03441B685B6C029309BD0000D9
:10C4C000B0AC07102800000009B504480068044B10
:10C4D00003441B681B68029309BD0000B0AC071041
:10C4E0000400000009B504480068044B03441B68BD
:10C4F0005B68029309BD0000B0AC071004000000A7
:10C5000009B504480068044B03441B689B68029308
:10C5100009BD0000B0AC07100400000009B50448D4
:10C520000068044B03441B685B6A029309BD00006A
:10C53000B0AC07100400000009B504480068044BC3
:10C5400003441B68DB6B029309BD0000B0AC07100D
:10C550000400000009B504480068044B03441B684C
:10C560001B6C029309BD0000B0AC07100400000072
:10C5700009B504480068044B03441B685B6C0293D4
:10C5800009BD0000B0AC0710040000000021FFF757
:10C590009FBE38B5046805467CB16368013B6360A3
:10C5A0005BB9236820469B689847A368013BA3605A
:10C5B0001BB923682046DB689847284638BD10B56C
:10C5C00043680446013B436063B903689B6898472E
:10C5D000A368013BA3602BB923682046BDE8104047
:10C5E000DB68184710BD70B50446D0E9005305EB71
:10C5F0000316AE4204D0284601F091FC1035F8E74E
:10C600002068FFF76FFF204670BD0000002302483E
:10C610000360FFF74DBB00BF58AE07100022406813
:10C620001146FFF70BBF002240681146FFF722BFFB
:10C6300000224068FFF710BF0022406881F001012E
:10C64000FFF7EEBE002340681A461946FFF7DABE30
:10C65000002340681A461946FFF7C6BE002240680C
:10C660001146FFF7B3BE002240681146FFF792BEA5
:10C67000002202214068FFF79BBE002340681A4653
:10C68000FFF77ABE0322024B5A60024A1A607047D3
:10C690005CAE0710F8FB3F027047F8B5064615463A
:10C6A0000C468F18BC4206D0336830469B6814F89D
:10C6B000011B9847F6E72846F8BD0022007CFFF7EB
:10C6C000BBBB0021007CFFF7C5BB0021007CFFF74E
:10C6D000CFBB0021007CFFF7D9BB0021007CFFF716
:10C6E000E3BB10B504461421FDF715FD204610BD2F
:10C6F00038B5044615464FF47A730022C4E9012385
:10C70000094B0846217423602946FFF7E9FBBF3037
:10C7100008D16B69DB0705D56868FFF7E3FEE868B9
:10C72000FFF7E0FE204638BD34FC3F020022007CCB
:10C73000FFF74ABB0023007C1A461946FFF752BB9D
:10C740000022007CFFF75CBB0022007CFFF766BB89
:10C750000121FFF7F9BF704710B504461821FDF716
:10C76000DAFC204610BDF0B5037D0E46062B4FF0D7
:10C7700000048DB000F1040712D000F1080515F88F
:10C78000011D0A22304601F0E6FAAF42044419D0F6
:10C79000002CF4D02E21304601F0C4FA0444EEE718
:10C7A0002F236A4639460A208DF80040FFF7A6FB82
:10C7B0006846FDF787FC3368024669463046DB6809
:10C7C0009847044620460DB0F0BD000010B5044661
:10C7D000044B1122002140F8043B01F0B8FF204631
:10C7E00010BD00BF5CFC3F020346074A10B543F88A
:10C7F000042B01F1100251F8044B914243F8044B11
:10C80000F9D10A781A7010BD5CFC3F0210B59DF892
:10C81000084044EA032343EA0242042342EA016156
:10C820004160037510BD000007B5064B0360CB786F
:10C8300000938B784A780978FFF7E8FF03B05DF83A
:10C8400004FB00BF5CFC3F02012200F1100313F85F
:10C85000101C1846012908D153F8041C02EB4102B0
:10C86000013A03F11003F2D17047022904BF53F8D3
:10C87000041C5218F4E70EB4F0B588B0102100AFD4
:10C8800007F1340555F8042B04462B4678187A60D6
:10C89000FD60FFF743FE0F287A681AD900F10803FC
:10C8A00023F007036E46ADEB030D411C2B46684693
:10C8B000FD60FFF733FE021E04DD23686946204653
:10C8C0009B689847B5462037BD46BDE8F04003B0A9
:10C8D00070470028F7D0236802469B68204607F17E
:10C8E00010019847EFE738B50B68044603604D68C0
:10C8F00043689D4208D015B16B6801336B60606876
:10C9000008B1FFF75CFE656038BD07B503688DF8B8
:10C91000071001229B680DF10701984703B05DF8ED
:10C9200004FB0B461146002210B50446C0E9002264
:10C9300083600BB9204610BDFFF7D5FFFAE7836887
:10C94000EBB11A78032A1AD8DFE802F00417021BA9
:10C950000520704702685B685268D05C2D2812D0B1
:10C96000A0F13003092B0ED974280ED066280CD004
:10C97000A0F16E03584258417047062070470020CE
:10C98000704704207047032070470220704710B59D
:10C990000446FFF7D4FF02280ED0C31EDBB2012BE2
:10C9A00014D82268A36850685B680A22BDE810406A
:10C9B0000021184401F0CCBF2268A36852685B686C
:10C9C000D05CA0F174035842584110BD0020FCE730
:10C9D00038B500230446C0E900330E48C4E9020319
:10C9E000A9B10B78032B06D08BB9136858684B6834
:10C9F000C35C6E2B07D013684D6858688B68284459
:10CA00005B1BA060E36011462046FFF76CFF2046E9
:10CA100038BD00BFCEFC3F0238B500250B460446AA
:10CA20001146C0E90055C0E90255C0E904554BB1B3
:10CA30001A78012A06D103F11002DB688260436193
:10CA4000FFF751FF204638BD10B54369044663B176
:10CA50008068013BE0601030A0602061636113B129
:10CA6000FFF7F2FEA060012000E0184610BD10B5EF
:10CA70007D210446FFF749FF01232046237110BDA5
:10CA800008B50379012B02D0022B04D008BD2C215C
:10CA9000FFF73BFFFAE73A21FAE710B50446FFF744
:10CAA000EFFF20467B21FFF730FF00232046237154
:10CAB00010BD000013B504460191FFF7E1FF2368A4
:10CAC0002046DB68019A03499847012320462371D9
:10CAD00002B010BD68FC3F0213B504460191FFF798
:10CAE000CFFF23682046DB68019A0349984701235A
:10CAF0002046237102B010BD6BFC3F022DE9F047C8
:10CB00000D469046222104462F46FFF7FEFEDFF831
:10CB1000A490A8444745BA463DD017F8016B222E91
:10CB200006D05C2E04D0304601F0E2FD0028F1D1A1
:10CB30002368294620469B68AAEB050298475C219A
:10CB40002046FFF7E2FE0D2E0AD8072E1CD9A6F1CB
:10CB50000803052B18D8DFE803F00D0F1117131584
:10CB6000222E01D05C2E0FD131462046FFF7CDFE9C
:10CB70003D46CFE76221F8E77421F6E76E21F4E73E
:10CB80006621F2E77221F0E72368324649462046E3
:10CB9000DB689847ECE7BD4205D02368294620466C
:10CBA0009B687A1B984722212046FFF7AEFEBDE81E
:10CBB000F08700BF6EFC3F0213B50446CDE90021AB
:10CBC000FFF75EFFDDE900212046FFF797FF022314
:10CBD0002046237102B010BD13B50446CDE90021F3
:10CBE000FFF74EFFDDE900212046FFF787FF012315
:10CBF0002046237102B010BD80680368DB681847C7
:10CC00007047084611B10B685B681847704770475A
:10CC100070477047704738B504460D4600682E21AE
:10CC200001F0D9FD2368C31A2B6023B1037803B147
:10CC3000013023682060184638BD10B504460C2129
:10CC4000FDF769FA204610BD10B504460421FDF732
:10CC500062FA204610BD10B504460421FDF75BFAC8
:10CC6000204610BDFFF740B808B5FDF721FAB0FA2D
:10CC700080F0400908BD704710B50C4601F0BCFAC1
:10CC8000844205D101F0B8FABDE8104001F0A8BA1D
:10CC900001F094FC844205D101F090FCBDE8104005
:10CCA00001F041BA2CB123682046BDE810405B6812
:10CCB000184710BD0B6803604B68436013B15A6896
:10CCC00001325A60704713B5044608460191FDF7DA
:10CCD000F9F902462046019902B0BDE81040FFF77D
:10CCE0007BBF13B5044608460191FDF7EBF90246F8
:10CCF000204623680199DB6802B0BDE81040184760
:10CD000007B503688DF807100122DB680DF10701F4
:10CD1000984703B05DF804FB0A6810B502604A68E2
:10CD200042600022C0E9022202618C688A6084604D
:10CD3000CC68CA60C4600C690A61046110BD00005F
:10CD40002DE9F74F4FF0140AD0E900841746454605
:10CD50000AFB04F40093174BA4105C43002C21DD64
:10CD600066100AFB06F005EB0009B9F804B03A4674
:10CD70005F4528BF5A462858019101F03EFD002822
:10CD80004FF0010301990BD15F4503D1009A137055
:10CD90003446E3E7FCD9A61B09F11405013EF7E789
:10CDA000F9DBF5E7A5EB08050248AD10684303B0D1
:10CDB000BDE8F08FCDCCCCCC7FB50369057E019169
:10CDC00003B3F9B1002600F10C04039603A901A8EE
:10CDD000FFF721FF0146A8B10DF10B032046039A8E
:10CDE0008DF80B60FFF7ACFF9DF80B3053B1236853
:10CDF000142404FB0034B4F906300834002BA8BF17
:10CE0000DDB2E3E7284604B070BD0EB4F0B58CB0D7
:10CE100000AF07F1440555F8042B04462B462021AA
:10CE200007F110007A60FD60FFF778FB1F287A6831
:10CE30001AD900F1080323F007036E46ADEB030D8A
:10CE4000411C2B466846FD60FFF768FB021E04DDAF
:10CE5000236869462046DB689847B5463037BD46AB
:10CE6000BDE8F04003B070470028F7D023680246C1
:10CE7000DB68204607F110019847EFE710B5084C32
:10CE8000D4E88F3FDB0709D42046FDF753F928B1DA
:10CE90002046FDF754F9034801F024FC024810BD78
:10CEA00068AE071077CF3F02B4AC071010B5084C3E
:10CEB000D4E88F3FDB0709D42046FDF73BF928B1C2
:10CEC0002046FDF73CF9034801F00CFC024810BD78
:10CED0006CAE0710DFCF3F02B8AC071038B50025A5
:10CEE0000446C0E90055C0E904558560856140F8F5
:10CEF000245FFEF7DDFEFFF7C1FFE061FFF7D6FF1D
:10CF000025732062204638BD10B50A4CD4E88F3F07
:10CF1000DB070CD42046FDF70DF940B10648FFF7BA
:10CF2000DDFF2046FDF70BF9044801F0DBFB02486A
:10CF300010BD00BF64AE071074AE0710C1D73F022A
:10CF40000023024A02490348FFF7A6B9A9D53F02C8
:10CF500035D53F02B5D43F0200231A46194618467C
:10CF6000FFF79AB937B504468D686846FFF7A2FE09
:10CF70006A4629462046FFF74FFD01A8FFF709FB47
:10CF8000204603B030BD37B50446CD686846FFF78C
:10CF900091FE6A4629462046FFF71AFD01A8FFF7D1
:10CFA000F8FA204603B030BD37B504460D6968462F
:10CFB000FFF780FE6A4629462046FFF7B2FC01A82B
:10CFC000FFF7E7FA204603B030BD000070B58AB025
:10CFD0000D46014604A8FFF7C5FF144E04A8FFF74D
:10CFE00033FDE8B1684604A9FFF7CDFF314602984A
:10CFF000FFF73AFE044610B12C1E18BF012401A809
:10D00000FFF7C7FA002CE9D0684604A9FFF7CCFF68
:10D010006846FFF7BCFC286001A8FFF7BAFADDE715
:10D0200005A8FFF7B6FA0AB070BD00BF74FC3F0256
:10D0300037B50C46134920461546FDF739F850B967
:10D0400001F0DAF84FF4165101F0C6F803B0BDE86C
:10D05000304001F0D1B820460B49FDF729F878B9E6
:10D060004FF4165301A928460193FFF7AFFF01F0D3
:10D07000A5FA019901F054F801F0A0FA03B030BD0F
:10D080000020FBE779FC3F0280FC3F0270B51426CC
:10D09000D0E90053044606FB0356AE4205D005F125
:10D0A0000800FFF7F3FF1435F7E72068FFF71AFAD7
:10D0B000204670BD10B504460C30FFF7E7FF204650
:10D0C000FFF791FA204610BD10B50446034B40F817
:10D0D000043BFFF7EFFF204610BD00BF00EE3F020C
:10D0E00010B50446FFF7F0FF20462421FDF713F8A2
:10D0F000204610BD10B50446024B0360FFF7E4FF65
:10D10000204610BD20FD3F0210B50446FFF7F2FF98
:10D1100020462421FCF7FFFF204610BD0022C0E975
:10D120000022826010B50C680A6004604C684A6096
:10D1300044608C688A60846010BD10B50446036842
:10D140001868FEF7DFFD204610BD00002DE9F04F06
:10D1500087B003931C4B80465B688946C3F3080382
:10D1600016466BB9FFF7D0FE044600F12403406A6F
:10D170000593FFF777FD237B2BB105A8FFF7DDFFB4
:10D1800007B0BDE8F08F01235FFA89F92373D4E972
:10D19000005305EB830AAA4512D055F8047B3146AB
:10D1A000381DFFF709FE8145F5D3039A3B680092CD
:10D1B000D3F808B04A46334641463846D847EAE7EE
:10D1C00000232373D9E700BF00ED00E02DE9F74FFE
:10D1D0009B461A4B80465B688946C3F30803164694
:10D1E0006BB9FFF791FE044600F12403406A0193F6
:10D1F000FFF738FD237B2BB101A8FFF79EFF03B09B
:10D20000BDE8F08F0123F6B22373D4E9005305EB98
:10D21000830A55450ED055F8047B5946381DFFF753
:10D22000CBFD8642F5D33B684A4641463846DB682B
:10D230009847EEE700232373DEE700BF00ED00E030
:10D240002DE9F341164B05465B680F46C3F308030F
:10D250001BBBFFF759FE044600F12403406A01930B
:10D26000FFF700FDD4E90063462406EB8308B045D0
:10D2700009D101A8FFF761FFA542B4BF002001203A
:10D2800002B0BDE8F08156F8040B39460430FFF7D0
:10D2900093FD8442A8BF0446E9E70020F0E700BF01
:10D2A00000ED00E0F8B5D0E901539D4204460E467A
:10D2B0000DDB6F1C002F006804DDB900FFF720F9BB
:10D2C00018B9F8BDFFF70EF900202060A7602768A5
:10D2D000626807EB85019200A2EB8502081D01F050
:10D2E0001CFA47F825606368012001336360E8E7B2
:10D2F00037B5044600F12403406A01930D46FFF759
:10D30000B1FCD4E9003203EB8202934219460AD001
:10D3100009680433A942F8D101A8FFF70EFF0025E0
:10D32000284603B030BD29462046FFF7BBFF05461F
:10D330000028F1D06368012B01D1FFF701FE01A89D
:10D34000FFF7FBFEECE70B4670B50446D0E90002A0
:10D3500000EB820282420FD001461D6851F8046B37
:10D36000AE4207D1521A01F0D8F901206368013B9F
:10D37000636070BD0846EDE70020FAE71FB504467C
:10D3800000F12403406A01910393FFF76BFC2046F0
:10D3900001A9FFF7D8FF18B163680BB9FFF7DCFDEF
:10D3A00003A8FFF7CAFE04B010BD182370B50446E9
:10D3B000D0E9045603FB0656AE4215D0204605F1CF
:10D3C0001001FFF7C0FF63680BB9FFF7C5FDE06907
:10D3D00029690368DB689847696919B1206A03689D
:10D3E000DB6898471835E7E71826D4E9045306FBAD
:10D3F0000356AE4204D0284600F091FD1835F8E7F8
:10D400000023636170BD73B50446FFF7A5FD04F109
:10D410002403606A0193FFF725FC2046FFF7C5FF50
:10D4200001A8FFF78AFE606A08B1FEF74FFCD4E955
:10D430000453182606FB0356AE4204D0284600F0DB
:10D440006EFD1835F8E72069FFF74CF82068FFF704
:10D4500049F8204602B070BD0148FFF7D4BF00BFB5
:10D4600074AE07108842F8B504460D46164615D925
:10D47000904214D2A2F11406751AA1F114072C449B
:10D48000B7421AD01CB131462046FFF745FC06F1E1
:10D490000800FFF7FBFD143E143CF1E70DD0B54248
:10D4A0000BD01CB129462046FFF736FC05F10800D9
:10D4B000FFF7ECFD14351434F1E7F8BD8842F8B5F8
:10D4C00004460D46164614D9904213D2A2F1100616
:10D4D000751AA1F110072C44B74218D01CB131467F
:10D4E000204600F085FD304600F019FD103E103C4E
:10D4F000F2E70CD0B5420AD01CB12946204600F014
:10D5000077FD284600F00BFD10351034F2E7F8BD2A
:10D5100070B50E1E054611DD3001FEF7D5FF04463D
:10D5200058B1D5E9001201EB0212FFF7C7FF2868D6
:10D53000FEF7D8FF01202C60AE6070BD0024F6E736
:10D540002DE9F04F90460023462295B00391D8F87C
:10D55000041004469942C0E90033C0E90233C0E92F
:10D560000433CDE9083302760A9323DCD8E9005767
:10D57000142303FB0757AF423BD029460BA800F00A
:10D5800037FD0BA90FA8099E00F032FDDDE9091354
:10D5900099421BDA089B099A03EB0616314603EB06
:10D5A000021206F11000FFF789FFEEB9099B013363
:10D5B000099311E008A8FFF7ABFF0028D6D108A80F
:10D5C000FFF711F8204615B0BDE8F08F013108A82B
:10D5D000FFF79EFF0028DDD10FA800F0A0FC0BA8EC
:10D5E00000F09DFC1435C6E730460FA900F000FDA1
:10D5F000DCE700264FF01409CDE90B660D96DDE956
:10D6000008239E427CDA3301D35806930BB90136C6
:10D61000F5E70023079309FB06F30BAD029307A977
:10D6200006A8FFF7F8FA82460028F0D04FF0000372
:10D6300001468DF817302846079A0DF11703FFF7BA
:10D640007FFB9DF817700190002F4AD1BDF81C3068
:10D65000CDE91177ADF840304FF6FF73CDF83CA01F
:10D66000ADF842301397D5E90132934217DB03F14D
:10D67000010ABAF1000F30DD09FB0AF0FEF724FFC2
:10D68000834660B3D5E9001209FB0212FFF7EAFEF8
:10D690002868FEF727FFC5F800B0C5F808A02B687A
:10D6A000019A09FB023A6A68514609FB02320AF103
:10D6B0001400FFF7D7FEBAF1000F03D050460FA9B0
:10D6C000FFF72AFB6B6801336B6011A8FFF7DEFCE4
:10D6D0003FB10BA8FFF7DAFC71E7BB46D8E701279B
:10D6E000F3E7019B2D6809FB0355069B1B782BB9BB
:10D6F000D8F80030029A13441B7CEB8008358EE783
:10D700002168226062686360A36809920A9A0A939A
:10D71000E368A2600B9A0B932369E2600C9A0C9366
:10D72000636922610D9A0D93039B089162612376D0
:10D73000CFE70000F0B504462646174687B00D46F1
:10D7400068461946FCF7D3FD0B4B694646F8043B87
:10D7500003A8FCF7CCFD394603AA3046FFF7F0FEDC
:10D7600003A8FCF783FD6846FCF780FD2046034BC9
:10D770002562236007B0F0BD00EE3F0208FD3F02C6
:10D78000F0B50F4685B038461C4916461D460A9C22
:10D79000FCF78EFCC0B9A4B1294601A8FFF7BEFC76
:10D7A0002420174900F09AFF054630B101AB3246FC
:10D7B0002146FFF7BFFF134B2B6001A8FCF756FD76
:10D7C0002C46204605B0F0BD38460F49FCF770FCEA
:10D7D00090B9002CF5D0294601A8FFF79FFC242022
:10D7E000074900F07BFF05460028E6D03246214677
:10D7F00001ABFFF79FFFE0E70024E2E788FC3F0270
:10D800005CFE3F0220FD3F028CFC3F02014B024ABE
:10D810001A60704770AE07109DFC3F022DE9F0477B
:10D82000089DD0F8209004460E461746984600F012
:10D83000E3FC81454DD02B79190704D520466A6950
:10D840005449FFF7E2FAB8F1000F0DD05B212046F2
:10D85000FFF756FA41462046FFF743FA23680222B3
:10D860002046DB684C4998472B79DA0724D5D5F850
:10D8700008802F21404600F0D4FF08B100F10108D4
:10D8800041462046FFF72DFA2B799B0708D53A2110
:10D890002046FFF735FA2046EA684049FFF7B5FA17
:10D8A0002A79236812F0040F20464FF00202DB6849
:10D8B00014BF3B493B4998472B7958071DD5296927
:10D8C0000B461A4613F8010B60B1202808D11946FF
:10D8D000F7E7354800F083F90028ACD0BDE8F087C1
:10D8E0002828EED12368521A2046DB68984723681F
:10D8F00004222046DB682D49984700213846FEF770
:10D90000BDFC01462046FFF7ECF9236802222046C1
:10D91000DB68244998471EB131462046FFF7E1F9FC
:10D920002B7913F0300F2CD023682149DB680222B9
:10D93000204698472B79D9060AD523680722204626
:10D940001C49DB6898472046AA691B49FFF75DFA26
:10D950002B799A0611D5DB0605D5236802222046CD
:10D96000DB680F4998472368204614490A22DB6880
:10D9700098472046E969FFF7B4F95D212046FFF793
:10D98000BFF923682046BDE8F0470222DB680C4956
:10D99000184700BFA1FC3F02A8FC3F0268FC3F0201
:10D9A000ABFC3F02B0FC3F029CAE0710AEFC3F0256
:10D9B000B3FC3F02B6FC3F02BEFC3F02C1FC3F028B
:10D9C000CCFC3F022DE9F0410446076A0D4616469D
:10D9D00000F012FC874207D0206A324603682946CD
:10D9E000BDE8F041DB681847034800F0F8F800286C
:10D9F000F2D0BDE8F08100BF9CAE07102DE9F043E6
:10DA000085B0D0F8209005460F4690461E460C9CE7
:10DA100000F0F2FB814505D1494800F0E0F800280C
:10DA200040F08A804FF000092B6A464A01A8019213
:10DA300003938DF80890FFF730F849464046FEF70B
:10DA40001DFC80464049012201A8FFF7B5F8414678
:10DA5000FFF739F93FB13D49012201A8FFF7ACF8C2
:10DA60003946FFF730F93EB13949012201A8FFF7E5
:10DA7000A3F83146FFF727F92379DF070ED5A6680B
:10DA80002F21304600F0CDFE00B1461C3149012265
:10DA900001A8FFF791F83146FFF715F923799E07A2
:10DAA00007D52D49022201A8FFF786F8E168FFF7A4
:10DAB00001F82379580714D5266933461F4613F811
:10DAC000012B2AB1202A01D11E46F7E7282AF5D1D9
:10DAD0000222224901A8FFF76FF83146BA1BFFF76F
:10DAE0007BF82379190707D51D49012201A8FFF703
:10DAF00063F86169FEF7F0FF2379DA0608D504229E
:10DB000018490DEB0200FFF757F8A169FEF7D2FFA5
:10DB100023799B0607D51449062201A8FFF74CF884
:10DB2000E169FFF7D0F801A8FEF7A1FF286A0222F9
:10DB300003680E49DB68984705B0BDE8F08300BF75
:10DB40009CAE0710F0FC3F027EFC3F02CFFC3F0280
:10DB5000CBFE3F02D1FC3F02D3FC3F02D6FC3F028A
:10DB6000D5ED3F02D9FC3F02DEFC3F02CCFC3F0278
:10DB7000002340681A46FEF7FFBB002202214068DE
:10DB8000FEF716BC002240681146FEF703BC0022D7
:10DB900040681146FEF71ABC002340681A46194631
:10DBA000FEF722BC002340681A461946FEF72ABC3D
:10DBB00000214068FEF76CBC00214068FEF776BC8F
:10DBC0000022406881F00101FEF72ABC0022406873
:10DBD000FEF742BC002240681146FEF74BBC002213
:10DBE00040681146FEF72ABC2DE9F04395B0144673
:10DBF0000D460746FEF7EAFD00211C220DA8009104
:10DC000000F0A5FD402320460C9300216B460CAA92
:10DC1000FEF790F9044600284BD1024601216868BE
:10DC2000FEF7D4FB0221804622466868FEF7CEFB51
:10DC300021468146009E002E3BD0002939D17368D1
:10DC4000022B03D00A2B11D0F669F4E7B8F1000FCC
:10DC5000FAD0716906A804313C1D07ADFEF7E4FD5A
:10DC60000FCD0FC42B6841462370EDE7B9F1000FCB
:10DC7000EAD0102201A8746900F069FD062301AD05
:10DC80008DF8143004F1080318342A4618685968CE
:10DC9000083303C2A3421546F7D101A906A83C1DCB
:10DCA00007ADFEF7A1FD0FCD0FC42B6849462370C9
:10DCB000CAE70098FEF730F9384615B0BDE8F083A2
:10DCC000024B034A1A6000225A6070479CAE07104C
:10DCD00068FD3F02F8B506460D4600248F18BD4288
:10DCE0000CD0336830469B6815F8011B9847031E1B
:10DCF00001DB1C44F3E7002C08BF1C462046F8BD9E
:10DD000013B50446084659B10191FCF7DBF9024608
:10DD1000204623680199DB6802B0BDE8104018472F
:10DD200002B010BD03689B68184738B50D21054641
:10DD3000FFF7F8FF0A2104462846FFF7F3FF2044C7
:10DD400038BD38B50546FFF7DBFF04462846FFF728
:10DD5000ECFF204438BD0023012A98BF0A2230B5C9
:10DD60008BB08DF8243009AC0D46B1FBF2F101FB0C
:10DD7000125303F0FF03092B94BF30333733DBB268
:10DD8000AA4204F8013DEFD92146FFF7B9FF0BB0D5
:10DD900030BD00000022014B9A607047A4AE07100E
:10DDA0000021FEF745B90021FEF734B910B504464D
:10DDB00008462170FEF7DAF800232046636010BDA4
:10DDC00013B504460078FFF7EEFF58B920784FF6F8
:10DDD000FF710190FEF7BCF8019802B0BDE8104059
:10DDE000FFF7DEBF02B010BD0078FFF7D9BF00001B
:10DDF00030B50024400818601868E5B2884206D99A
:10DE00000134082C02D040081860F5E70725024BC2
:10DE10005B5D137030BD00BF9CFD3F022DE9F043F8
:10DE200006468FB000780C46FFF7BDFF00281BDBCD
:10DE30001422002109A8357800F089FC0B23002268
:10DE4000284609A9ADF82430FEF7ACF89DF82D302E
:10DE500013B19DF82C5055B100270125B946B8469D
:10DE600023795DB1C3B100200FB0BDE8F083DDF8C8
:10DE700030809DF834909DF83570F1E7002B35D156
:10DE8000A368434508D18DF820908DF82170BDF826
:10DE90002020A3899A42E6D00023A1688DF80F3094
:10DEA0000A9804AB0DF10F02FFF7A2FF217985B9A3
:10DEB00089B9A36843450ED38DF820908DF8217061
:10DEC000BDF82020A3899A4205D1049B434502D185
:10DED000C9E70029F9D100230193637B9DF80F2046
:10DEE0000093237B3078FEF787F8BCE72B462A4661
:10DEF0000121CDE90055F5E730B587B00A9D04460C
:10DF000000950078FEF75CF83DB9207802A9FEF78D
:10DF100065F89DF81430DB07F7D407B030BD10B5B5
:10DF200004460068FEF7DEFA204610BD10B5044630
:10DF3000006808B1FEF7D6FA0023C4E90133236074
:10DF400010BD38B504460D4600680131FEF7D8FA19
:10DF500010B1C4E90005012038BD10B503680446BE
:10DF600023B143688B4201D3012010BD2046FFF747
:10DF7000E8FF0028F9D0A368002BF5D122681370C0
:10DF8000F2E737B50D46114601920446FFF7E5FF6B
:10DF9000019A28B92046FFF7C9FF204603B030BDDB
:10DFA0002946A260206800F0ABFB00212268A3682C
:10DFB000D154F2E738B5054600680C4670B16A687E
:10DFC0008B689A4208D3096831B100F00EFCA3684F
:10DFD000AB600023A36038BDFEF784FA23682B6092
:10DFE00063686B60A368AB600023C4E90033F1E7AA
:10DFF000002310B50446C0E9003383600373FFF7C4
:10E00000D9FF204610BD884210B5044605D00B68E4
:10E010002BB18A681946FFF7B4FF204610BDFFF701
:10E0200085FFFAE7002310B50446C0E9003383609A
:10E030000373FFF7E8FF204610BD00000222002016
:10E04000044B1A60044B054AC3E900009A60FEF7CE
:10E0500031B900BFC0AE0710B4AE07100000FFFF1B
:10E06000024B1A68024B1A60704700BFBCAC071025
:10E07000C4AE071070474174704708B5007CFEF7C6
:10E0800047F820EAE07008BD08B5007CFDF7FAFF0C
:10E0900020EAE07008BD08B5007CFEF70FF840EA02
:10E0A000E07008BD08B5007CFDF7FAFF40EAE070BB
:10E0B00008BD007CFEF710B837B5457C04462DB18D
:10E0C000207C03B0BDE83040FDF7CEBF007C01915D
:10E0D000FEF71EF800280199F2DC284603B030BD97
:10E0E00010B504461421FCF716F8204610BD0000B8
:10E0F00010B54FF47A730446084611460022C4E96D
:10E100000123044B2074236001236374FEF71CF881
:10E11000204610BDC8FD3F020023007CFEF706B874
:10E120000022FFF7F9BF007CFDF790BF007CFDF7F0
:10E13000E1BF417470477047704708B50021007C0B
:10E14000FEF756F840EAE07008BD08B50121007CF2
:10E15000FEF74EF840EAE07008BD08B5007CFEF717
:10E1600039F820EAE07008BD08B5007CFEF724F815
:10E1700020EAE07008BD13B50446007C0191FEF76B
:10E1800029F80028019901DC607C20B1207CFEF791
:10E190003DF820EAE07002B010BD007CFEF744B804
:10E1A00010B504461421FBF7B6FF204610BD000051
:10E1B00010B54FF47A73044608460021C4E90113F0
:10E1C000044B20742360012311466374FDF7CAFFDA
:10E1D000204610BDF8FD3F020022007CFDF7D0BFB5
:10E1E000007CFDF7DBBF10B504461422002100F0CF
:10E1F000AEFA204610BD000010B588B003A8FFF7A6
:10E20000F2FF0C4CD4E88F1F11F001010FD1204612
:10E210000191FBF78FFF019948B103AA0648FFF768
:10E22000C7FF2046FBF78BFF044800F05BFA02486B
:10E2300008B010BDC8AE0710CCAE07109FE43F0277
:10E24000002240681146FEF7C1B80022406811461E
:10E25000FEF7F4B8002240681146FEF70BB9002221
:10E260004068FEF7F9B80022406881F00101FEF72E
:10E27000D7B8002340681A461946FEF7C3B80023F2
:10E2800040681A461946FEF7AFB8002240681146AA
:10E29000FEF780B8002202214068FEF789B800230B
:10E2A00040681A46FEF768B80422024B5A60024AD8
:10E2B0001A607047E0AE071028FE3F02014B18605D
:10E2C000704700BFC0AC071008B50F4B43B1FFF754
:10E2D00093FF03681B699847002801DD00E000BF39
:10E2E0000A4B43B100F06AF903681B69984700289C
:10E2F00001DD00E000BF064B0BB100F0A5F9054BB6
:10E300000BB100F0D7F908BD0000000000000000CC
:10E31000000000000000000008B5FFF7D5FFFDF782
:10E320001BFD014B186008BDF0AE07100548064AFA
:10E3300008B5121A054900F0E3F9054B054A1A60C1
:10E3400008BD00BF00B4071004B4071004FD5F0847
:10E3500000B407101E1C279A002307B51A466FF059
:10E3600077010093FDF7DEFF03B05DF804FB0000CA
:10E3700007B543880A2B08D0502B0BD1094B1B68DB
:10E380004BB103B05DF804EB1847FFF7E5FF03B0AE
:10E390005DF804FB00231A466FF077010093FDF748
:10E3A000C1FFF4E7ECAE0710002110B51148FEF7ED
:10E3B000DFF8114B1A68114B9A420CBF0122002260
:10E3C0000F4B1A7001D0FFF7B1FFFDF7A9FC04460F
:10E3D00000F0C6F90B4B13B1204600E000BF00214E
:10E3E0000848FDF7BBFFBDE8104000210648FDF7D7
:10E3F0008BBF00BF25E63F0200B407101E1C279A02
:10E40000E8AE071000000000D9E63F021B2837B530
:10E41000044602D9002003B030BDA0F10F03022B47
:10E420000BD9012821D800F075F80021007CFDF7F8
:10E4300049FD80F00100C0B2EDE7114DD5E88F1F16
:10E4400011F001010BD128460191FBF773FE0199F0
:10E4500028B10C48FFF7AAFC2846FBF770FE094BD1
:10E460001878FDF791FD0028D4D1083C012C05D87F
:10E4700000F0A4F8007CFDF73DFEDAE70120CAE7D2
:10E480004CAE071050AE07101B2838B504460D4699
:10E490000AD8FF2908D0FFF7B9FF28B1294620463E
:10E4A000BDE83840FDF766BC38BD38B504460D46BA
:10E4B000FDF76EFCFF2810D0062804D84D2323FA60
:10E4C00000F0C30709D42046FFF7A0FF28B1294672
:10E4D0002046BDE83840FDF769BC38BD70470000F4
:10E4E00038B50A4B044603600123094943612020E3
:10E4F00000F0F6F82025606005492846A56000F088
:10E50000EFF8C4E90305204638BD00BF180001003C
:10E510005CFE3F0230B50E4D87B0D5E88F1F11F07D
:10E52000010411D12846FBF705FE68B16846FFF7E4
:10E53000D7FF6A4621460748FEF7DAF82846FBF778
:10E54000FEFD054800F0CEF8024807B030BD00BF20
:10E55000F4AE0710F8AE071045E83F027047000020
:10E5600038B5142504462A46002100F0F0F825802D
:10E570004025074928462581258200F0B1F8044945
:10E580006060284600F0ACF8E060204638BD00BF6F
:10E590005CFE3F027047704710B50446FFF7E0FF8E
:10E5A000204610BD10B50446FFF7DAFF204610BD27
:10E5B00010B50446FFF7D4FF204610BD30B50E4D10
:10E5C00087B0D5E88F1F11F0010411D12846FBF761
:10E5D000B1FD68B101A8FFF7DFFF214601AA074896
:10E5E000FFF786FD2846FBF7AAFD054800F07AF8FC
:10E5F000024807B030BD00BF0CAF071018AF0710BE
:10E60000C5E83F0210B50D4C86B0D4E88F3FDB075C
:10E6100011D42046FBF78EFD68B101A8FFF7C2FFB9
:10E62000012101AA0648FFF763FD2046FBF787FD9D
:10E63000044800F057F8024806B010BD10AF0710AC
:10E640002CAF0710FFE83F0210B5FFF7DBFF074BC9
:10E65000044653B1FFF76AFD38B1236820461B69B1
:10E660009847002801DD00E000BF10BD0000000059
:10E6700010B50D4C86B0D4E88F3FDB0711D420468F
:10E68000FBF758FD68B101A8FFF792FF022101AA2C
:10E690000648FFF72DFD2046FBF751FD044800F02A
:10E6A00021F8024806B010BD14AF071040AF0710A4
:10E6B000FDE83F0210B5FFF7DBFF074B044653B1FF
:10E6C000FFF734FD38B1236820461B6998470028BE
:10E6D00001DD00E000BF10BD00000000FBF717BD2A
:10E6E000FBF717BD002301461A46184600F03AB959
:10E6F000024B1844407800F097007047CDFE3F026F
:10E700000A44431E914200D1704710B511F8014BE5
:10E71000914203F8014FF9D110BD884210B501EBC9
:10E72000020402D98442234607D8431EA14208D0DE
:10E7300011F8012B03F8012FF8E7024401468A4241
:10E7400000D110BD13F8014D02F8014DF7E7024466
:10E750000346934200D1704703F8011BF9E700001C
:10E7600038B5104B04461D68AB6BB3B91820FDF7E4
:10E77000ABFE0246A86320B90B4B42210B48FDF7C4
:10E78000E9FE0B490B4BC0E900130B4B00218360E2
:10E790000B2383810120C2E90401AB6B00221C61C1
:10E7A0005A6138BDC0AC07105DFE3F0274FE3F02E7
:10E7B0000E33CDAB34126DE6ECDE0500C9B2034674
:10E7C00010F8012B1AB18A42F9D118467047002976
:10E7D00018BF0023F9E710B50446FFF7EFFF18B99B
:10E7E0002046FBF76FFC204410BD034611F8012BB7
:10E7F00003F8012B002AF9D1704710B57AB103460E
:10E800000139841813F8010B11F8012F904201D13E
:10E81000A34201D1801A10BD0028F3D1FAE71046B7
:10E82000F9E738B503460C4669B9BDE83840FFF74B
:10E83000C5BF431C054621461846FFF7BFFF002809
:10E84000F7D1284638BD0025F5E70000012B2DE95A
:10E85000F04701D0242B06D9FDF76EFE1623036086
:10E860000020BDE8F0870D46DFF8E0C02E4615F821
:10E87000014B14F80C7017F00807F7D12D2C32D18A
:10E880002C780127B51C002B5BD0102B09D1302C24
:10E8900007D12C7804F0DF04582C4DD16C7810236C
:10E8A000023507F100484FF0000C08F1FF386646CA
:10E8B000B8FBF3F903FB198AA4F1300EBEF1090F7E
:10E8C00016D87446A34224DDBCF1000F1EDBB1450F
:10E8D0001CD301D1A24519DB06FB03464FF0010C06
:10E8E00015F8014BE8E72B2C04BF2C78B51CCAE7C0
:10E8F000A4F1410EBEF1190F01D8373CE2E7A4F1B3
:10E90000610EBEF1190F04D8573CDBE74FF0FF3C16
:10E91000E6E7BCF1000F05DA22234646036042B960
:10E9200030469EE707B17642002AF9D0BCF1000FCD
:10E9300000D0691E1160F3E73024002BB1D1082309
:10E94000AFE7302CA5D00A23ABE700BFCEFE3F02D5
:10E9500013460A46014602480068FFF777BF00BF2A
:10E96000C0AC07102DE9F843DFF8BC8006461F460F
:10E970000D46D8F80000914600F058F8264B1C6868
:10E9800034B9264C1C60264B13B11B68C4F8883080
:10E9900063681F2B07DDD8F8000000F049F84FF03E
:10E9A000FF30BDE8F8835EB3D4F8880088B91D4B0A
:10E9B00023B9D8F8000000F03AF8F0E74FF484707B
:10E9C000FDF782FD0028F4D00023C0E94033C4F8ED
:10E9D000880063680122022E40F8239002FA03F2B5
:10E9E00000EB8301D0F8003143EA0203C0F80031A4
:10E9F000C1F8807002BFD0F804311343C0F804316D
:10EA00006368D8F800005A1C0233626044F823504F
:10EA100000F00EF80020C4E7E0AF071054AF071075
:10EA20000000000031C83F0224AD07107047704756
:10EA3000704700003DA43F0265A43F0269A43F0265
:10EA40000000000043616C6C206F6E207075726571
:10EA5000207669727475616C004F4C4544204665A0
:10EA6000617468657257696E672074657374004FCE
:10EA70004E004F4646004368616E676520426C65F4
:10EA80006E6465722073746174653A2025730000AA
:10EA90000000000000000000000000000000000076
:10EAA00085A43F02ADA43F0200000000000000006A
:10EAB000B1A43F02E5A43F0285DB3F022DDD3F020A
:10EAC00000000000003E5B4F5B3E3E6B4F6B3E1C08
:10EAD0003E7C3E1C183C7E3C181C577D571C1C5E1F
:10EAE0007F5E1C00183C1800FFE7C3E7FF001824F6
:10EAF0001800FFE7DBE7FF30483A060E26297929A0
:10EB000026407F050507407F05253F5A3CE73C5AD4
:10EB10007F3E1C1C08081C1C3E7F14227F22145FB1
:10EB20005F005F5F06097F017F006689956A60600C
:10EB300060606094A2FFA29408047E040810207E06
:10EB4000201008082A1C08081C2A08081E1010108B
:10EB5000100C1E0C1E0C30383E3830060E3E0E06D1
:10EB6000000000000000005F000000070007001424
:10EB70007F147F14242A7F2A1223130864623649E3
:10EB80005620500008070300001C224100004122CB
:10EB90001C002A1C7F1C2A08083E080800807030D0
:10EBA000000808080808000060600020100804023F
:10EBB0003E5149453E00427F400072494949462145
:10EBC00041494D331814127F1027454545393C4AB9
:10EBD00049493141211109073649494936464949D0
:10EBE000291E000014000000403400000008142218
:10EBF0004114141414140041221408020159090686
:10EC00003E415D594E7C1211127C7F494949363E86
:10EC1000414141227F4141413E7F494949417F096C
:10EC20000909013E414151737F0808087F00417F77
:10EC300041002040413F017F081422417F40404075
:10EC4000407F021C027F7F0408107F3E4141413E0D
:10EC50007F090909063E4151215E7F09192946268F
:10EC60004949493203017F01033F4040403F1F2093
:10EC700040201F3F4038403F63140814630304786A
:10EC800004036159494D43007F414141020408108A
:10EC900020004141417F04020102044040404040C5
:10ECA000000307080020545478407F284444383833
:10ECB00044444428384444287F38545454180008A5
:10ECC0007E090218A4A49C787F0804047800447D7F
:10ECD00040002040403D007F1028440000417F401C
:10ECE000007C047804787C08040478384444443870
:10ECF000FC1824241818242418FC7C080404084850
:10ED00005454542404043F44243C4040207C1C20A0
:10ED100040201C3C4030403C44281028444C9090FB
:10ED2000907C4464544C4400083641000000770055
:10ED300000004136080002010204023C2623263C62
:10ED40001EA1A161123A4040207A385454555921ED
:10ED500055557941225454784221555478402054D5
:10ED60005579400C1E527212395555555939545423
:10ED7000545939555454580000457C410002457D92
:10ED8000420001457C407D1211127DF0282528F0BB
:10ED90007C545545002054547C547C0A097F4932E8
:10EDA000494949323A4444443A324A4848303A415F
:10EDB00041217A3A42402078009DA0A07D3D424208
:10EDC000423D3D4040403D3C24FF2424487E494391
:10EDD000662B2FFC2F2BFF0929F620C0887E090304
:10EDE00020545479410000447D413048484A32382B
:10EDF0004040227A007A0A0A727D0D19317D262957
:10EE0000292F28262929292630484D40203808084E
:10EE1000080808080808382F10C8ACBA2F10283482
:10EE2000FA00007B000008142A142222142A140875
:10EE30005500550055AA55AA55AAFF55FF55FF0084
:10EE40000000FF00101010FF00141414FF00101039
:10EE5000FF00FF1010F010F0141414FC001414F74D
:10EE600000FF0000FF00FF1414F404FC141417103A
:10EE70001F10101F101F1414141F00101010F0008A
:10EE80000000001F101010101F10101010F01000C4
:10EE90000000FF101010101010101010FF100000D4
:10EEA00000FF140000FF00FF00001F10170000FC0F
:10EEB00004F414141710171414F404F40000FF00E1
:10EEC000F714141414141414F700F714141417146A
:10EED00010101F101F141414F4141010F010F00070
:10EEE000001F101F0000001F14000000FC14000091
:10EEF000F010F01010FF10FF141414FF1410101075
:10EF00001F00000000F010FFFFFFFFFFF0F0F0F027
:10EF1000F0FFFFFF0000000000FFFF0F0F0F0F0FBB
:10EF20003844443844FC4A4A4A347E020206060207
:10EF30007E027E0263554941633844443C04407E6E
:10EF4000201E2006027E020299A5E7A5991C2A49E7
:10EF50002A1C4C7201724C304A4D4D303048784872
:10EF600030BC625A463D3E494949007E0101017E5E
:10EF70002A2A2A2A2A44445F444440514A444040B1
:10EF8000444A51400000FF0103E080FF00000808F0
:10EF90006B6B083612362436060F090F0600001870
:10EFA000180000001010003040FF0101001F010197
:10EFB0001E00191D1712003C3C3C3C0000000000E4
:10EFC0000000000000000000000000000000000041
:10EFD0001DB63F023DE03F0285A43F027FAB3F02EA
:10EFE00081AB3F02B3AB3F028FAB3F02A1AB3F020D
:10EFF000C1AA3F027FAB3F02A9AD3F02A7AD3F02CE
:10F00000CBAB3F0209AC3F0243AC3F0289AC3F02AD
:10F01000A5AC3F0227AD3F02000000000000000049
:10F0200000000000000000001DB63F023DE03F026E
:10F0300045B73F027FAB3F0281AB3F02B3AB3F021C
:10F040008FAB3F02A1AB3F02C1AA3F027FAB3F02A1
:10F05000A9AD3F0243B93F02CBAB3F0209AC3F022F
:10F0600043AC3F0289AC3F02A5AC3F0227AD3F0253
:10F0700085A43F02000060000000000000000000C6
:10F080000000000000E000000000000000000000A0
:10F0900000000001E000000000000000000000008F
:10F0A000000001F00000000000000000000000006F
:10F0B0000003F0000000000000000000000000005D
:10F0C00007F0000000000000000000000000000742
:10F0D000F8000000000000000000000000000FF831
:10F0E00000000003C0007E000001E0007F0FF80078
:10F0F000000003C000FE000001E000FFEFF8000088
:10F100000003C000FE000001E000FFFFF800000067
:10F1100003C000F00000000F007FFE7FC00000036E
:10F12000C000F00000000F003FFE7FF83FF1FBCF72
:10F13000FCFEF3BC3DEFE01FFE7FFF7FFBFFDFFE29
:10F14000FEFFBC3DEFE01FC6FFFF7FFBFFDFFEFEC3
:10F15000FFBC3DEFE00FE3C7FE787BC3DE1EF0FF90
:10F16000BC3DEF0007FF87FC787BC3DE1EF0F83C58
:10F170003DEF0001FFFFF0007BC3C01EF0F03C3DFF
:10F18000EF0001F37FE03FFBC3CFFEF0F03C3DEF2B
:10F190000003E33F807FFBC3DFFEF0F03C3DEF0068
:10F1A00007E73C00787BC3DE1EF0F03C3DEF000734
:10F1B000FFBE00787BC3DE1EF0F03C3DEF0007FF92
:10F1C000FE00787BC3DE1EF0F03C3DEF000FFFFE3B
:10F1D000007FFBFFDFFEF0F03FFDEFE00FFFFF00E1
:10F1E0007FFBFFDFFEF0F03FFDEFE00FF9FF003E99
:10F1F00079F9CF9EF0F01F3DE7E01FF1FF0000001E
:10F200000000000000000000001F80FF007FFFFFE3
:10F21000FFFFFFFFFFFFFFE01C007F007FFFFFFFFE
:10F22000FEB46D888D18E000001F007FFFFFFFFE19
:10F2300095AD7DB577E000000F007FFFFFFFFEA5D5
:10F24000AD9D8D19E0000006007FFFFFFFFEB5AD0C
:10F25000EDB57EE00000000000000000B5BA3F02FE
:10F26000C9BA3F021DB63F023DE03F0245B73F022B
:10F270007FAB3F0281AB3F02B3AB3F028FAB3F029C
:10F28000A1AB3F02C1AA3F027FAB3F02A9AD3F0243
:10F2900043B93F02CBAB3F0209AC3F0243AC3F0254
:10F2A00089AC3F02A5AC3F0227AD3F02E9BB3F025C
:10F2B000D300A87FAED55120814FAD8AA0C0DC001D
:10F2C000D360D922DB35A83FA4A6000000000000CF
:10F2D0000000000085A43F0285A43F021DB63F0246
:10F2E0003DE03F0245B73F027FAB3F0281AB3F02AB
:10F2F000B3AB3F028FAB3F02A1AB3F02C1AA3F02BB
:10F300007FAB3F02A9AD3F0243B93F02CBAB3F0207
:10F3100009AC3F0243AC3F0289AC3F02A5AC3F02BF
:10F3200027AD3F02E9BB3F02436F756C64206E6FEF
:10F330007420696E697469616C697A65204F4C4507
:10F340004421004F4C454420626567756E00000003
:10F3500000000000007E0001FF800381C006006005
:10F360000C703018F01818F81830780C30200C3069
:10F370001BCC305BCC30E7CC31E38C19E01818E0C3
:10F38000180C00300600600381C001FF80007E0081
:10F3900000000000000000000000000007FFE00F78
:10F3A000FFF00C00300C00300CC0300CC0300C00F2
:10F3B000300C00300FFFF00FFFF00C00300C00306D
:10F3C0000CC0300CC0300CC0300CC0300C00300C05
:10F3D00000300FFFF007FFE0000000000000000019
:10F3E000000000001FFFF81FFFFC1FFFCC0FFFCC29
:10F3F0000FF9CC07F9CC07F9CC07F9CC07F9CC0702
:10F40000F9C007FFC003FFC003FFC003FFC0000037
:10F410000000000007FFE00FE7F00FE7F00FFFF03C
:10F4200000000000000000000000000000000003D9
:10F43000FF8007FFE00600600730E00334C00300F0
:10F44000C00FFFF01FFFF83FFFFC3FFFFC3FFFFC3A
:10F450003FFFFF3FFFFF3FFFFC3FFFCC3FFFCC3FA5
:10F46000FFFC3FFFFC000000000000000000000067
:10F47000000006000100000001050200FC00010080
:10F4800003010400FC00020005050600FC00060064
:10F4900005050600FC000A0005050600FC000E003C
:10F4A00005050600FC00120001010200FC0013002B
:10F4B00002050300FC00150002050300FC00170014
:10F4C00003030400FD00190003030400FD001B00FA
:10F4D0000102020000001C0004010500FE001D00E6
:10F4E0000101020000001E0005050600FC002200CC
:10F4F00005050600FC00260001050200FC002700AF
:10F5000005050600FC002B0005050600FC002F0089
:10F5100005050600FC00330005050600FC00370069
:10F5200005050600FC003B0005050600FC003F0049
:10F5300005050600FC00430005050600FC00470029
:10F5400001040200FD00480001040200FD00490022
:10F5500003050400FC004B0004030500FD004D0002
:10F5600003050400FC004F0005050600FC005300E5
:10F5700005050600FC00570005050600FC005B00C1
:10F5800005050600FC005F0005050600FC006300A1
:10F5900005050600FC00670005050600FC006B0081
:10F5A00005050600FC006F0005050600FC00730061
:10F5B00005050600FC00770005050600FC007B0041
:10F5C00005050600FC007F0005050600FC00830021
:10F5D00005050600FC00870005050600FC008B0001
:10F5E00005050600FC008F0005050600FC009300E1
:10F5F00005050600FC00970005050600FC009B00C1
:10F6000005050600FC009F0005050600FC00A300A0
:10F6100005050600FC00A70005050600FC00AB0080
:10F6200005050600FC00AF0005050600FC00B30060
:10F6300005050600FC00B70005050600FC00BB0040
:10F6400005050600FC00BF0002050300FC00C10028
:10F6500005050600FC00C50002050300FC00C7000C
:10F6600003020400FC00C800050106000100C900F7
:10F6700001010200FC00CA0004040500FD00CC00EA
:10F6800004050500FC00CF0004040500FD00D100C6
:10F6900004050500FC00D40004040500FD00D600AC
:10F6A00003050400FC00D80004050500FD00DB0094
:10F6B00004050500FC00DE0001040200FD00DF007F
:10F6C00002050300FD00E10004050500FC00E40064
:10F6D00001050200FC00E50005040600FD00E8004D
:10F6E00004040500FD00EA0004040500FD00EC0030
:10F6F00004050500FD00EF0004050500FD00F20013
:10F7000004040500FD00F40004040500FD00F600FB
:10F7100005050600FC00FA0004040500FD00FC00DD
:10F7200004040500FD00FE0005040600FD000101C3
:10F7300004040500FD00030104050500FD000601A9
:10F7400004040500FD00080103050400FC000A0193
:10F7500001050200FC000B0103050400FC000D0183
:10F7600005030600FD00E8A057D5F500FD3E5F80CB
:10F7700088888880F4BF2E80806A409580AA805D4A
:10F7800000C0F08008888800FC631F80F8F87F0FB5
:10F7900080F87E1F808C7E1080FC3E1F80FC3F1F07
:10F7A00080F8421080FC7F1F80FC7E1F8090B02A72
:10F7B00022F0F088A8F84E0200FD6F0F80FC7F1841
:10F7C00080F47D1F00FC210F80F4631F00FC3F0FBD
:10F7D00080FC3F0800FC2F1F808C7F1880F9084FA9
:10F7E0008078852F808DB1688084210F80FD6B5AD1
:10F7F00080FC631880FC631F80FC7F0800FC633F73
:10F8000080FC7F2900FC3E1F80F90842008C631FAA
:10F81000808C62A200AD6B5F808A88A8808C544285
:10F8200000F87F0F80EAC082082080D5C054F8809D
:10F83000F1FF8F99F0F88F1F99F0FF8F6BA4F99F5C
:10F84000108F9990F055C08AF990F8FD6310F999DE
:10F85000F99FF99F80F99F20F888471F27C8420029
:10F86000999F99978C6BF09669999F102E8F2B22F8
:10F87000F889A80FE0000000CEFA3F02D6F73F0259
:10F8800020007E00070000000000000000000000D3
:10F89000E3C93F02D9C93F02CFC93F02C5C93F02F0
:10F8A000B9C93F02ADC93F0219DF3F0221DF3F0264
:10F8B000A1C93F0299C93F028FC93F0285C93F02D2
:10F8C00051DF3F02000000000000000001CA3F02BB
:10F8D0004BCA3F0223CA3F0203CA3F022BCA3F0260
:10F8E00033CA3F023BCA3F0243CA3F020000000046
:10F8F00000000000CFCA3F02BFCA3F02C1CA3F0298
:10F9000025640025750075253034780062617564C2
:10F910000053657269616C0053657269616C3100F6
:10F920004A534F4E53747265616D4C6F6748616EF8
:10F93000646C657200617070002530313075200094
:10F940005D20002C200028293A2000205B00636FF6
:10F950006465203D200025690064657461696C73ED
:10F96000203D20000D0A006D0066006C6E00666E82
:10F9700000636F64650064657461696C0000000079
:10F9800000000000000000007DCF3F02A3CF3F0237
:10F9900061CF3F02DFCB3F0200000000000000000B
:10F9A00031D43F0249D43F0285DB3F022DDD3F02C7
:10F9B00000000000000000005DD43F0271D43F024F
:10F9C00065DD3F0269CF3F0200000000000000003B
:10F9D0007BCF3F02B1CF3F02E9DA3F026BCF3F025C
:10F9E000000000000000000079CF3F02BFCF3F02BF
:10F9F00099D33F02E1CF3F02000000000000000069
:10FA0000D9DE3F02E3DE3F02EDDE3F02F7DE3F02DA
:10FA100001DF3F020DDF3F0219DF3F0221DF3F021E
:10FA200029DF3F0235DF3F023DDF3F0247DF3F0274
:10FA300051DF3F02000810182028303825592D25A5
:10FA40006D2D25645425483A254D3A2553257A00D5
:10FA500061736374696D65000000000000000000C0
:10FA6000DDE33F0249E43F0221E43F023DE03F0283
:10FA7000F1E33F020DE43F02FFE33F021BE43F02DC
:10FA8000DFE33F02E3E33F0200000000000000006C
:10FA9000A1E43F0209E53F02DFE43F023DE03F020F
:10FAA000D1E43F02A3E43F02B3E43F0203E53F0297
:10FAB000C3E43F029BE43F0200000000000000009E
:10FAC00007E63F02FDE53F02F3E53F02A9E53F02FD
:10FAD000E7E53F02DBE53F0219DF3F0221DF3F029E
