:02000004085F93
:1090000000905F08FCFF5F080000060020000501DB
:0890100004012215000000001C
:109018001348144908B5884205D0134A824202D041
:10902800124B121A98471248124A0021124B121A70
:10903800984712481249884205D0124A824202D003
:109048000A4B121A984710481049884205D0104A0E
:10905800824202D0054B121A9847014808BD00BF4A
:10906800E0A5071028F95F0868A607102D0D111054
:1090780068A60710E8AF0710A10E111070973F02FD
:10908800A8905F0878973F0278973F02B0905F08F2
:0C909800F0FF3F0219905F08000000008C
:0890A8009C905F0820ED3F02DF
:1090B00010F8012B11F8013B012A28BF9A42F7D082
:1090C000D01A7047034613F8012B002AFBD1181A57
:1090D0000138704770B504F045FF0025054E064C79
:1090E000A41BA408AC4200D170BD56F8043B9847BD
:1090F0000135F7E7CCFF3F02F0FF3F0200F046B931
:1091000008B500F0ADF9BDE8084004F0E3BE02F098
:1091100063BC02F061BC02F06DBC00000C2008B51D
:10912000024A034902F0D0FAFEE700BF35B83F0219
:1091300030ED3F020078B0FA80F04009704701231B
:10914000037070477047436913B183690C30184747
:10915000704713B500210446084601F06DFF002357
:10916000204601A9019301F091FF019C0CB101235C
:1091700023710021012001F05FFF2CB123682046FC
:109180009B6898470023237102B010BD012A02D1C9
:10919000016000207047022A04BF0B680360F8E7F3
:1091A0000368184707B5806830B10023CDE9001384
:1091B0001A46022101F078FF03B05DF804FB0000BD
:1091C00010B5134B134C188804F066FF124B206047
:1091D000188804F061FF114B114A12492468186085
:1091E000136841F8234003F150040133502B41F838
:1091F000240013600BD101210B4B0C481970002384
:1092000013606FF00041BDE81040FFF7CBBF10BD09
:10921000F0A5071048AE0710E4A5071074AA0710C0
:1092200048AD07109CAA07105CAD07102CAD0710C5
:1092300010B50446094B036003F030FC214603F0EF
:1092400067FE04F0B7FD04F0A9FD2046044B40F88A
:10925000043B03F0F9FC204610BD00BFD8ED3F02EF
:10926000C0ED3F0210B50446FFF7E2FF204624217F
:10927000FFF751FF204610BD10B58368044613B1B7
:10928000032201469847204610BD000038B50F4B19
:109290000446036083689BB16FF00041FFF782FFD3
:1092A0000021A06801F046FF237903F0FF0513B108
:1092B00001F0B4FEF8E72946A06801F0D9FEA560E8
:1092C00004F10C00FFF7D8FF204638BDACED3F029B
:1092D00010B50446FFF7DAFF20461C21FFF71BFFFD
:1092E000204610BD0EB44FF0200C002300B58CB00A
:1092F0000DAA52F8041BCDE904C3CDE90012039274
:10930000016804AA1E2002F0EDF90CB05DF804EB30
:1093100003B0704710B504F0EDFE2F2102F092FF6C
:1093200004F0E8FE036800219B68984704F0E2FE21
:109330000368D4219B68984704F0DCFE02F089FFA3
:10934000052002F0C7FB04F0D5FE01222F2102F018
:1093500072FF04F0CFFE03685B699847044604F08F
:10936000C9FE02F076FFE2B2D42A04D104490548CE
:10937000FFF7B8FF10BD04490248FFF7B3FFF9E754
:1093800045ED3F0270AE07105EED3F0208B50D4B94
:109390000121188804F056FE04F00CFD4FF416511C
:1093A00004F0F8FC08490948FFF79CFF02F034FA82
:1093B000074800F06FFA052002F08CFBBDE808407A
:1093C000FFF7A8BFECA5071071ED3F0270AE0710C4
:1093D00060AD071030B5204B85B01B7802681F497F
:1093E0008DF8003002A83C2302F000FD0020029C12
:1093F00002F0CCF9651C28B12B78DBB213B902F06E
:10940000FDF9F9E7D5E88F3FDBB2ABB90025039C46
:109410007CB16368013B63605BB9236820469B684D
:109420009847A368013BA3601BB923682046DB680B
:109430009847284605B030BD002002F0A7F928B1B2
:109440002B78DBB213B902F0D9F9F9E72378DBB254
:10945000012BDBD1257BDAE76CA6071087ED3F02F5
:10946000F0B5424D8FB0D5E88F3F13F0010F404C5F
:1094700009D12846FFF75EFE28B101F085FE206085
:109480002846FFF75CFE3B4D3B4E0021288804F048
:10949000EAFD33784BB144F61F6701F075FE23688F
:1094A000C01AB842F9D90023337001F06DFE236869
:1094B000C01A41F28833984212D9304E002130460A
:1094C000FFF770FEB06840B100236FF0004219460C
:1094D000CDE900231A4601F0E7FD01F055FE2060BA
:1094E000274E3378002B3ED02888012104F0BBFDA5
:1094F000244B4FF480621846002104F01CFF002426
:1095000040F2FF33204ACDE90C34204D8DF828403D
:1095100009920B9009A803F07FF855F8041B09A8DD
:1095200003F092F8D5F83C1109A803F08DF8013446
:1095300009A803F052F8502CECD112491448FFF757
:10954000D1FE104905A804F0FFFA05A8FFF742FF75
:10955000039005A804F0ADFA039A0E490C48FFF7F2
:10956000C1FE002333700FB0F0BD00BF68A6071026
:1095700070A60710ECA50710E8A507102CAD071082
:109580005CAD071074A6071060FC3F029CAA071090
:1095900070AE071098ED3F0270B51426D0E9005365
:1095A000044606FB0356AE4204D0284604F081FA76
:1095B0001435F8E7206802F01DFA204670BD884295
:1095C000F8B504460D46164616D9904215D2A2F1BA
:1095D0001406751AA1F114072C44B7421CD02CB103
:1095E0003146204604F0E2FA337C2374304604F01E
:1095F00060FA143E143CF0E70ED0B5420CD02CB10A
:109600002946204604F0D2FA2B7C2374284604F025
:1096100050FA14351434F0E7F8BD00232DE9F04179
:10962000C0E9003383604F6804469F420E4624DD44
:109630004FF0140808FB07F002F0CEF90546E0B140
:10964000D4E9001208FB0212FFF7B9FF206802F00C
:10965000D1F92560A760D6E9007308FB0378B84507
:1096600009D03946284604F0BBFA3B7C143505F88E
:10967000043C1437F3E7736863602046BDE8F0816B
:109680002DE9F0474FF0010800253C4B90B083F8DE
:1096900000800021404602F06BF8CDE903550595A6
:1096A00004F088FB364F8146BA4609AE03A906A8E6
:1096B000FFF7B3FF06A93046FFF7AFFF314B0CAC05
:1096C0004AF8043B31462046FFF7A7FF22461E21F9
:1096D000504603F0FFFC2046FFF75EFF3046FFF7E1
:1096E0005BFF294B06A83B60C7F82090FFF754FFAB
:1096F000264B3B6004F05EFB4FF4165104F04AFB2E
:1097000003F0CCF9394603F0BDFB03A8FFF744FF93
:109710001F49204804F018FA1D491F4804F014FAA4
:109720001E4800F061F81E4B1E4A0C9394E803009B
:109730001D4B86E803001A6003F10C0292E8030057
:1097400084E8030096E8030082E80300174A1D71CD
:109750005A619A699D600F92154A41469A6103F1D8
:109760000800144ACDE900550E9501F073FC20461F
:10977000FFF782FD10B0BDE8F08700BF6CA60710B0
:1097800078AA0710C0ED3F0204FD3F02D8ED3F026A
:10979000CAFC3F021CAD07104CAD071060AD0710AE
:1097A00089983F02ACED3F022CAD071055983F025F
:1097B00069983F021B983F020EB44FF0200C002323
:1097C00000B58CB00DAA52F8041BCDE904C3CDE955
:1097D00000120392016804AA322001F083FF0CB04A
:1097E0005DF804EB03B070471FB5044604F082FC3B
:1097F000154A16490346CDE901214FF0FF324021B9
:1098000000922046802201F0B5FA002310491A4642
:1098100004F1580000F064F81C2300220D4904F103
:109820007C0000F05DF8382300220B4904F1A00011
:1098300000F056F854230022084904F1C40000F057
:109840004FF8204604B010BD801A0600A086010023
:10985000E6EE3F029EEE3F0256EE3F020EEE3F0264
:1098600010B504460146583000F04CF8214604F18A
:109870007C0000F047F8214604F1A00000F042F817
:1098800004F1C400214600F03DF82046BDE8104038
:1098900001F0F6BA10B501223C21044601F07EFA2F
:1098A00050B90B490B48FFF787FF0B4C01F06CFCDC
:1098B000206001F0A3FFF9E708490648FFF712FD11
:1098C000204601F0B1F92046BDE81040FFF7C8BFBF
:1098D000E8ED3F0270AE0710F0AE071003EE3F0256
:1098E000C0E900128360402218232221C0E903232B
:1098F0001B23C0E905131123C361012310B580F8B0
:10990000203010BDF0B50D4604463D49284685B0CF
:1099100001F057F80221284601F04DF8D4E902235E
:1099200094F8206061682069002E30D14FF0010C5E
:109930000327023000B2CDE9017C00901BB228461B
:1099400012B209B200F091FDA2686168B4F910305A
:1099500001320131CDE90136009312B2236809B218
:10996000284600F0E6FDE269A36861691344626875
:109970006B820A4423492A826E61284603F0ABFFBA
:1099800028462B681B6D05B0BDE8F040184703273B
:109990000026CDE901760126013000B200901BB20D
:1099A000284612B209B200F060FD2369284602334E
:1099B0001BB2B4F90820B4F904100093CDE9017684
:1099C000B4F90C3000F0B8FCA2686168B4F910304A
:1099D00032443144CDE90136009312B2236809B212
:1099E000284600F0A6FDE269A368A16913446268F5
:1099F0006B824FF001130A442A8203496B61BCE772
:109A000040F33F022EEF3F0231EF3F02426000225F
:109A1000027220220170C260704710B5037A0446BA
:109A200053B12178606802F009FC606802F011FC13
:109A3000B0FA80F0400910BD012100F003F80028C1
:109A4000EFD1F8E738B5044640680D4602F0C4FB94
:109A50000120207225B12046BDE83840FFF7DDBF68
:109A600038BD2DE9F8431F46DDE90896C368154661
:109A700032449A420446884602D90020BDE8F88361
:109A80000178406802F0DAFB7EB960682A46036814
:109A90004146DB6898478542EFD13946606802F05D
:109AA000D4FBB0FA80F04009E8E7B9F1000FECD040
:109AB0006068324603684946DB6898478642DCD1D5
:109AC000E3E708B5406802F083FB012008BD10B54C
:109AD0000446406810B103689B689847204610BD53
:109AE00038B5044690F90E00411C09D0012180B21E
:109AF00004F0A8FA94F90E00012180B204F0B3FA40
:109B0000256835B1284603F025FF012084F834008C
:109B100038BD94F90F00012180B204F093FA637B01
:109B200094F90F00012B94BF2946012180B204F063
:109B30009AFA94F91000421C09D0012180B204F075
:109B400081FA94F91000012180B204F08CFA94F9A2
:109B50001100431CD9D0002180B204F073FAD4E77D
:109B60002DE9F04F044600680D4685B040B1002352
:109B7000009313460A4603F089FF05B0BDE8F08F55
:109B8000237BA068002B0CBF4FF0010B4FF0800B24
:109B90000B78444F1BEA030FB7FBF0F70CBF4FF0F5
:109BA00001094FF000098B18FFB20393039BAB42EE
:109BB000E3D05E464FF0000895F800A017B1384694
:109BC00001F0D4FA637B13F0FD0F41D194F910300A
:109BD0005A1C0FD01AEA060114BF012300234B457B
:109BE00008D06369606A1A6800292CD04FF0010917
:109BF00002431A60A169E36A0A6813430B6017B154
:109C0000384601F0B3FA94F91130013306D0E36914
:109C10001A68A36A1A4218BF46EA0808A169E36AEB
:109C20000A6822EA03030B6094F91130013318BF6C
:109C300085F80080237B002B32D17600F6B2002E0F
:109C4000BCD10135B2E722EA000289461A60D1E7A9
:109C5000A169E36A0A6813430B6017B1384601F043
:109C600085FA94F91030013308D06369616A1A6883
:109C70001AEA060F14BF0A438A431A60A169E36A0D
:109C80000A6822EA03030B6094F911300133CBD048
:109C9000E3691A68A36A1A4218BF46EA0808C3E7CC
:109CA0007608CCE720A1070007B501228DF8071040
:109CB0000DF10701FFF754FF9DF8070003B05DF8B1
:109CC00004FB03681BB14168184603F071BE70477E
:109CD000006808B103F052BE704790F90E00431CB3
:109CE00003D0C9B280B204F0BEB9704710B50446C3
:109CF000FFF7E7FF2046BDE810400021FFF7EDBF6A
:109D000010B504460121FFF7E8FF2046BDE81040EA
:109D1000FFF7DEBF2DE9F0411C4606460D4617460B
:109D2000FFF7E4FF069B04EB0308444508D12F44EA
:109D3000BD420BD0304615F8011BFFF7B5FFF7E722
:109D4000304614F8011BFFF7AFFFEEE73046FFF790
:109D5000D7FF0120BDE8F0812DE9F04F1F4685B007
:109D6000BDF93880A7EB010AA8EB0209B9F1000F91
:109D7000B8BFC9F10009BAF1000FB8BFCAF1000AB3
:109D8000D14583460C461546BDF83C3004DD3A46C5
:109D90002C4647460D469046BC4205DD2A464546C0
:109DA000904622463C4617463E1BB2B20092A8EBB4
:109DB000050282EAE271A1EBE271C6F3C03202FA57
:109DC00086F64545B4BF01224FF0FF32019176106F
:109DD0000292BC421CDCDBF80020D145D2F818808E
:109DE000C7BF294622462A46214603935846C04704
:109DF000019A039BB61AB1B236B2002E05DA029A66
:109E00001544009A2DB2561836B2013424B2E0E758
:109E100005B0BDE8F08F704710B404682469A4460B
:109E20005DF8044B604730B4BDF8085004680295F3
:109E3000A46BA44630BC604730B4BDF80850046839
:109E40000295E46BA44630BC604770B4BDF90C5079
:109E5000BDF810600468CDE90356246CA44670BCBC
:109E600060472DE9F3411C46164605460F46036838
:109E7000013CBDF820805B693444984724B22B68CC
:109E8000CDF80480009428469C6A32463B46394609
:109E9000A04728462B68DB6A02B0BDE8F0411847AE
:109EA0002DE9F341174604461D460E460368BDF8EA
:109EB00020805B699847CDE9007822686B1E3344A7
:109EC0002046956A31463A461BB2A8472046236889
:109ED000DB6A02B0BDE8F04118472DE9F3471E46A2
:109EE00003680C465B6905461746BDF92890BDF826
:109EF0002C8098472644B4422B680BDACDF80080BA
:109F00002146D3F820A03A464B4628460134D04794
:109F100024B2F0E72846DB6A02B0BDE8F0471847F4
:109F200013B50191B0F90E1002680091146C002273
:109F3000B0F90C301146A04702B010BD2DE9F7432F
:109F40009942164680460D461C46BDF92870BDF85C
:109F50002C90026812D1BE42C2BF33463E461F4615
:109F6000CDF828907B1C946B9B1B324629464046BB
:109F7000A4461BB203B0BDE8F0436047BE420AD11D
:109F80009942C2BF0B4625461C46CDF82890631C5B
:109F90005B1BD46BE9E753699847CDE90079D8F8A2
:109FA000003040469F6A324623462946B84740461D
:109FB000D8F80030DB6A03B0BDE8F04318472DE95C
:109FC000F34704460F4616461D460368BDF82C802D
:109FD0005B69BDF9289098472368CDF80080324628
:109FE00039462046D3F824A02B46D047236809F1F0
:109FF000FF32CDF80080324439462046D3F824A001
:10A0000012B22B46D0472368CDF80080324639463D
:10A010002046D3F820A04B46D0476B1ED9192368A1
:10A02000CDF8008020461D6A32464B4609B2A8474B
:10A0300020462368DB6A02B0BDE8F0471847704746
:10A0400001F00303B0F90A208376B0F90830C9079C
:10A0500059BF8381C2818281C381704730B501813C
:10A06000002481814FF0FF31054D4281C281054AB4
:10A070004460C0E90512056004610477046230BDE4
:10A0800058F83F02010100012DE9F04F1C4687B04E
:10A090000092A2B2C2F10106C2EBC232520012B269
:10A0A0000392002280469DF8403002920193019A6B
:10A0B000BDF8443002F0040236B204928FB2029A24
:10A0C000A24280F29980002E08DB039A013C023202
:10A0D00011B216FA82F624B2039136B2029A013214
:10A0E00095B212B2029206EB4506049A013636B2D8
:10A0F000F2B1009AD8F800001FFA84FA1AFA82F234
:10A100007919D0F818B0BDF800904046059312B206
:10A1100009B2D847D8F8003009EB050207EB0A016D
:10A12000D3F818B04046059B12B209B2D847059B38
:10A13000019A90071DD5BDF80090D8F800001FFACD
:10A1400084FAA9EB0A027919D0F818B005934046B1
:10A1500012B209B2D847D8F80030A9EB050207EBD4
:10A160000A01D3F818B04046059B12B209B2D8478D
:10A17000059B019A11071ED5009AD8F800001FFA16
:10A1800084F915FA82F2A7EB0901D0F818B0BDF8EE
:10A1900000A04046059312B209B2D847D8F8003063
:10A1A00009EB0A02791BD3F818B04046059B12B29E
:10A1B00009B2D847059B019AD20780D5BDF8009017
:10A1C000D8F800001FFA84FAA9EB0502A7EB0A01F0
:10A1D000D0F818B00593404612B209B2D847791B9F
:10A1E000D8F80050A9EB0A02059B4046AD6912B2AF
:10A1F00009B2A847059B62E707B0BDE8F08F2DE9DB
:10A20000F04F1C468BB0BDF8583083460493A3B280
:10A21000C3F10105C3EBC3335B001BB20793BDF968
:10A220005430884601339BB2059393B20693059B45
:10A230009DF8501003930023029301F0010308934B
:10A24000DDF818A001F002032DB20993029BA3428E
:10A250006FDA002D6BDB079B661E02331AB215FA0C
:10A2600083F536B207922DB2029F01371FFA87F9A4
:10A270003BB205EB490501359E4202932DB229DB25
:10A28000089B93B1049806990090DBF80000059BA9
:10A29000006AB2B203EB42038A1A09EB08010746CF
:10A2A0001BB2584612B209B2B847099B93B1049841
:10A2B0000699059BB2B20090DBF8000003EB420365
:10A2C0008A1AA8EB09011BB2D0F8209012B25846A6
:10A2D00009B2C847B44220D0089B73B1049ADBF896
:10A2E0000030009208EB0401D3F820905846BDF9E5
:10A2F0000C300FFA8AF209B2C847099B6BB1049A75
:10A30000DBF80030A8EB040100921C6A5846BDF946
:10A310000C300FFA8AF209B2A0470AF1FF331FFA94
:10A3200083FA039B344602339BB203938EE726469F
:10A330009AE70BB0BDE8F08F2DE9F04F89B0BDF979
:10A3400048908B4699454D46A8BF1D46BDF94C1017
:10A3500005EBD5756E108E42A8BF0E460446016807
:10A36000059202934969BDF8507088471FFA8BF334
:10A370000493029B1FFA86FA9BB202934FEA4A03A8
:10A380009BB203932168DDE902321AFA8BF89B1A1B
:10A390000FFA88F81BB2009720464D6A059A41468D
:10A3A0000793A847059A216895B26A1E1FFA89F398
:10A3B00012FA89F20593009793B22046D1F82490BF
:10A3C00006934146079B12B2C8470399059B0AEBC7
:10A3D00005025B1A216812B21BB2009720460D6A73
:10A3E000059359460392A847049B2068591E029B77
:10A3F000039A19440097056A059B20461FFA81F9C4
:10A40000029209B2A847012341462046029A0093CE
:10A4100001973346FFF738FE0223A9EB0A012046D5
:10A42000029A09B20093019733460391FFF72CFE7D
:10A43000069B2046A3EB0A020423039912B2009361
:10A44000019733460292FFF71FFE08232046009330
:10A4500041463346029A0197FFF716FE20462368CD
:10A46000DB6A09B0BDE8F04F18472DE9F04F2DED3C
:10A47000028B994687B0BDF948500F464D452B4693
:10A48000A8BF4B46BDF94C1003EBD3735C108C4254
:10A49000A8BF0C46036806461FFA84F85B6993461A
:10A4A000BDF850A09847BBB218FA87F705933BB2A6
:10A4B00008EE103ACDE9005A31681FFA89F34FEAE5
:10A4C0004809CA691FFA89F90493A3EB09031746DF
:10A4D00018EE101A5A4630461BB2B847059B013D8C
:10A4E000591E049BA5EB0905194401232DB208EB65
:10A4F0000B02A1EB0801304612B20093CDE9015ADC
:10A50000234609B20492FFF77AFE022330460093F5
:10A5100018EE101A2346CDE9015A049AFFF76FFE90
:10A5200030463368DB6A07B0BDEC028BBDE8F04F04
:10A5300018472DE9F04F0026354689B0CDE90212C3
:10A5400004930268BDF94C30BDF948805269059307
:10A550000446BDF850A0904718F1070248BF08F123
:10A560000E024FEAE20B0196039B019ABDF904101B
:10A570009A18059B12B28B4227DD4FF00009049B0D
:10A58000334406930FFA89F080451FFA89F117DDED
:10A590004F0705BF069BC0106D001D5C18BFEDB2D4
:10A5A0002B060AD5029B20681944836907921F462F
:10A5B0002046534609B2B847079A09F10109E1E775
:10A5C000019B5E4401330193CEE720462368DB6A9A
:10A5D00009B0BDE8F04F18472DE9F04F2DED028B83
:10A5E00091B016461F46026ABDF870308346BDF82A
:10A5F00074809DF878509DF87C4003910493002A64
:10A6000040F0C580B0F90C308B4240F34C81B0F97A
:10A610000E30B34240F34781062313FB0513002B92
:10A6200040F3418106EBC403002B40F33C81037FE0
:10A630001BB9AF2F84BF0137FFB2DBF8003058469B
:10A640005B6998470522099200220592984A07EB18
:10A650008703D3180C93B3B20693059A0C9B02FBA5
:10A6600005F99B5C0793ABB20B93BDF80C300893D4
:10A67000039B19FA83F90FFA89F308EE103A0823BD
:10A680004FF000090A93039B02EB030A0FFA8AFAC0
:10A69000079ADBF80030D20752D5012D1FFA89F254
:10A6A0003ED1012C3CD19B6906991F46049B0A446C
:10A6B0005146584612B2B84709F101034FFA83F9DF
:10A6C000079B5B0807930A9B013B13F0FF030A9368
:10A6D000DED1059F01377BB20593099B013B13F047
:10A6E000FF030993B9D1049B43450FD0012DDBF83B
:10A6F00000303BD1012C39D10899CDF800800531CB
:10A700001C6A32460823584609B2A0475846DBF86F
:10A710000030DB6A11B0BDEC028BBDE8F04F18478A
:10A7200014FB02F206990A44049901910094DB6932
:10A7300018EE101A1F4658462B4612B2B847BBE710
:10A74000049A4245B8D0012D1FFA89F207D1012C95
:10A7500005D19B6906991F460A444346A8E714FBA6
:10A7600002F20699CDF804800A44DFE70B9AE40070
:10A7700002EB8201089ACDF804800A441146009445
:10A78000DC6932462B46584609B2A047BEE7137A29
:10A790005168FF1A1268FFB20B9231F8372001EBB3
:10A7A000C70306929A78012D0992DA7893F906A0E8
:10A7B0000C9293F905200A9201D8012C57D9BDF9C2
:10A7C000283008930FFA8AF307934FF00008C14628
:10A7D0004746DBF8003058465B699847B3B20E93A2
:10A7E0001AFA86F30F930C9B9F428FD2079B0E9A07
:10A7F0003B4403FB042300221BB208EE103A4346FD
:10A8000005920F9A02EB070A0FFA8AFA099A05993C
:10A81000914241D25A1CD2B25B070D9207D1069BDE
:10A8200006990B9A01339BB212F80190069319F026
:10A83000800F12D0012DDBF80030BDF80C101AD1BA
:10A84000012C18D10A9A9B691144059A1E4611449D
:10A8500058465246049B09B2B047059E4FEA490943
:10A860000136F3B205935FFA89F90D9BCEE7002319
:10A87000CDE90733A9E70598089A024402FB0511C0
:10A88000049A5846CDE90042DB6918EE102A1E46AC
:10A8900009B22B46B047E0E7099B013798445FFABD
:10A8A00088F8FFB29FE711B0BDEC028BBDE8F08FD6
:10A8B00050F33F02F0B5026A04460B4685B0002A09
:10A8C00034D10A2908D1438A0282427E03EBC203B3
:10A8D0006382012005B0F0BD0D29FAD0E17E007E33
:10A8E000657E71B10621B4F9106011FB0061B4F905
:10A8F0000C60B142C1BFB4F91210228201EBC50253
:10A900006282E28ACDE902050192A28A2046009283
:10A91000B4F91010B4F91220FFF75EFE237E228AEC
:10A9200003EB430302EB43032382D2E70A2907D157
:10A9300000230382417E127B438A01FB0233C7E777
:10A940000D29C6D0157AA942C3D3917A9942C0D3B2
:10A9500051685D1BEDB201EBC505A87828B3E97815
:10A9600019B3E17E267E677E91B195F90510084402
:10A97000B4F9101006FB0011B4F90C00814207DD98
:10A9800000202082B4F91210127B02FB07126282AF
:10A99000E28A20460192A28ACDE902670092B4F9C8
:10A9A0001010B4F91220FFF717FE2979227E238AAE
:10A9B00001FB0233B8E7012938BF01210176417656
:10A9C0007047036A29B113B9438A0633438201628F
:10A9D0007047002BFBD0438A063BF7E70029F0B510
:10A9E00066DBB0F90C408C4262DD002A60DBB0F916
:10A9F0000E4094425CDD847E022C5AD0032C61D040
:10AA0000012C04D1D243048914440A4621B2B0F97E
:10AA100038408C42A8BF0C460487B0F93A409442B3
:10AA2000A8BF14464487B0F93C408C42B8BF0C46DE
:10AA30008487B0F93E409442B8BF1446C48790F86A
:10AA40004C40012C16D1012B42D0022B51D08BB996
:10AA50001446002A0589B8BFD41DE41014FB051460
:10AA60000125476B02F0070605FA06F63D5D25EA6B
:10AA700006053D5590F84C40042C19D1048914FB6F
:10AA800002F202EBD27401EBD17242F34F0202EBFD
:10AA90006402446BC907A05C4BBF03F00F0300F0D6
:10AAA0000F0020F00F0040EA031348BF0343A354F4
:10AAB000F0BDD2430489013C611A448909B22244A1
:10AAC00012B2A4E74489013C641A114622B29EE7FF
:10AAD0001446002A0589B8BFD41DE41014FB0514E0
:10AAE0000125466B02F00707BD40375D3D433555F4
:10AAF000C0E71446002A0589B8BFD41DE41014FB32
:10AB000005140125466B02F00707BD40375D7D4007
:10AB1000EDE7000038B50D46114604461AB209B2F9
:10AB2000FFF79CFA0B4B069A23600023E262079A18
:10AB3000C4E90933C4E90C234FF0FF33C4E91033EF
:10AB40009DF914302046A364049B84F84C5023657F
:10AB500038BD00BFB0F83F0238B50C4B0446036067
:10AB6000406B18B100F046FF00236363656A35B19E
:10AB70002846FEF7ACFF38212846FEF7CCFAA06A3B
:10AB800010B11021FEF7C7FA204638BDB0F83F02D9
:10AB900030B5856A87B004468DF80F107DB100236B
:10ABA000CAB2CDE900338DF814308DF81520012399
:10ABB0000222284605A9FEF754FF07B030BD2946FA
:10ABC000B0F8400003F04FFA2B460122606A00956E
:10ABD0000DF10F01FFF79EF8EFE7002914BFA72141
:10ABE000A621FFF7D5BFF0B5856A04460E46174685
:10ABF00085B065B100238DF80F3001230DF10F00F2
:10AC0000009001932846FEF72CFF05B0F0BD2946C1
:10AC1000B0F8400003F027FA2B463A463146606A06
:10AC20000095FFF777F8F0E710B5038990F84C200E
:10AC3000B0F90A1012FB03F2CB1D48BF01F10E035D
:10AC4000DB1004465A430021406B03F074FB0023E1
:10AC5000A3632389013BA3876389013BE38710BD7D
:10AC600070B5436B04460E4615460BB3002D33D129
:10AC7000236D002B50D01020FEF749FA054618B17D
:10AC80003146226DFEF7C2FEA5621DB301212846A2
:10AC9000FEF7D8FEF0B12046FFF7C6FF0023A363FE
:10ACA00023890120013BA3876389013BE38712E0ED
:10ACB000238990F84C00B4F90A2010FB03F0D31D4F
:10ACC00048BF02F10E03DB10584300F085FE6063BD
:10ACD0000028CBD1002070BDA06C0028C8DB01216A
:10ACE00080B203F0AFF90121B4F8480003F0BBF9DA
:10ACF0000A2000F0EFFE0021B4F8480003F0B3F999
:10AD00000A2000F0E7FEB4F84800012103F0ABF997
:10AD10000A2000F0DFFEABE7606A0028DAD0FEF719
:10AD2000DFFE0028D6D00121B4F8400003F08AF9F4
:10AD3000B1E7812307B502228DF8051001A98DF82E
:10AD40000430FFF750FF03B05DF804FB10B5044674
:10AD5000024B036000F058F9204610BDECFA3F02A8
:10AD600010B50446FFF7F2FF20465821FEF7D3F94D
:10AD7000204610BD30B5044685B00A9D0295099D58
:10AD800001959DF92050009500F024F92046024BD2
:10AD9000236005B030BD00BFECFA3F0230B5044679
:10ADA00085B0FFF75DFF2F212046FFF7C2FFA268A5
:10ADB0002F4B9A4221D12368012120461B6B9847D3
:10ADC00001252023CDE901357323B4F90820B4F916
:10ADD0000A10203A733902EBD27201EBD17120468E
:10ADE000009341F34F01234B42F34F02FFF7A1FBC6
:10ADF0002368002120461B6B9847A368B3F1801F8E
:10AE000017D120230120CDE901307323B4F90820A4
:10AE1000B4F90A10203A733902EBD27201EBD17106
:10AE200000932046134B42F34F0241F34F01FFF7CB
:10AE300080FB162220461049FFF7D5FE054618B9BB
:10AE40000025284605B030BDA368B3F1801F07D0A8
:10AE5000642000F03FFEAF212046FFF799FEF0E7A7
:10AE6000042220460549FFF7BEFE0028F0D1E7E79F
:10AE70004000800004F93F0244FB3F0240FB3F02D8
:10AE80002DE9F04F89B0044600F0C8F840238DF852
:10AE90001B30B4F90A30B4F93A5094F808A0DA1D1E
:10AEA00094F8388048BF03F10E02002DB8BF073573
:10AEB000D04528BFD046C2F3C7030393C5F3C705E7
:10AEC000B4F93C3005FB0A8B23EAE3730AF1010273
:10AED00052FA83F30493039B9D4271D2049B26890B
:10AEE00094F854209E1B4244676BA36A4FEA221CCD
:10AEF000A6EB0806A5F150015F44F6B2C9B20CF109
:10AF0000100C02F00F02002B3AD0D8688DF81D10FB
:10AF100001381FFA80F94FF00000E16A8DF81C003B
:10AF200018468DF81EC08DF81F20FEF7CAFD0023BD
:10AF30000422CDE90033A06A012307A9FEF791FDA1
:10AF40005FFA89F9A06AA6B10123B1454A4628BF34
:10AF5000324601930DF11B033946009301230592FC
:10AF6000FEF77FFD059AB61A1744F6B200F056F8C0
:10AF7000E8E7216BFEF7A5FD0135EDB2D344AAE762
:10AF8000B4F840008DF81C1019468DF81DC08DF8DE
:10AF90001E20059303F067F8059B0322009307A981
:10AFA000606AFEF7B7FEB4F84000012103F05BF8D9
:10AFB000059B32463946606A0093FEF7ABFEDBE73D
:10AFC0004FF004224FF0FF33C4E90E2309B0BDE86F
:10AFD000F08F000030B5044685B00A9D0395099DA9
:10AFE00002959DF92050CDE9003513460A4601210E
:10AFF000FFF790FD034B20462360002384F8543074
:10B0000005B030BD64FB3F0210B50446024B03603F
:10B01000FFF7A2FD204610BD64FB3F0209B50448BE
:10B020000068044B03441B68DB68029309BD000001
:10B03000E0A507103000000009B504480068044B83
:10B0400003441B68DB69029309BD0000E0A50710FB
:10B050003000000009B504480068044B03441B6835
:10B060001B6A029309BD0000E0A507103000000034
:10B0700009B504480068044B03441B685B6A0293EB
:10B0800009BD0000E0A507103000000009B5044824
:10B090000068044B03441B689B6A029309BD0000CF
:10B0A000E0A507103000000009B504480068044B13
:10B0B00003441B68DB6A029309BD0000E0A507108A
:10B0C0003000000009B504480068044B03441B68C5
:10B0D0005B6C029309BD0000E0A507103000000082
:10B0E00009B504480068044B03441B689B6C029339
:10B0F00009BD0000E0A507103000000009B50448B4
:10B100000068044B03441B68DB6C029309BD00001C
:10B11000E0A507103000000009B504480068044BA2
:10B1200003441B685B6D029309BD0000E0A5071096
:10B130003000000009B504480068044B03441B6854
:10B140001B6F029309BD0000E0A50710300000004E
:10B1500009B504480068044B03441B685B6802930C
:10B1600009BD0000E0A507100000000009B5044873
:10B170000068044B03441B68DB68029309BD0000B0
:10B18000E0A507100000000009B504480068044B62
:10B1900003441B685B69029309BD0000E0A507102A
:10B1A0000000000009B504480068044B03441B6814
:10B1B0005B68029309BD0000E0A5071014000000C1
:10B1C00009B504480068044B03441B689B6802935C
:10B1D00009BD0000E0A507101400000009B50448EF
:10B1E0000068044B03441B68DB68029309BD000040
:10B1F000E0A507101400000009B504480068044BDE
:10B2000003441B681B69029309BD0000E0A50710F9
:10B210001400000009B504480068044B03441B688F
:10B220001B6B029309BD0000E0A50710140000008D
:10B2300009B504480068044B03441B681B6802936B
:10B2400009BD0000E0A507101000000009B5044882
:10B250000068044B03441B68DB68029309BD0000CF
:10B26000E0A507101000000009B504480068044B71
:10B2700003441B689B69029309BD0000E0A5071009
:10B280001000000009B504480068044B03441B6823
:10B29000DB69029309BD0000E0A507101000000063
:10B2A00009B504480068044B03441B681B6A0293F9
:10B2B00009BD0000E0A507101000000009B5044812
:10B2C0000068044B03441B685B6A029309BD0000DD
:10B2D000E0A507101000000009B504480068044B01
:10B2E00003441B689B6A029309BD0000E0A5071098
:10B2F0001000000009B504480068044B03441B68B3
:10B30000DB6A029309BD0000E0A5071010000000F1
:10B3100009B504480068044B03441B681B6B029387
:10B3200009BD0000E0A507101000000009B50448A1
:10B330000068044B03441B685B6B029309BD00006B
:10B34000E0A507101000000009B504480068044B90
:10B3500003441B681B6C029309BD0000E0A50710A5
:10B360001000000009B504480068044B03441B6842
:10B370001B6D029309BD0000E0A50710100000003E
:10B3800009B504480068044B03441B685B690293D9
:10B3900009BD0000E0A507104C00000009B50448F5
:10B3A0000068044B03441B689B68029309BD0000BE
:10B3B000E0A507105000000009B504480068044BE0
:10B3C00003441B68DB68029309BD0000E0A5071079
:10B3D0005000000009B504480068044B03441B6892
:10B3E0001B68029309BD0000E0A5071018000000CB
:10B3F00009B504480068044B03441B68DB690293E9
:10B4000009BD0000E0A507101800000009B50448B8
:10B410000068044B03441B681B6A029309BD0000CB
:10B42000E0A507101800000009B504480068044BA7
:10B4300003441B685B6A029309BD0000E0A5071086
:10B440001800000009B504480068044B03441B6859
:10B450009B6A029309BD0000E0A5071018000000D8
:10B4600009B504480068044B03441B689B6B0293B6
:10B4700009BD0000E0A507101800000009B5044848
:10B480000068044B03441B68DB6B029309BD00009A
:10B49000E0A507101800000009B504480068044B37
:10B4A00003441B681B6C029309BD0000E0A5071054
:10B4B0001800000009B504480068044B03441B68E9
:10B4C0005B6C029309BD0000E0A5071018000000A6
:10B4D00009B504480068044B03441B689B68029349
:10B4E00009BD0000E0A507102400000009B50448CC
:10B4F0000068044B03441B68DB68029309BD00002D
:10B50000E0A507102400000009B504480068044BBA
:10B5100003441B681B69029309BD0000E0A50710E6
:10B520002400000009B504480068044B03441B686C
:10B530005B69029309BD0000E0A50710240000002C
:10B5400009B504480068044B03441B689B690293D7
:10B5500009BD0000E0A507102400000009B504485B
:10B560000068044B03441B68DB69029309BD0000BB
:10B57000E0A507102400000009B504480068044B4A
:10B5800003441B681B6A029309BD0000E0A5071075
:10B590002400000009B504480068044B03441B68FC
:10B5A0009B6A029309BD0000E0A50710240000007B
:10B5B00009B504480068044B03441B68DB6A029326
:10B5C00009BD0000E0A507102400000009B50448EB
:10B5D0000068044B03441B681B6C029309BD000008
:10B5E000E0A507102400000009B504480068044BDA
:10B5F00003441B681B68029309BD0000E0A5071007
:10B600003400000009B504480068044B03441B687B
:10B610005B68029309BD0000E0A50710340000003C
:10B6200009B504480068044B03441B689B680293F7
:10B6300009BD0000E0A507103400000009B504486A
:10B640000068044B03441B681B69029309BD00009A
:10B65000E0A507103400000009B504480068044B59
:10B6600003441B685B69029309BD0000E0A5071055
:10B670003400000009B504480068044B03441B680B
:10B680009B69029309BD0000E0A50710340000008B
:10B6900009B504480068044B03441B68DB69029346
:10B6A00009BD0000E0A507103400000009B50448FA
:10B6B0000068044B03441B681B6A029309BD000029
:10B6C000E0A507103400000009B504480068044BE9
:10B6D00003441B685B6B029309BD0000E0A50710E3
:10B6E0004800000009B504480068044B03441B6887
:10B6F0005B6D029309BD0000E0A507104800000043
:10B7000009B504480068044B03441B68DB6E0293D0
:10B7100009BD0000E0A507104800000009B5044875
:10B720000068044B03441B681B6F029309BD0000B3
:10B73000E0A507104800000009B504480068044B64
:10B7400003441B685B68029309BD0000E0A5071075
:10B750000800000009B504480068044B03441B6856
:10B760005B69029309BD0000E0A507100800000016
:10B7700009B504480068044B03441B68DB6A029364
:10B7800009BD0000E0A507100800000009B5044845
:10B790000068044B03441B68DB6C029309BD000086
:10B7A000E0A507100800000009B504480068044B34
:10B7B00003441B685B6D029309BD0000E0A5071000
:10B7C0000800000009B504480068044B03441B68E6
:10B7D000D3F88830029309BDE0A5071008000000E7
:10B7E00009B504480068044B03441B68D3F894303F
:10B7F000029309BDE0A507100800000009B5044840
:10B800000068044B03441B689B68029309BD000059
:10B81000E0A507102C00000009B504480068044B9F
:10B8200003441B68DB68029309BD0000E0A5071014
:10B830002C00000009B504480068044B03441B6851
:10B840005B69029309BD0000E0A507102C00000011
:10B8500009B504480068044B03441B681B6A029343
:10B8600009BD0000E0A507102C00000009B5044840
:10B870000068044B03441B68DB6B029309BD0000A6
:10B88000E0A507102C00000009B504480068044B2F
:10B8900003441B685B68029309BD0000E0A5071024
:10B8A0002800000009B504480068044B03441B68E5
:10B8B0009B68029309BD0000E0A507102800000066
:10B8C00009B504480068044B03441B68DB68029315
:10B8D00009BD0000E0A507102800000009B50448D4
:10B8E0000068044B03441B681B69029309BD0000F8
:10B8F000E0A507102800000009B504480068044BC3
:10B9000003441B685B69029309BD0000E0A50710B2
:10B910002800000009B504480068044B03441B6874
:10B920009B69029309BD0000E0A5071028000000F4
:10B9300009B504480068044B03441B68DB690293A3
:10B9400009BD0000E0A507102800000009B5044863
:10B950000068044B03441B681B6A029309BD000086
:10B96000E0A507102800000009B504480068044B52
:10B9700003441B681B6B029309BD0000E0A5071080
:10B980002800000009B504480068044B03441B6804
:10B990005B6B029309BD0000E0A5071028000000C2
:10B9A00009B504480068044B03441B681B6C0293F0
:10B9B00009BD0000E0A507102800000009B50448F3
:10B9C0000068044B03441B685B6C029309BD0000D4
:10B9D000E0A507102800000009B504480068044BE2
:10B9E00003441B681B68029309BD0000E0A5071013
:10B9F0000400000009B504480068044B03441B68B8
:10BA00005B68029309BD0000E0A507100400000078
:10BA100009B504480068044B03441B689B68029303
:10BA200009BD0000E0A507100400000009B50448A6
:10BA30000068044B03441B685B6A029309BD000065
:10BA4000E0A507100400000009B504480068044B95
:10BA500003441B68DB6A029309BD0000E0A50710E0
:10BA60000400000009B504480068044B03441B6847
:10BA70001B6B029309BD0000E0A507100400000045
:10BA800009B504480068044B03441B68DB6B029350
:10BA900009BD0000E0A507100400000009B5044836
:10BAA0000068044B03441B681B6C029309BD000033
:10BAB000E0A507100400000009B504480068044B25
:10BAC00003441B685B6C029309BD0000E0A50710EE
:10BAD000040000000021FFF73DBE10B58368044656
:10BAE0000BB902F0EFFBC3689847A3681BB10322B0
:10BAF0002146204698472046BDE810401021FDF71A
:10BB00000ABB10B543680446013B436063B9036850
:10BB10009B689847A368013BA3602BB92368204624
:10BB2000BDE81040DB68184710BD70B50446D0E989
:10BB3000005305EB0316AE4204D0284601F0B9FFCE
:10BB40001035F8E72068FFF755FF204670BD10B5A7
:10BB50000446006808B1FFF7D4FF204610BD13B5B6
:10BB60006C460B460246D0E9000184E8030093E8E6
:10BB7000030082E8030094E8030083E8030002B0B6
:10BB800010BD0000002302480360FFF79BBA00BF0E
:10BB900058AE071070470020704710B504461021BA
:10BBA000FDF7B9FA204610BD08B5FFF7F6FF08BD4E
:10BBB000002230B54FF69C74026084808D888C80A2
:10BBC0000C68858004600A6030BD10B504460068CA
:10BBD000FFF710FF204610BD38B5C46814B32378B2
:10BBE000DBB2022B03D104F10C00FFF7EEFF231DA3
:10BBF0001D6835B12846FDF73FFB10212846FDF7AB
:10BC00008AFA04F108031D6835B12846FDF734FBB4
:10BC100010212846FDF77FFA2046BDE83840142160
:10BC2000FDF779BA38BD0B6803604B68436013B108
:10BC30005A6801325A60704737B5044668460D4667
:10BC4000FFF7F1FF009B019A23600023626001A8C7
:10BC500001930093FFF77BFF35B1281DFFF777FFB6
:10BC600008212846FDF757FA204603B030BD826808
:10BC700010B50AB902F026FBC368BDE810401847AA
:10BC800008B5006800F11001FFF7F1FF08BD8268F8
:10BC900010B50AB902F016FBC368BDE8104018479A
:10BCA00008B5006800F11001FFF7F1FF08BD0000C2
:10BCB00038B500230446036010200D46FDF727FA2F
:10BCC00028B10123C0E90133024BC5600360206045
:10BCD000204638BDC0FB3F0238B5002383608B6827
:10BCE00004460D462BB102229847EB68E360AB682F
:10BCF000A360204638BD0000F0B589B004686846EE
:10BD0000FFF756FF4FF00203D4E84F2F002A03D16C
:10BD1000C4E8413F0029F7D121D104F10C0569465F
:10BD20002846FFF745FF0122631CC3E88F2F002040
:10BD300004F10803D3E8EF6FC3E8E20F002AF9D15A
:10BD40006EB1FFF723FD78B129463046FFF78FFF2C
:10BD50003046FDF791FA10213046FDF7DCF96846D0
:10BD6000FFF733FF09B0F0BD314602A8FFF7B4FF7B
:10BD7000E068B4F9105008B102F034FB06901020CE
:10BD8000ADF81C50FDF7C3F90546E8B10027876000
:10BD90001820FDF7BCF9044688B10146876002A867
:10BDA000FFF7DDFE049BA268A360059B0492E26896
:10BDB00006A9E36004F110000592FFF7F9FE084BB5
:10BDC0002C60EB60074BAB6006A8FFF7FEFE02A8F5
:10BDD000FDF752FA002229460348FFF7E5FCB7E7D2
:10BDE00049C33F02C5C53F02A3C13F022DE9F04F41
:10BDF0008BB005460F46904699469DF850A0FFF738
:10BE000019FD07AE834638BB4FF62E73059005A982
:10BE10003046ADF81830FFF7CBFE1420FDF777F968
:10BE2000044648B1022303700123C0E901BB4370FB
:10BE300031460C30FFF7BCFE2846214640F8044B43
:10BE4000FFF736FF3046FFF7C0FE05A8FFF7BDFE3F
:10BE500028460BB0BDE8F08F0C2300241420CDE958
:10BE600008440793FDF753F9014618B1C0E90144AE
:10BE70000470447004A80391FFF71AFF1E4B0820BA
:10BE80000893FDF744F9044610B103A9FFF7CBFE70
:10BE90004A464146384600965FFA8AF30994FFF70E
:10BEA000D7FCB8B9039B01331B78DBB293B9059378
:10BEB0004FF69C7305A903A8ADF81830FFF71CFFD7
:10BEC00005A8FFF782FE05A80999FFF7B5FE06A8A9
:10BED000FFF73DFE03A905A8FFF7A5FE059B069AFF
:10BEE0002B6000236A6006A806930593FFF72FFED8
:10BEF00004A8FFF72CFEABE741C63F02012AF8B5C4
:10BF0000054603D10B6803600020F8BD022A10D05B
:10BF1000032AF9D10468002CF6D004F11000FFF7D1
:10BF200054FE2046FDF7A8F918212046FDF7F3F846
:10BF3000EAE718200E68FDF7EAF8044650B13146EA
:10BF4000FFF7CAFE3069B6F9147008B102F04AFA78
:10BF50002061A7822C60D7E738B5002383608B6807
:10BF600004460D462BB102229847EB68E360AB68AC
:10BF7000A360204638BD0000F0B5044689B00D46E8
:10BF800001A81146FFF758FEA4B124B21DB12846FE
:10BF900002F028FA054601A803A90395ADF8104060
:10BFA000FFF7AAFE03A8FFF710FE02A8FFF7CFFDD8
:10BFB00009B0F0BD0123019DD5E84F2F002A03D120
:10BFC000C5E8413F0029F7D1EFD12B730122EB18CF
:10BFD000C3E88F2F2B1DD3E8EF6FC3E8E24F002A91
:10BFE000F9D1002EE1D02046FFF7D0FB074660B123
:10BFF000304605F10C01FFF74AFE3046FDF73CF9EB
:10C0000010213046FDF787F8CFE7314603A8FFF748
:10C01000A3FF2B7B10208DF81C30FDF778F8054628
:10C02000D0B187601420FDF772F8044678B101465C
:10C03000876003A8FFF793FD059BA268A360069B9A
:10C040000592E268E3609DF81C3006922374074B6A
:10C050002C60EB60064BAB6003A8FDF70DF90022E6
:10C0600029460448FFF7A0FBC7E700BF69C33F02AA
:10C0700041C73F02A3C13F02012A70B5044603D164
:10C080000B680360002070BD022A0CD0032AF9D18E
:10C090000468002CF6D02046FDF7EEF81421204667
:10C0A000FDF739F8EEE714200E68FDF730F8054685
:10C0B00020B13146FFF750FF337C2B742560E1E758
:10C0C000002240681146FFF741BC0022406811463B
:10C0D000FFF758BC00224068FFF746BC00224068CA
:10C0E00081F00101FFF724BC002340681A4619467D
:10C0F000FFF710BC002340681A461946FFF7FCBB47
:10C10000002240681146FFF7E9BB00224068114653
:10C11000FFF7C8BB002202214068FFF7D1BB002314
:10C1200040681A46FFF7B0BB0322024B5A60024A2E
:10C130001A6070475CAE0710DCFB3F027047F8B531
:10C14000064615460C468F18BC4206D0336830466A
:10C150009B6814F8011B9847F6E72846F8BD0022B3
:10C16000007CFFF79DB80021007CFFF7A7B80021F5
:10C17000007CFFF7B1B80021007CFFF7BBB80021BD
:10C18000007CFFF7C5B810B504461421FCF7C3FFC7
:10C19000204610BD38B5044615464FF47A73002288
:10C1A000C4E90123094B0846217423602946FFF79F
:10C1B000CBF8BF3008D16B69DB0705D56868FFF79E
:10C1C00019FCE868FFF716FC204638BD18FC3F0252
:10C1D0000022007CFFF72CB80023007C1A46194689
:10C1E000FFF734B87FB500221423CDE90122ADF862
:10C1F00004300B78007C8DF808304B680393CB68D3
:10C2000004930B7A01A90593FFF7ACF807B05DF82A
:10C2100004FB1FB5003B8DF800104FF0640118BF00
:10C2200001230391694601928DF80830FFF7DAFF88
:10C2300005B05DF804FB0123FFF7EBBF0022007C93
:10C24000FFF712B8C9B2FFF7F9BF0022007CFFF771
:10C2500019B80121FFF7F9BF704710B5044618213E
:10C26000FCF759FF204610BDF0B5037D0E46062BA6
:10C270004FF000048DB000F1040712D000F1080562
:10C2800015F8011D0A22304601F02FFBAF4204448D
:10C2900019D0002CF4D02E21304601F00DFB0444BF
:10C2A000EEE72F236A4639460A208DF80040FFF753
:10C2B00067F86846FCF706FF336802466946304671
:10C2C000DB689847044620460DB0F0BD10B5044623
:10C2D000044B1122002140F8043B02F02CF82046C8
:10C2E00010BD00BF40FC3F020346074A10B543F8AB
:10C2F000042B01F1100251F8044B914243F8044B16
:10C30000F9D10A781A7010BD40FC3F0210B59DF8B3
:10C31000084044EA032343EA0242042342EA01615B
:10C320004160037510BD000007B5064B0360CB7874
:10C3300000938B784A780978FFF7E8FF03B05DF83F
:10C3400004FB00BF40FC3F02012200F1100313F880
:10C35000101C1846012908D153F8041C02EB4102B5
:10C36000013A03F11003F2D17047022904BF53F8D8
:10C37000041C5218F4E7704710B504461421FCF76A
:10C38000CAFE204610BD38B51546D0E903239342B6
:10C39000044607D2D21A8068AA4228BF2A46184407
:10C3A00001F0A2FF22692A44226138BD0EB417B5FC
:10C3B000044605AB53F8042BE168019303698068D8
:10C3C0008B4234BFC91A00211844019BFFF72EFB92
:10C3D00023691844206103B0BDE8104003B07047E2
:10C3E0000EB4F0B588B0102100AF07F1340555F850
:10C3F000042B04462B4678187A60FD60FFF716FB85
:10C400000F287A681AD900F1080323F007036E4653
:10C41000ADEB030D411C2B466846FD60FFF706FBA4
:10C42000021E04DD2368694620469B689847B5468E
:10C430002037BD46BDE8F04003B070470028F7D074
:10C44000236802469B68204607F110019847EFE7F2
:10C4500038B50B68044603604D6843689D4208D0B8
:10C4600015B16B6801336B60606808B1FFF749FB79
:10C47000656038BD07B503688DF8071001229B6819
:10C480000DF10701984703B05DF804FB0B46114618
:10C49000002210B50446C0E9002283600BB9204693
:10C4A00010BDFFF7D5FFFAE78368EBB11A78032ACE
:10C4B0001AD8DFE802F00417021B05207047026853
:10C4C0005B685268D05C2D2812D0A0F13003092B94
:10C4D0000ED974280ED066280CD0A0F16E035842F5
:10C4E000584170470620704700207047042070476D
:10C4F000032070470220704710B50446FFF7D4FFB1
:10C5000002280ED0C31EDBB2012B14D82268A36808
:10C5100050685B680A22BDE810400021184402F010
:10C5200029B82268A36852685B68D05CA0F17403E4
:10C530005842584110BD0020FCE7000038B50023E8
:10C540000446C0E900330E48C4E90203A9B10B78E0
:10C55000032B06D08BB9136858684B68C35C6E2BED
:10C5600007D013684D6858688B6828445B1BA0602F
:10C57000E36011462046FFF76BFF204638BD00BF41
:10C58000CAFC3F0238B500250B4604461146C0E9F7
:10C590000055C0E90255C0E904554BB11A78012A8B
:10C5A00006D103F11002DB6882604361FFF750FFA0
:10C5B000204638BD10B54369044663B18068013B2D
:10C5C000E0601030A0602061636113B1FFF7BCFE32
:10C5D000A060012000E0184610BD10B55D210446A2
:10C5E000FFF748FF01232046237110BD10B57D21C0
:10C5F0000446FFF73FFF01232046237110BD08B515
:10C600000379012B02D0022B04D008BD2C21FFF7A7
:10C6100031FFFAE73A21FAE710B50446FFF7EFFFDA
:10C6200020465B21FFF726FF00232046237110BD23
:10C6300010B50446FFF7E3FF20467B21FFF71AFF02
:10C6400000232046237110BD13B504460191FFF766
:10C65000D6FF23682046DB68019A034998470123E7
:10C660002046237102B010BD5BED3F0213B50446B6
:10C670000191FFF7C4FF23682046DB68019A034954
:10C68000984701232046237102B010BD4CFC3F02A5
:10C690002DE9F0470D469046222104462F46FFF72C
:10C6A000E9FEDFF8A490A8444745BA463DD017F804
:10C6B000016B222E06D05C2E04D0304601F00CFE19
:10C6C0000028F1D12368294620469B68AAEB050281
:10C6D00098475C212046FFF7CDFE0D2E0AD8072E85
:10C6E0001CD9A6F10803052B18D8DFE803F00D0FBD
:10C6F00011171315222E01D05C2E0FD13146204682
:10C70000FFF7B8FE3D46CFE76221F8E77421F6E770
:10C710006E21F4E76621F2E77221F0E723683246E2
:10C7200049462046DB689847ECE7BD4205D02368C0
:10C73000294620469B687A1B984722212046FFF70E
:10C7400099FEBDE8F08700BF4FFC3F0213B50446D9
:10C75000CDE90021FFF753FFDDE900212046FFF777
:10C7600097FF02232046237102B010BD13B5044683
:10C77000CDE90021FFF743FFDDE900212046FFF767
:10C7800087FF01232046237102B010BD8068036833
:10C79000DB6818477047084611B10B685B6818479B
:10C7A0007047704770477047704738B504460D466C
:10C7B00000682E2101F003FE2368C31A2B6023B109
:10C7C000037803B1013023682060184638BD10B5E6
:10C7D00004460C21FCF79FFC204610BD10B5044612
:10C7E0000421FCF798FC204610BD10B50446042136
:10C7F000FCF791FC204610BDFEF780BC08B5FCF7A5
:10C8000057FCB0FA80F0400908BD704710B50C46DF
:10C8100001F0D0FA844205D101F0CCFABDE8104015
:10C8200001F0BCBA01F0BAFC844205D101F0B6FCBB
:10C83000BDE8104001F055BA2CB123682046BDE890
:10C8400010405B68184710BD0B6803604B6843607D
:10C8500013B15A6801325A60704713B5044608464E
:10C860000191FCF72FFC02462046019902B0BDE879
:10C870001040FFF77BBF13B5044608460191FCF753
:10C8800021FC0246204623680199DB6802B0BDE81E
:10C890001040184707B503688DF807100122DB68C0
:10C8A0000DF10701984703B05DF804FB0A6810B565
:10C8B00002604A6842600022C0E9022202618C687C
:10C8C0008A608460CC68CA60C4600C690A610461D3
:10C8D00010BD00002DE9F74F4FF0140AD0E9008495
:10C8E000174645460AFB04F40093174BA4105C431B
:10C8F000002C21DD66100AFB06F005EB0009B9F8F3
:10C9000004B03A465F4528BF5A462858019101F0C5
:10C9100086FD00284FF0010301990BD15F4503D13B
:10C92000009A13703446E3E7FCD9A61B09F11405FD
:10C93000013EF7E7F9DBF5E7A5EB08050248AD1086
:10C94000684303B0BDE8F08FCDCCCCCC7FB5036994
:10C95000057E019103B3F9B1002600F10C040396A2
:10C9600003A901A8FFF721FF0146A8B10DF10B03B0
:10C970002046039A8DF80B60FFF7ACFF9DF80B3053
:10C9800053B12368142404FB0034B4F9063008348E
:10C99000002BA8BFDDB2E3E7284604B070BD0EB49B
:10C9A000F0B58CB000AF07F1440555F8042B0446F0
:10C9B0002B46202107F110007A60FD60FFF736F862
:10C9C0001F287A681AD900F1080323F007036E467E
:10C9D000ADEB030D411C2B466846FD60FFF726F8C2
:10C9E000021E04DD236869462046DB689847B54689
:10C9F0003037BD46BDE8F04003B070470028F7D09F
:10CA000023680246DB68204607F110019847EFE7EC
:10CA100010B5084CD4E88F3FDB0709D42046FCF75B
:10CA200089FB28B12046FCF78AFB034801F04DFC46
:10CA3000024810BD68AE07106BCE3F02F4A5071088
:10CA400010B5084CD4E88F3FDB0709D42046FCF72B
:10CA500071FB28B12046FCF772FB034801F035FC5E
:10CA6000024810BD6CAE0710D3CE3F02F8A50710E8
:10CA700038B500250446C0E90055C0E90455856075
:10CA8000856140F8245FFEF71DFBFFF7C1FFE06101
:10CA9000FFF7D6FF25732062204638BD10B50A4C3B
:10CAA000D4E88F3FDB070CD42046FCF743FB40B1B2
:10CAB0000648FFF7DDFF2046FCF741FB044801F084
:10CAC00004FC024810BD00BF64AE071074AE07102E
:10CAD000B5D63F020023024A02490348FEF71EBEB4
:10CAE0009DD43F0229D43F02A9D33F0200231A4616
:10CAF00019461846FEF712BE37B504468D686846DB
:10CB0000FFF7A2FE6A4629462046FFF73BFD01A833
:10CB1000FFF71DF8204603B030BD37B50446CD6899
:10CB20006846FFF791FE6A4629462046FFF706FD54
:10CB300001A8FFF70CF8204603B030BD37B5044616
:10CB40000D696846FFF780FE6A4629462046FFF7D2
:10CB50009DFC01A8FEF7FBFF204603B030BD00009E
:10CB600070B58AB00D46014604A8FFF7C5FF144E04
:10CB700004A8FFF71FFDE8B1684604A9FFF7CDFF41
:10CB800031460298FFF73AFE044610B12C1E18BF3A
:10CB9000012401A8FEF7DBFF002CE9D0684604A9B8
:10CBA000FFF7CCFF6846FFF7A7FC286001A8FEF757
:10CBB000CEFFDDE705A8FEF7CAFF0AB070BD00BFD3
:10CBC00070FC3F0237B50C46134920461546FCF76A
:10CBD0006FFA50B901F0EEF84FF4165101F0DAF89F
:10CBE00003B0BDE8304001F0E5B820460B49FCF742
:10CBF0005FFA78B94FF4165301A928460193FFF75D
:10CC0000AFFF01F0CBFA019901F068F801F0C6FA24
:10CC100003B030BD0020FBE775FC3F027CFC3F0207
:10CC200070B51426D0E90053044606FB0356AE4205
:10CC300005D005F10800FFF7F3FF1435F7E720688A
:10CC4000FEF7D8FE204670BD10B504460C30FFF745
:10CC5000E7FF2046FEF769FF204610BD10B50446E9
:10CC6000034B40F8043BFFF7EFFF204610BD00BF29
:10CC7000C0ED3F0210B50446FFF7F0FF2046242127
:10CC8000FCF749FA204610BD10B50446024B03607C
:10CC9000FFF7E4FF204610BD1CFD3F0210B504461F
:10CCA000FFF7F2FF20462421FCF735FA204610BD9D
:10CCB0000022C0E90022826010B50C680A6004609E
:10CCC0004C684A6044608C688A60846010BD10B50E
:10CCD000044603681868FEF71FFA204610BD0000DE
:10CCE0002DE9F04F87B003931C4B80465B68894663
:10CCF000C3F3080316466BB9FFF7D0FE044600F1F4
:10CD00002403406A0593FFF777FD237B2BB105A829
:10CD1000FFF7DDFF07B0BDE8F08F01235FFA89F967
:10CD20002373D4E9005305EB830AAA4512D055F8C2
:10CD3000047B3146381DFFF709FE8145F5D3039A80
:10CD40003B680092D3F808B04A463346414638461D
:10CD5000D847EAE700232373D9E700BF00ED00E0DE
:10CD60002DE9F74F9B461A4B80465B688946C3F313
:10CD7000080316466BB9FFF791FE044600F1240341
:10CD8000406A0193FFF738FD237B2BB101A8FFF721
:10CD90009EFF03B0BDE8F08F0123F6B22373D4E900
:10CDA000005305EB830A55450ED055F8047B5946D0
:10CDB000381DFFF7CBFD8642F5D33B684A46414616
:10CDC0003846DB689847EEE700232373DEE700BFB1
:10CDD00000ED00E02DE9F341164B05465B680F4678
:10CDE000C3F308031BBBFFF759FE044600F12403FD
:10CDF000406A0193FFF700FDD4E90063462406EB87
:10CE00008308B04509D101A8FFF761FFA542B4BF6F
:10CE10000020012002B0BDE8F08156F8040B39462D
:10CE20000430FFF793FD8442A8BF0446E9E70020E1
:10CE3000F0E700BF00ED00E0F8B5D0E901539D42F6
:10CE400004460E460DDB6F1C002F006804DDB900A0
:10CE5000FEF7DEFD18B9F8BDFEF7CCFD002020601E
:10CE6000A7602768626807EB85019200A2EB850244
:10CE7000081D01F046FA47F8256063680120013378
:10CE80006360E8E737B5044600F12403406A019384
:10CE90000D46FFF7B1FCD4E9003203EB8202934266
:10CEA00019460AD009680433A942F8D101A8FFF74E
:10CEB0000EFF0025284603B030BD29462046FFF767
:10CEC000BBFF05460028F1D06368012B01D1FFF7B5
:10CED00001FE01A8FFF7FBFEECE70B4670B5044628
:10CEE000D0E9000200EB820282420FD001461D68A9
:10CEF00051F8046BAE4207D1521A01F002FA012038
:10CF00006368013B636070BD0846EDE70020FAE707
:10CF10001FB5044600F12403406A01910393FFF713
:10CF20006BFC204601A9FFF7D8FF18B163680BB965
:10CF3000FFF7DCFD03A8FFF7CAFE04B010BD1823FD
:10CF400070B50446D0E9045603FB0656AE4215D030
:10CF5000204605F11001FFF7C0FF63680BB9FFF72A
:10CF6000C5FDE06929690368DB689847696919B1FB
:10CF7000206A0368DB6898471835E7E71826D4E984
:10CF8000045306FB0356AE4204D0284600F091FD40
:10CF90001835F8E70023636170BD73B50446FFF7E9
:10CFA000A5FD04F12403606A0193FFF725FC2046E8
:10CFB000FFF7C5FF01A8FFF78AFE606A08B1FEF718
:10CFC0008FF8D4E90453182606FB0356AE4204D06A
:10CFD000284600F06EFD1835F8E72069FEF70AFDD7
:10CFE0002068FEF707FD204602B070BD0148FFF73C
:10CFF000D4BF00BF74AE07108842F8B504460D4692
:10D00000164615D9904214D2A2F11406751AA1F150
:10D0100014072C44B7421AD01CB131462046FFF702
:10D0200045FC06F10800FFF7FBFD143E143CF1E758
:10D030000DD0B5420BD01CB129462046FFF736FC77
:10D0400005F10800FFF7ECFD14351434F1E7F8BDE5
:10D050008842F8B504460D46164614D9904213D2BC
:10D06000A2F11006751AA1F110072C44B74218D08E
:10D070001CB13146204600F099FD304600F019FD04
:10D08000103E103CF2E70CD0B5420AD01CB1294644
:10D09000204600F08BFD284600F00BFD10351034C3
:10D0A000F2E7F8BD70B50E1E054611DD3001FEF742
:10D0B00093FC044658B1D5E9001201EB0212FFF7C8
:10D0C000C7FF2868FEF796FC01202C60AE6070BD9B
:10D0D0000024F6E72DE9F04F90460023462295B054
:10D0E0000391D8F8041004469942C0E90033C0E91E
:10D0F0000233C0E90433CDE9083302760A9323DC16
:10D10000D8E90057142303FB0757AF423BD0294609
:10D110000BA800F04BFD0BA90FA8099E00F046FDDF
:10D12000DDE9091399421BDA089B099A03EB0616FD
:10D13000314603EB021206F11000FFF789FFEEB94A
:10D14000099B0133099311E008A8FFF7ABFF002802
:10D15000D6D108A8FEF7E9FC204615B0BDE8F08F4F
:10D16000013108A8FFF79EFF0028DDD10FA800F0CD
:10D17000A0FC0BA800F09DFC1435C6E730460FA9B3
:10D1800000F014FDDCE700264FF01409CDE90B6632
:10D190000D96DDE908239E427CDA3301D3580693CD
:10D1A0000BB90136F5E70023079309FB06F30BAD36
:10D1B000029307A906A8FFF7F8FA82460028F0D0E4
:10D1C0004FF0000301468DF817302846079A0DF1FD
:10D1D0001703FFF77FFB9DF817700190002F4AD1CE
:10D1E000BDF81C30CDE91177ADF840304FF6FF7334
:10D1F000CDF83CA0ADF842301397D5E90132934207
:10D2000017DB03F1010ABAF1000F30DD09FB0AF068
:10D21000FEF7E2FB834660B3D5E9001209FB021278
:10D22000FFF7EAFE2868FEF7E5FBC5F800B0C5F891
:10D2300008A02B68019A09FB023A6A68514609FB6B
:10D2400002320AF11400FFF7D7FEBAF1000F03D043
:10D2500050460FA9FFF72AFB6B6801336B6011A8DA
:10D26000FFF7DEFC3FB10BA8FFF7DAFC71E7BB4626
:10D27000D8E70127F3E7019B2D6809FB0355069BBF
:10D280001B782BB9D8F80030029A13441B7CEB8032
:10D2900008358EE72168226062686360A36809929E
:10D2A0000A9A0A93E368A2600B9A0B932369E260DF
:10D2B0000C9A0C93636922610D9A0D93039B08915C
:10D2C00062612376CFE70000F0B504462646174694
:10D2D00087B00D4668461946FCF79FF90B4B694627
:10D2E00046F8043B03A8FCF798F9394603AA3046F0
:10D2F000FFF7F0FE03A8FCF74FF96846FCF74CF97E
:10D300002046034B2562236007B0F0BDC0ED3F020D
:10D3100004FD3F02F0B50F4685B038461C4916465D
:10D320001D460A9CFBF7C4FEC0B9A4B1294601A85A
:10D33000FFF7BEFC2420174900F0C0FF054630B1BE
:10D3400001AB32462146FFF7BFFF134B2B6001A80C
:10D35000FCF722F92C46204605B0F0BD38460F49AF
:10D36000FBF7A6FE90B9002CF5D0294601A8FFF7DF
:10D370009FFC2420074900F0A1FF05460028E6D0C5
:10D380003246214601ABFFF79FFFE0E70024E2E7CA
:10D3900084FC3F0258FE3F021CFD3F0288FC3F0216
:10D3A000014B024A1A60704770AE071099FC3F02A9
:10D3B0002DE9F047089DD0F8209004460E46174608
:10D3C000984600F0F7FC81454DD02B79190704D51C
:10D3D00020466A695449FFF7E2FAB8F1000F0DD010
:10D3E0005B212046FFF756FA41462046FFF743FAF5
:10D3F000236802222046DB684C4998472B79DA07DC
:10D4000024D5D5F808802F21404601F01CF808B13A
:10D4100000F1010841462046FFF72DFA2B799B07C2
:10D4200008D53A212046FFF735FA2046EA684049F8
:10D43000FFF7B5FA2A79236812F0040F20464FF05F
:10D440000202DB6814BF3B493B4998472B795807D8
:10D450001DD529690B461A4613F8010B60B1202827
:10D4600008D11946F7E7354800F083F90028ACD019
:10D47000BDE8F0872828EED12368521A2046DB68E1
:10D480009847236804222046DB682D4998470021ED
:10D490003846FEF735F901462046FFF7ECF92368D8
:10D4A00002222046DB68244998471EB131462046B7
:10D4B000FFF7E1F92B7913F0300F2CD023682149C5
:10D4C000DB680222204698472B79D9060AD52368C3
:10D4D000072220461C49DB6898472046AA691B4959
:10D4E000FFF75DFA2B799A0611D5DB0605D523687F
:10D4F00002222046DB680F499847236820461449DA
:10D500000A22DB6898472046E969FFF7B4F95D21F4
:10D510002046FFF7BFF923682046BDE8F047022206
:10D52000DB680C49184700BF9DFC3F02A4FC3F028A
:10D530005BED3F02A7FC3F02ACFC3F029CAE071034
:10D54000AAFC3F02AFFC3F02B2FC3F02BAFC3F0222
:10D55000BDFC3F02C8FC3F022DE9F0410446076ACA
:10D560000D46164600F026FC874207D0206A324658
:10D5700003682946BDE8F041DB681847034800F01E
:10D58000F8F80028F2D0BDE8F08100BF9CAE07108B
:10D590002DE9F04385B0D0F8209005460F4690461F
:10D5A0001E460C9C00F006FC814505D1494800F060
:10D5B000E0F8002840F08A804FF000092B6A464AC4
:10D5C00001A8019203938DF80890FFF731F84946BE
:10D5D0004046FEF795F880464049012201A8FFF732
:10D5E000B5F84146FFF739F93FB13D49012201A89D
:10D5F000FFF7ACF83946FFF730F93EB1394901225F
:10D6000001A8FFF7A3F83146FFF727F92379DF07D1
:10D610000ED5A6682F21304600F015FF00B1461C3C
:10D620003149012201A8FFF791F83146FFF715F9BA
:10D6300023799E0707D52D49022201A8FFF786F816
:10D64000E168FFF701F82379580714D526693346B6
:10D650001F4613F8012B2AB1202A01D11E46F7E7F5
:10D66000282AF5D10222224901A8FFF76FF8314696
:10D67000BA1BFFF77BF82379190707D51D4901224B
:10D6800001A8FFF763F86169FEF7F0FF2379DA0676
:10D6900008D5042218490DEB0200FFF757F8A169DD
:10D6A000FEF7D2FF23799B0607D51449062201A86D
:10D6B000FFF74CF8E169FFF7D0F801A8FEF796FFF5
:10D6C000286A022203680E49DB68984705B0BDE866
:10D6D000F08300BF9CAE0710ECFC3F027AFC3F02D7
:10D6E000CBFC3F02C7FE3F02CDFC3F02CFFC3F0216
:10D6F000D2FC3F0285ED3F02D5FC3F02DAFC3F023F
:10D70000C8FC3F02002340681A46FEF7BDB800225D
:10D7100002214068FEF7D4B8002240681146FEF7A7
:10D72000C1B8002240681146FEF7D8B8002340680F
:10D730001A461946FEF7E0B8002340681A46194613
:10D74000FEF7E8B800214068FEF72AB900214068DA
:10D75000FEF734B90022406881F00101FEF7E8B815
:10D7600000224068FEF700B9002240681146FEF72B
:10D7700009B9002240681146FEF7E8B82DE9F043E8
:10D7800095B014460D460746FEF7A0FD00211C2269
:10D790000DA8009100F0CFFD402320460C930021FE
:10D7A0006B460CAAFDF708FE044600284BD1024642
:10D7B00001216868FEF792F80221804622466868D7
:10D7C000FEF78CF821468146009E002E3BD00029B2
:10D7D00039D17368022B03D00A2B11D0F669F4E714
:10D7E000B8F1000FFAD0716906A804313C1D07ADED
:10D7F000FEF79AFD0FCD0FC42B6841462370EDE76D
:10D80000B9F1000FEAD0102201A8746900F093FD6D
:10D81000062301AD8DF8143004F1080318342A46AC
:10D8200018685968083303C2A3421546F7D101A905
:10D8300006A83C1D07ADFEF757FD0FCD0FC42B68A2
:10D8400049462370CAE70098FDF7A8FD384615B091
:10D85000BDE8F083024B034A1A6000225A60704709
:10D860009CAE071064FD3F02F8B506460D46002445
:10D870008F18BD420CD0336830469B6815F8011BE9
:10D880009847031E01DB1C44F3E7002C08BF1C462D
:10D890002046F8BD13B50446084659B10191FBF77F
:10D8A00011FC0246204623680199DB6802B0BDE8FE
:10D8B0001040184702B010BD03689B68184738B580
:10D8C0000D210546FFF7F8FF0A2104462846FFF719
:10D8D000F3FF204438BD38B50546FFF7DBFF0446AB
:10D8E0002846FFF7ECFF204438BD0023012A98BFEB
:10D8F0000A2230B58BB08DF8243009AC0D46B1FB4F
:10D90000F2F101FB125303F0FF03092B94BF3033F4
:10D910003733DBB2AA4204F8013DEFD92146FFF7C5
:10D92000B9FF0BB030BD00000022014B9A60704778
:10D93000A4AE07100021FDF7BDBD0021FDF7ACBD71
:10D9400010B5044608462170FDF752FD002320461D
:10D95000636010BD13B504460078FFF7EEFF58B9B9
:10D9600020784FF6FF710190FDF734FD019802B069
:10D97000BDE81040FFF7DEBF02B010BD0078FFF732
:10D98000D9BF000030B50024400818601868E5B21F
:10D99000884206D90134082C02D040081860F5E707
:10D9A0000725024B5B5D137030BD00BF98FD3F0241
:10D9B0002DE9F04306468FB000780C46FFF7BDFF17
:10D9C00000281BDB1422002109A8357800F0B3FCE5
:10D9D0000B230022284609A9ADF82430FDF724FDC9
:10D9E0009DF82D3013B19DF82C5055B1002701251D
:10D9F000B946B84623795DB1C3B100200FB0BDE888
:10DA0000F083DDF830809DF834909DF83570F1E7B3
:10DA1000002B35D1A368434508D18DF820908DF8AF
:10DA20002170BDF82020A3899A42E6D00023A16886
:10DA30008DF80F300A9804AB0DF10F02FFF7A2FF2B
:10DA4000217985B989B9A36843450ED38DF8209013
:10DA50008DF82170BDF82020A3899A4205D1049B3E
:10DA6000434502D1C9E70029F9D100230193637B23
:10DA70009DF80F200093237B3078FDF7FFFCBCE777
:10DA80002B462A460121CDE90055F5E730B587B090
:10DA90000A9D044600950078FDF7D4FC3DB9207836
:10DAA00002A9FDF7DDFC9DF81430DB07F7D407B0C1
:10DAB00030BD10B504460068FDF79CFF204610BD40
:10DAC00010B50446006808B1FDF794FF0023C4E9CF
:10DAD0000133236010BD38B504460D46006801319E
:10DAE000FDF796FF10B1C4E90005012038BD10B55F
:10DAF0000368044623B143688B4201D3012010BD63
:10DB00002046FFF7E8FF0028F9D0A368002BF5D1E5
:10DB100022681370F2E737B50D46114601920446AC
:10DB2000FFF7E5FF019A28B92046FFF7C9FF204615
:10DB300003B030BD2946A260206800F0D5FB00216B
:10DB40002268A368D154F2E7002313B50446C0E964
:10DB500000338360037341B108460191FBF7B2FAC9
:10DB6000019902462046FFF7D6FF204602B010BDBD
:10DB700038B5054600680C4670B16A688B689A42F1
:10DB800008D3096831B100F024FCA368AB6000231E
:10DB9000A36038BDFDF72EFF23682B6063686B60C0
:10DBA000A368AB600023C4E90033F1E7002310B59C
:10DBB0000446C0E9003383600373FFF7D9FF2046B2
:10DBC00010BD884210B5044605D00B682BB18A6899
:10DBD0001946FFF7A0FF204610BDFFF771FFFAE7D7
:10DBE000002310B50446C0E9003383600373FFF7D8
:10DBF000E8FF204610BD000002220020044B1A60FE
:10DC0000044B054AC3E900009A60FDF795BD00BFCB
:10DC1000C0AE0710B4AE07100000FFFF024B1A6839
:10DC2000024B1A60704700BFFCA50710C4AE071076
:10DC300070474174704708B5007CFDF7ABFC20EAE3
:10DC4000E07008BD08B5007CFDF75EFC20EAE070DE
:10DC500008BD08B5007CFDF773FC40EAE07008BD24
:10DC600008B5007CFDF75EFC40EAE07008BD007C72
:10DC7000FDF774BC37B5457C04462DB1207C03B05C
:10DC8000BDE83040FDF732BC007C0191FDF782FC1D
:10DC900000280199F2DC284603B030BD10B50446D7
:10DCA0001421FBF738FA204610BD000010B54FF4E0
:10DCB0007A730446084611460022C4E90123044B46
:10DCC0002074236001236374FDF780FC204610BD9F
:10DCD000C4FD3F020023007CFDF76ABC0022FFF771
:10DCE000F9BF007CFDF7F4BB007CFDF745BC417437
:10DCF00070477047704708B50021007CFDF7BAFCFB
:10DD000040EAE07008BD08B50121007CFDF7B2FCD7
:10DD100040EAE07008BD08B5007CFDF79DFC20EAF4
:10DD2000E07008BD08B5007CFDF788FC20EAE070D3
:10DD300008BD13B50446007C0191FDF78DFC002859
:10DD4000019901DC607C20B1207CFDF7A1FC20EA78
:10DD5000E07002B010BD007CFDF7A8BC10B5044611
:10DD60001421FBF7D8F9204610BD000010B54FF480
:10DD70007A73044608460021C4E90113044B207459
:10DD80002360012311466374FDF72EFC204610BD6D
:10DD9000F4FD3F020022007CFDF734BC007CFDF75F
:10DDA0003FBC10B504461422002100F0C4FA2046FE
:10DDB00010BD000010B588B003A8FFF7F2FF0C4CAF
:10DDC000D4E88F1F11F001010FD120460191FBF71C
:10DDD000B1F9019948B103AA0648FFF7C7FF2046E9
:10DDE000FBF7ADF9044800F070FA024808B010BD26
:10DDF000C8AE0710CCAE0710BBE33F02002240685C
:10DE00001146FDF76BBD002240681146FDF79EBD2F
:10DE1000002240681146FDF7B5BD00224068FDF7BD
:10DE2000A3BD0022406881F00101FDF781BD002300
:10DE300040681A461946FDF76DBD002340681A4632
:10DE40001946FDF759BD002240681146FDF72ABD6D
:10DE5000002202214068FDF733BD002340681A46C6
:10DE6000FDF712BD0422024B5A60024A1A60704745
:10DE7000E0AE071024FE3F02014B1860704700BF60
:10DE800000A6071008B50F4B43B1FFF793FF0368D7
:10DE90001B699847002801DD00E000BF0A4B43B131
:10DEA00000F07CF903681B699847002801DD00E059
:10DEB00000BF064B0BB100F0B7F9054B0BB100F0FA
:10DEC000E9F908BD000000000000000000000000AB
:10DED0000000000008B5FFF7D5FFFDF755F9014B2D
:10DEE000186008BDF0AE07100548064A08B5121ABA
:10DEF000054900F0F9F9054B054A1A6008BD00BF55
:10DF000000B4071004B40710B0F95F0800B407109C
:10DF10001E1C279A002307B51A466FF0770100935D
:10DF2000FDF75EFC03B05DF804FB000007B5438815
:10DF30000A2B08D0502B0BD1094B1B684BB103B0F7
:10DF40005DF804EB1847FFF7E5FF03B05DF804FB4D
:10DF500000231A466FF077010093FDF741FCF4E7C8
:10DF6000ECAE0710002110B51148FDF7A5FD114BCF
:10DF70001A68114B9A420CBF012200220F4B1A70F3
:10DF800001D0FFF7B1FFFDF7E3F8044600F0DCF93C
:10DF90000B4B13B1204600E000BF00210848FDF7FD
:10DFA00065FCBDE8104000210648FDF70BBC00BF32
:10DFB00041E53F0200B407101E1C279AE8AE071087
:10DFC00000000000F5E53F021B2837B5044602D9E2
:10DFD000002003B030BDA0F10F03022B0BD90128A4
:10DFE00021D800F087F80021007CFDF79FF980F030
:10DFF0000100C0B2EDE7114DD5E88F1F11F001010E
:10E000000BD128460191FBF795F8019928B10C48EE
:10E01000FFF796FC2846FBF792F8094B1878FDF7B6
:10E02000F5F90028D4D1083C012C05D800F0B6F849
:10E03000007CFDF7A1FADAE70120CAE74CAE071031
:10E0400050AE07101B2838B504460D460AD8FF29E4
:10E0500008D0FFF7B9FF28B129462046BDE838406F
:10E06000FDF7AEB838BD38B504460D46FDF7B6F835
:10E07000FF2810D0062804D84D2323FA00F0C30748
:10E0800009D42046FFF7A0FF28B129462046BDE865
:10E090003840FDF7B1B838BD10B50446FFF794FF1E
:10E0A00050B103212046FDF77DF8032804D1204616
:10E0B000BDE81040FDF7AEB8002010BD704700006D
:10E0C00038B50A4B04460360012309494361202007
:10E0D00000F0F6F82025606005492846A56000F0AC
:10E0E000EFF8C4E90305204638BD00BF1800010061
:10E0F00058FE3F0230B50E4D87B0D5E88F1F11F0A6
:10E10000010411D12846FBF715F868B16846FFF7FE
:10E11000D7FF6A4621460748FEF73CF82846FBF73A
:10E120000EF8054800F0D1F8024807B030BD00BF36
:10E13000F4AE0710F8AE071085E73F027047000005
:10E1400038B5142504462A46002100F0F4F825804D
:10E150004025074928462581258200F0B1F8044969
:10E160006060284600F0ACF8E060204638BD00BF93
:10E1700058FE3F027047704710B50446FFF7E0FFB6
:10E18000204610BD10B50446FFF7DAFF204610BD4B
:10E1900010B50446FFF7D4FF204610BD30B50E4D34
:10E1A00087B0D5E88F1F11F0010411D12846FAF786
:10E1B000C1FF68B101A8FFF7DFFF214601AA0748A8
:10E1C000FFF774FD2846FAF7BAFF054800F07DF81E
:10E1D000024807B030BD00BF0CAF071018AF0710E2
:10E1E00005E83F0210B50D4C86B0D4E88F3FDB0741
:10E1F00011D42046FAF79EFF68B101A8FFF7C2FFCD
:10E20000012101AA0648FFF751FD2046FAF797FFC2
:10E21000044800F05AF8024806B010BD10AF0710CD
:10E220002CAF07103FE83F0210B5FFF7DBFF074BAD
:10E23000044653B1FFF758FD38B1236820461B69E7
:10E240009847002801DD00E000BF10BD000000007D
:10E2500010B50D4C86B0D4E88F3FDB0711D42046B3
:10E26000FAF768FF68B101A8FFF792FF022101AA3F
:10E270000648FFF71BFD2046FAF761FF044800F04F
:10E2800024F8024806B010BD14AF071040AF0710C5
:10E290003DE83F0210B5FFF7DBFF074B044653B1E3
:10E2A000FFF722FD38B1236820461B6998470028F4
:10E2B00001DD00E000BF10BD00000000FAF727BF3D
:10E2C000FAF727BF08B5FDF7BFFB002301461A4642
:10E2D000184600F059B90000024B1844407800F08D
:10E2E00097007047C9FE3F020A44431E914200D185
:10E2F000704710B511F8014B914203F8014FF9D165
:10E3000010BD884210B501EB020402D984422346B5
:10E3100007D8431EA14208D011F8012B03F8012FA2
:10E32000F8E7024401468A4200D110BD13F8014DBE
:10E3300002F8014DF7E702440346934200D17047CB
:10E3400003F8011BF9E7000038B5104B04461D68BF
:10E35000AB6BB3B91820FDF73FFB0246A86320B9A9
:10E360000B4B42210B48FDF799FB0B490B4BC0E9C6
:10E3700000130B4B002183600B2383810120C2E932
:10E380000401AB6B00221C615A6138BD00A6071066
:10E3900059FE3F0270FE3F020E33CDAB34126DE6E4
:10E3A000ECDE0500C9B2034610F8012B1AB18A420F
:10E3B000F9D118467047002918BF0023F9E710B5B6
:10E3C0000446FFF7EFFF18B92046FAF77BFE20441A
:10E3D00010BD034611F8012B03F8012B002AF9D1D7
:10E3E00070470000024B0146186800F003B800BFF8
:10E3F00000A6071037B5044608460D46FAF762FE38
:10E40000421C204611460192FDF72CFB044618B130
:10E41000019A2946FFF768FF204603B030BD10B5CA
:10E420007AB103460139841813F8010B11F8012F52
:10E43000904201D1A34201D1801A10BD0028F3D12E
:10E44000FAE71046F9E738B503460C4669B9BDE866
:10E450003840FFF7A7BF431C054621461846FFF783
:10E46000A1FF0028F7D1284638BD0025F5E70000B8
:10E47000012B2DE9F04701D0242B06D9FDF700FB35
:10E48000162303600020BDE8F0870D46DFF8E0C0EA
:10E490002E4615F8014B14F80C7017F00807F7D149
:10E4A0002D2C32D12C780127B51C002B5BD0102BE2
:10E4B00009D1302C07D12C7804F0DF04582C4DD131
:10E4C0006C781023023507F100484FF0000C08F17A
:10E4D000FF386646B8FBF3F903FB198AA4F1300E46
:10E4E000BEF1090F16D87446A34224DDBCF1000F1B
:10E4F0001EDBB1451CD301D1A24519DB06FB034647
:10E500004FF0010C15F8014BE8E72B2C04BF2C78D9
:10E51000B51CCAE7A4F1410EBEF1190F01D8373C72
:10E52000E2E7A4F1610EBEF1190F04D8573CDBE716
:10E530004FF0FF3CE6E7BCF1000F05DA2223464628
:10E54000036042B930469EE707B17642002AF9D00F
:10E55000BCF1000F00D0691E1160F3E73024002BDE
:10E56000B1D10823AFE7302CA5D00A23ABE700BF19
:10E57000CAFE3F0213460A46014602480068FFF7FA
:10E5800077BF00BF00A607102DE9F843DFF8BC8075
:10E5900006461F460D46D8F80000914600F058F890
:10E5A000264B1C6834B9264C1C60264B13B11B68E3
:10E5B000C4F8883063681F2B07DDD8F8000000F02E
:10E5C00049F84FF0FF30BDE8F8835EB3D4F8880017
:10E5D00088B91D4B23B9D8F8000000F03AF8F0E7ED
:10E5E0004FF48470FDF7F8F90028F4D00023C0E957
:10E5F0004033C4F8880063680122022E40F823905B
:10E6000002FA03F200EB8301D0F8003143EA02037F
:10E61000C0F80031C1F8807002BFD0F80431134354
:10E62000C0F804316368D8F800005A1C02336260F5
:10E6300044F8235000F00EF80020C4E7E0AF0710C4
:10E6400054AF071000000000A1C03F0264A60710ED
:10E6500070477047704700009D973F02C5973F0283
:10E66000C9973F020000000043616C6C206F6E2070
:10E6700070757265207669727475616C00535543CC
:10E68000434553532053455454494E47204741492D
:10E690004E3A202564004641494C454420544F20C1
:10E6A000534554204741494E004F4C454420466550
:10E6B000617468657257696E67207465737400656C
:10E6C0006467652F696E676573742F6C616D700088
:10E6D000726573756C743A202564000000000000B8
:10E6E0000000000055993F0299993F020F983F02A0
:10E6F000000000000000000000000000000000001A
:10E70000E5973F020D983F02000000000000000066
:10E71000F9983F022D993F0279DA3F0221DC3F024E
:10E72000436F756C64206E6F7420696E69746961E3
:10E730006C697A65204F4C454421004F4C4544207C
:10E74000626567756E00000000000000007E000139
:10E75000FF800381C00600600C703018F01818F8B4
:10E760001830780C30200C301BCC305BCC30E7CC30
:10E7700031E38C19E01818E0180C00300600600333
:10E7800081C001FF80007E0000000000000000004A
:10E790000000000007FFE00FFFF00C00300C00301D
:10E7A0000CC0300CC0300C00300C00300FFFF00FEC
:10E7B000FFF00C00300C00300CC0300CC0300CC02E
:10E7C000300CC0300C00300C00300FFFF007FFE0C1
:10E7D0000000000000000000000000001FFFF81F04
:10E7E000FFFC1FFFCC0FFFCC0FF9CC07F9CC07F9CA
:10E7F000CC07F9CC07F9CC07F9C007FFC003FFC06D
:10E8000003FFC003FFC000000000000007FFE00F8F
:10E81000E7F00FE7F00FFFF000000000000000003D
:10E820000000000000000003FF8007FFE00600601A
:10E830000730E00334C00300C00FFFF01FFFF83FB4
:10E84000FFFC3FFFFC3FFFFC3FFFFF3FFFFF3FFFA1
:10E85000FC3FFFCC3FFFCC3FFFFC3FFFFC00000034
:10E860000000000000004F4E004F46460000000030
:10E87000000006000100000001050200FC0001008C
:10E8800003010400FC00020005050600FC00060070
:10E8900005050600FC000A0005050600FC000E0048
:10E8A00005050600FC00120001010200FC00130037
:10E8B00002050300FC00150002050300FC00170020
:10E8C00003030400FD00190003030400FD001B0006
:10E8D0000102020000001C0004010500FE001D00F2
:10E8E0000101020000001E0005050600FC002200D8
:10E8F00005050600FC00260001050200FC002700BB
:10E9000005050600FC002B0005050600FC002F0095
:10E9100005050600FC00330005050600FC00370075
:10E9200005050600FC003B0005050600FC003F0055
:10E9300005050600FC00430005050600FC00470035
:10E9400001040200FD00480001040200FD0049002E
:10E9500003050400FC004B0004030500FD004D000E
:10E9600003050400FC004F0005050600FC005300F1
:10E9700005050600FC00570005050600FC005B00CD
:10E9800005050600FC005F0005050600FC006300AD
:10E9900005050600FC00670005050600FC006B008D
:10E9A00005050600FC006F0005050600FC0073006D
:10E9B00005050600FC00770005050600FC007B004D
:10E9C00005050600FC007F0005050600FC0083002D
:10E9D00005050600FC00870005050600FC008B000D
:10E9E00005050600FC008F0005050600FC009300ED
:10E9F00005050600FC00970005050600FC009B00CD
:10EA000005050600FC009F0005050600FC00A300AC
:10EA100005050600FC00A70005050600FC00AB008C
:10EA200005050600FC00AF0005050600FC00B3006C
:10EA300005050600FC00B70005050600FC00BB004C
:10EA400005050600FC00BF0002050300FC00C10034
:10EA500005050600FC00C50002050300FC00C70018
:10EA600003020400FC00C800050106000100C90003
:10EA700001010200FC00CA0004040500FD00CC00F6
:10EA800004050500FC00CF0004040500FD00D100D2
:10EA900004050500FC00D40004040500FD00D600B8
:10EAA00003050400FC00D80004050500FD00DB00A0
:10EAB00004050500FC00DE0001040200FD00DF008B
:10EAC00002050300FD00E10004050500FC00E40070
:10EAD00001050200FC00E50005040600FD00E80059
