:02000004085F93
:10A0000000A05F08FCFF5F080000060020000501BB
:08A0100004017D1500000000B1
:10A018001348144908B5884205D0134A824202D031
:10A02800124B121A98471248124A0021124B121A60
:10A03800984712481249884205D0124A824202D0F3
:10A048000A4B121A984710481049884205D0104AFE
:10A05800824202D0054B121A9847014808BD00BF3A
:10A06800B0A907100CFA5F0844AA07102D0D1110AB
:10A0780048AA0710ECAF0710A10E111090A63F02D6
:10A08800A8A05F0898A63F0298A63F02B0A05F0864
:0CA09800F4FF3F0219A05F080000000068
:08A0A8009CA05F08A0F33F0239
:10A0B00081F0004102E000BF83F0004330B54FEA79
:10A0C00041044FEA430594EA050F08BF90EA020FE6
:10A0D0001FBF54EA000C55EA020C7FEA645C7FEA79
:10A0E000655C00F0E2804FEA5454D4EB5555B8BF9C
:10A0F0006D420CDD2C4480EA020281EA030382EA0D
:10A10000000083EA010180EA020281EA0303362D9E
:10A1100088BF30BD11F0004F4FEA01314FF4801C71
:10A120004CEA113102D0404261EB410113F0004F83
:10A130004FEA03334CEA133302D0524263EB43033A
:10A1400094EA050F00F0A780A4F10104D5F1200ED8
:10A150000DDB02FA0EFC22FA05F2801841F1000133
:10A1600003FA0EF2801843FA05F359410EE0A5F107
:10A1700020050EF1200E012A03FA0EFC28BF4CF038
:10A18000020C43FA05F3C01851EBE37101F00045EE
:10A1900007D54FF0000EDCF1000C7EEB00006EEBFB
:10A1A0000101B1F5801F1BD3B1F5001F0CD3490885
:10A1B0005FEA30004FEA3C0C04F101044FEA4452DC
:10A1C00012F5800F80F09A80BCF1004F08BF5FEA63
:10A1D000500C50F1000041EB045141EA050130BD43
:10A1E0005FEA4C0C404141EB0101013C28BFB1F555
:10A1F000801FE9D291F0000F04BF01460020B1FAA0
:10A2000081F308BF2033A3F10B03B3F120020CDA72
:10A210000C3208DD02F1140CC2F10C0201FA0CF050
:10A2200021FA02F10CE002F11402D8BFC2F1200CB5
:10A2300001FA02F120FA0CFCDCBF41EA0C0190406B
:10A24000E41AA2BF01EB0451294330BD6FEA0404B4
:10A250001F3C1CDA0C340EDC04F11404C4F120029F
:10A2600020FA04F001FA02F340EA030021FA04F3B1
:10A2700045EA030130BDC4F10C04C4F1200220FA08
:10A2800002F001FA04F340EA0300294630BD21FA46
:10A2900004F0294630BD94F0000F83F4801306BF0C
:10A2A00081F480110134013D4EE77FEA645C18BF00
:10A2B0007FEA655C29D094EA050F08BF90EA020F97
:10A2C00005D054EA000C04BF1946104630BD91EA8F
:10A2D000030F1EBF0021002030BD5FEA545C05D192
:10A2E0004000494128BF41F0004130BD14F58004D1
:10A2F0003CBF01F5801130BD01F0004545F0FE4145
:10A3000041F470014FF0000030BD7FEA645C1ABF79
:10A31000194610467FEA655C1CBF0B46024650EAB0
:10A32000013406BF52EA033591EA030F41F40021DC
:10A3300030BD00BF90F0000F04BF0021704730B562
:10A340004FF4806404F132044FF000054FF0000137
:10A3500050E700BF90F0000F04BF0021704730B5F8
:10A360004FF4806404F1320410F0004548BF4042CD
:10A370004FF000013EE700BF42004FEAE2014FEA22
:10A3800031014FEA02701FBF12F07F4393F07F4FFD
:10A3900081F06051704732F07F4208BF704793F000
:10A3A0007F4F04BF41F40021704730B54FF4607413
:10A3B00001F0004521F000411CE700BF50EA010216
:10A3C00008BF704730B54FF000050AE050EA0102BF
:10A3D00008BF704730B511F0004502D5404261EB2F
:10A3E00041014FF4806404F132045FEA915C3FF470
:10A3F000D8AE4FF003025FEADC0C18BF03325FEA0D
:10A40000DC0C18BF033202EBDC02C2F1200300FABD
:10A4100003FC20FA02F001FA03FE40EA0E0021FAE2
:10A4200002F11444BDE600BF70B54FF0FF0C4CF4D0
:10A43000E06C1CEA11541DBF1CEA135594EA0C0F82
:10A4400095EA0C0F00F0DEF82C4481EA030621EABD
:10A450004C5123EA4C5350EA013518BF52EA0335F8
:10A4600041F4801143F4801338D0A0FB02CE4FF0AA
:10A470000005E1FB02E506F00042E0FB03E54FF0DA
:10A480000006E1FB03569CF0000F18BF4EF0010ED2
:10A49000A4F1FF04B6F5007F64F5407404D25FEACE
:10A4A0004E0E6D4146EB060642EAC62141EA555181
:10A4B0004FEAC52040EA5E504FEACE2EB4F1FD0CC3
:10A4C00088BFBCF5E06F1ED8BEF1004F08BF5FEA41
:10A4D000500E50F1000041EB045170BD06F00046F3
:10A4E00046EA010140EA020081EA0301B4EB5C04A0
:10A4F000C2BFD4EB0C0541EA045170BD41F4801198
:10A500004FF0000E013C00F3AB8014F1360FDEBFBC
:10A51000002001F0004170BDC4F10004203C35DA98
:10A520000C341BDC04F11404C4F1200500FA05F31B
:10A5300020FA04F001FA05F240EA020001F00042BC
:10A5400021F0004110EBD37021FA04F642EB060132
:10A550005EEA430E08BF20EAD37070BDC4F10C045C
:10A56000C4F1200500FA04F320FA05F001FA04F220
:10A5700040EA020001F0004110EBD37041F100010C
:10A580005EEA430E08BF20EAD37070BDC4F1200517
:10A5900000FA05F24EEA020E20FA04F301FA05F27F
:10A5A00043EA020321FA04F001F0004121FA04F227
:10A5B00020EA020000EBD3705EEA430E08BF20EAF7
:10A5C000D37070BD94F0000F0FD101F00046400031
:10A5D00041EB010111F4801F08BF013CF7D041EAB3
:10A5E000060195F0000F18BF704703F000465200B7
:10A5F00043EB030313F4801F08BF013DF7D043EA88
:10A600000603704794EA0C0F0CEA135518BF95EA3D
:10A610000C0F0CD050EA410618BF52EA4306D1D1C4
:10A6200081EA030101F000414FF0000070BD50EAE3
:10A63000410606BF1046194652EA430619D094EA6D
:10A640000C0F02D150EA013613D195EA0C0F05D157
:10A6500052EA03361CBF104619460AD181EA0301AB
:10A6600001F0004141F0FE4141F470014FF0000063
:10A6700070BD41F0FE4141F4780170BD70B54FF0FE
:10A68000FF0C4CF4E06C1CEA11541DBF1CEA13557E
:10A6900094EA0C0F95EA0C0F00F0A7F8A4EB050460
:10A6A00081EA030E52EA03354FEA013100F0888057
:10A6B0004FEA03334FF0805545EA131343EA126320
:10A6C0004FEA022245EA111545EA10654FEA0026D5
:10A6D0000EF000419D4208BF964244F1FD0404F58E
:10A6E000407402D25B084FEA3202B61A65EB0305EA
:10A6F0005B084FEA32024FF480104FF4002CB6EBA7
:10A70000020E75EB030E22BFB61A754640EA0C0026
:10A710005B084FEA3202B6EB020E75EB030E22BF66
:10A72000B61A754640EA5C005B084FEA3202B6EBA7
:10A73000020E75EB030E22BFB61A754640EA9C0066
:10A740005B084FEA3202B6EB020E75EB030E22BF36
:10A75000B61A754640EADC0055EA060E18D04FEAF4
:10A76000051545EA16754FEA06164FEAC30343EA94
:10A7700052734FEAC2025FEA1C1CC0D111F4801F61
:10A780000BD141EA00014FF000004FF0004CB6E75A
:10A7900011F4801F04BF01430020B4F1FD0C88BFF9
:10A7A000BCF5E06F3FF6AFAEB5EB030C04BFB6EB04
:10A7B000020C5FEA500C50F1000041EB045170BDF7
:10A7C0000EF0004E4EEA113114EB5C04C2BFD4EB24
:10A7D0000C0541EA045170BD41F480114FF0000EA8
:10A7E000013C90E645EA060E8DE60CEA135594EA24
:10A7F0000C0F08BF95EA0C0F3FF43BAF94EA0C0F27
:10A800000AD150EA01347FF434AF95EA0C0F7FF49B
:10A8100025AF104619462CE795EA0C0F06D152EAEF
:10A8200003353FF4FDAE1046194622E750EA4106D3
:10A8300018BF52EA43067FF4C5AE50EA41047FF4E4
:10A840000DAF52EA43057FF4EBAE12E74FEA410247
:10A85000B2F1E04324BFB3F5001CDCF1FE5C0DD97E
:10A8600001F0004C4FEAC0024CEA5070B2F1004FC8
:10A8700040EB830008BF20F00100704711F0804FCB
:10A8800021D113F13872BCBF01F00040704741F490
:10A8900080114FEA5252C2F11802C2F1200C10FA94
:10A8A0000CF320FA02F018BF40F001004FEAC12378
:10A8B0004FEAD32303FA0CFC40EA0C0023FA02F31C
:10A8C0004FEA4303CCE77FEA625307D150EA0133F2
:10A8D0001EBF4FF0FE4040F44000704701F00040C2
:10A8E00040F0FE4040F40000704700BF10F8012B1C
:10A8F00011F8013B012A28BF9A42F7D0D01A7047BD
:10A90000034613F8012B002AFBD1181A01387047AF
:10A9100070B503F0BBFE0025054E064CA41BA40831
:10A92000AC4200D170BD56F8043B98470135F7E7BB
:10A93000D0FF3F02F4FF3F0200F0AAB908B500F0D3
:10A94000D7F9BDE8084003F059BE01F01DBF01F082
:10A950001BBF01F027BF00000C2008B5024A0349C5
:10A9600001F0DEFDFEE700BFC9C53F02B0F33F02C4
:10A970000078B0FA80F040097047012303707047F7
:10A980007047436913B183690C301847704713B59A
:10A9900000210446084601F089FA0023204601A957
:10A9A000019301F0ADFA019C0CB101232371002148
:10A9B000012001F07BFA2CB1236820469B68984760
:10A9C0000023237102B010BD012A02D101600020D2
:10A9D0007047022A04BF0B680360F8E70368184752
:10A9E00007B5806830B10023CDE900131A46022173
:10A9F00001F094FA03B05DF804FB30B5054685B06C
:10AA00000C4611460392FFF7EBFFA86830B1002314
:10AA1000039A1946CDE9004301F080FA05B030BD34
:10AA20002DE9F0412DED028B354B364D188803F0A2
:10AA3000DAFE354B2860188803F0D5FEDFF8F88081
:10AA4000324B2A68D8F800401860314B314D43F83A
:10AA5000242004F1500243F822000134A0F50060E4
:10AA6000C8F80040FFF776FC02460B46C5E9002314
:10AA7000FFF7DAFC06460F46274B284DC3E900676F
:10AA80002868FFF779FC32463B46FFF717FBFFF7D4
:10AA9000DDFE502C28602ED10122214B6FF00041A9
:10AAA0001A7000231F48C8F80030FFF799FFDFED48
:10AAB0001E7A95ED000A80EE270A03F0A9FFF2EE58
:10AAC000007A9FED1A8A30EE670AB4EEC80AF1EEFA
:10AAD00010FA54BF10EE100A18EE100AFFF74CFCE3
:10AAE000134BD3E90023FFF79FFCFFF7AFFE85ED83
:10AAF000008A104B1860BDEC028BBDE8F08100BFEE
:10AB0000C8A907104CAE0710C0A9071050AA07101B
:10AB100090AA071060AA071058AD071060AD071083
:10AB200054AD071024AD07100000A0420000000043
:10AB3000B8A9071020AD071040AD071010B50446A6
:10AB4000094B036002F068FB214602F09FFD03F011
:10AB5000C5FC03F0B7FC2046044B40F8043B02F070
:10AB600031FC204610BD00BF5CF43F0244F43F02BC
:10AB700010B50446FFF7E2FF20462421FFF7E9FE67
:10AB8000204610BD10B58368044613B10322014668
:10AB90009847204610BD000038B50F4B04460360AF
:10ABA00083689BB16FF00041FFF71AFF0021A06896
:10ABB00001F0FAF9237903F0FF0513B101F068F908
:10ABC000F8E72946A06801F08DF9A56004F10C00B2
:10ABD000FFF7D8FF204638BD30F43F0210B50446D9
:10ABE000FFF7DAFF20461C21FFF7B3FE204610BD19
:10ABF0000EB44FF0200C002300B58CB00DAA52F813
:10AC0000041BCDE904C3CDE900120392016804AA34
:10AC10001E2001F093FC0CB05DF804EB03B070470C
:10AC200010B503F00DFE2F2101F014FF03F008FE14
:10AC3000036800219B68984703F002FE0368F52132
:10AC40009B68984703F0FCFD01F00BFF052001F025
:10AC5000FDFD03F0F5FD2F21012201F0F4FE03F0CC
:10AC6000EFFD03685B699847044603F0E9FD01F0D6
:10AC7000F8FEE2B2F52A0CBF024903490348FFF788
:10AC8000B7FF10BDC5F33F02DEF33F0274AE0710FD
:10AC900008B5124B0121188803F068FD03F01EFC73
:10ACA0004FF4165103F00AFC0D490E48FFF7A0FFC0
:10ACB00002220D48114601F0ABF80A210A4801F0C2
:10ACC000B4F8052001F0C2FDFFF7AAFFBDE8084077
:10ACD00000226FF000410548FFF78FBEC4A907109E
:10ACE000F5F33F0274AE071054AA071024AD071005
:10ACF00038B5254DD5E88F3F13F0010F234C09D10E
:10AD00002846FFF735FE28B101F078F92060284683
:10AD1000FFF733FE1E4B0021188803F038FD1D4855
:10AD200001F085F84FF47A7001F090FD1A4BDFEDD9
:10AD30001B7A93ED007A67EE277A194D17EE100A09
:10AD4000C5ED007AFFF718FB02460B461548164979
:10AD5000FFF74EFF2868FFF70FFB0B46024613492B
:10AD60001048FFF745FF01F049F92368C01A32285F
:10AD700008D900226FF000410D48FFF73EFE01F0B8
:10AD80003DF9206038BD00BF48AA07104CAA071043
:10AD9000C4A9071054AA071020AD07100000F04204
:10ADA00068AA071074AE07100BF43F021BF43F02B1
:10ADB00024AD071070B51426D0E90053044606FBF5
:10ADC0000356AE4204D0284603F007FA1435F8E7DC
:10ADD000206801F0E7FC204670BD8842F8B50446C3
:10ADE0000D46164616D9904215D2A2F11406751AD0
:10ADF000A1F114072C44B7421CD02CB13146204697
:10AE000003F068FA337C2374304603F0E6F9143E0D
:10AE1000143CF0E70ED0B5420CD02CB129462046A8
:10AE200003F058FA2B7C2374284603F0D6F9143526
:10AE30001434F0E7F8BD00232DE9F041C0E90033F8
:10AE400083604F6804469F420E4624DD4FF014088D
:10AE500008FB07F001F098FC0546E0B1D4E90012C8
:10AE600008FB0212FFF7B9FF206801F09BFC256088
:10AE7000A760D6E9007308FB0378B84509D03946C6
:10AE8000284603F041FA3B7C143505F8043C14379E
:10AE9000F3E7736863602046BDE8F0812DE9F04375
:10AEA000002591B00021012001F08EFBCDE9035572
:10AEB000059503F013FB374F8046B94609AE03A949
:10AEC00006A8FFF7B8FF06A93046FFF7B4FF324BDC
:10AED0000CAC49F8043B31462046FFF7ACFF224654
:10AEE0001E21484602F0B4FC2046FFF763FF3046BF
:10AEF000FFF760FF294B06A83B60C7F82080FFF7EB
:10AF000059FF274B3B6003F0E9FA4FF4165103F069
:10AF1000D5FA02F081F9394602F072FB03A8FFF777
:10AF200049FF2049204803F0A3F91E491F4803F0B8
:10AF30009FF91F4800F04CF81E4B1F4A0C9394E8F1
:10AF400003001E4B86E803001A6003F10C0292E82E
:10AF5000030084E8030096E8030082E80300184A2F
:10AF60001D715A619A699D600F92164A01219A617A
:10AF700003F10800144ACDE900550E9500F0A4FF36
:10AF80002046FFF7FFFD114811B0BDE8F04300F087
:10AF90002BBF00BF6CAA071044F43F0208FD3F021C
:10AFA0005CF43F02D3FC3F0210AD071044AD071024
:10AFB00064AD071009B03F0230F43F0224AD071022
:10AFC000B1AF3F02C5AF3F0277AF3F0254AA0710AF
:10AFD0001FB5044603F034FC154A16490346CDE973
:10AFE00001214FF0FF32402100922046802200F0E4
:10AFF00019FE002310491A4604F1580000F024F805
:10B000001C2300220D4904F17C0000F01DF83823B8
:10B0100000220B4904F1A00000F016F8542300228E
:10B02000084904F1C40000F00FF8204604B010BD38
:10B03000801A0600A0860100B4F43F0244F53F02E6
:10B04000FCF43F026CF43F02C0E90012836040222E
:10B0500018232221C0E903231B23C0E90513112370
:10B06000C361012310B580F8203010BD2DE9F843ED
:10B070001F46DDE90896C368154632449A420446E5
:10B08000884602D90020BDE8F8830178406801F0C5
:10B09000DDFC7EB960682A4603684146DB68984754
:10B0A0008542EFD13946606801F0D7FCB0FA80F0F4
:10B0B0004009E8E7B9F1000FECD060683246036858
:10B0C0004946DB6898478642DCD1E3E708B540682B
:10B0D00001F08CFC012008BD10B50446406810B199
:10B0E00003689B689847204610BD00002DE9F04F8B
:10B0F000044600680D4685B040B100230093134616
:10B100000A4603F057F805B0BDE8F08F237BA0682E
:10B11000002B0CBF4FF0010B4FF0800B0B78444F0E
:10B120001BEA030FB7FBF0F70CBF4FF001094FF01C
:10B1300000098B18FFB20393039BAB42E3D05E463A
:10B140004FF0000895F800A017B1384600F048FF0E
:10B15000637B13F0FD0F41D194F910305A1C0FD0CE
:10B160001AEA060114BF012300234B4508D0636986
:10B17000606A1A6800292CD04FF0010902431A6056
:10B18000A169E36A0A6813430B6017B1384600F0FF
:10B1900027FF94F91130013306D0E3691A68A36AD6
:10B1A0001A4218BF46EA0808A169E36A0A6822EA57
:10B1B00003030B6094F91130013318BF85F8008048
:10B1C000237B002B32D17600F6B2002EBCD10135A4
:10B1D000B2E722EA000289461A60D1E7A169E36A70
:10B1E0000A6813430B6017B1384600F0F9FE94F972
:10B1F0001030013308D06369616A1A681AEA060FD1
:10B2000014BF0A438A431A60A169E36A0A6822EA02
:10B2100003030B6094F911300133CBD0E3691A6852
:10B22000A36A1A4218BF46EA0808C3E77608CCE7C3
:10B2300020A1070007B501228DF807100DF10701C5
:10B24000FFF754FF9DF8070003B05DF804FB0368A7
:10B250001BB14168184602F03FBF7047006808B153
:10B2600002F020BF704790F90E00431C03D0C9B212
:10B2700080B203F08CBA704710B50446FFF7E7FFC1
:10B280002046BDE810400021FFF7EDBF10B5044691
:10B290000121FFF7E8FF2046BDE81040FFF7DEBFC1
:10B2A0002DE9F0411C4606460D461746FFF7E4FF20
:10B2B000069B04EB0308444508D12F44BD420BD044
:10B2C000304615F8011BFFF7B5FFF7E7304614F8D5
:10B2D000011BFFF7AFFFEEE73046FFF7D7FF012076
:10B2E000BDE8F0812DE9F04F1F4685B0BDF93880EB
:10B2F000A7EB010AA8EB0209B9F1000FB8BFC9F129
:10B300000009BAF1000FB8BFCAF1000AD14583465F
:10B310000C461546BDF83C3004DD3A462C464746FF
:10B320000D469046BC4205DD2A46454690462246DB
:10B330003C4617463E1BB2B20092A8EB050282EAD9
:10B34000E271A1EBE271C6F3C03202FA86F645451E
:10B35000B4BF01224FF0FF32019176100292BC423D
:10B360001CDCDBF80020D145D2F81880C7BF294685
:10B3700022462A46214603935846C047019A039B1A
:10B38000B61AB1B236B2002E05DA029A1544009A06
:10B390002DB2561836B2013424B2E0E705B0BDE84C
:10B3A000F08F704710B404682469A4465DF8044B1C
:10B3B000604730B4BDF8085004680295A46BA446F9
:10B3C00030BC604730B4BDF8085004680295E46BA7
:10B3D000A44630BC604770B4BDF90C50BDF8106095
:10B3E0000468CDE90356246CA44670BC60472DE97F
:10B3F000F3411C46164605460F460368013CBDF85E
:10B4000020805B693444984724B22B68CDF80480CF
:10B41000009428469C6A32463B463946A047284657
:10B420002B68DB6A02B0BDE8F04118472DE9F34113
:10B43000174604461D460E460368BDF820805B692A
:10B440009847CDE9007822686B1E33442046956A00
:10B4500031463A461BB2A84720462368DB6A02B051
:10B46000BDE8F04118472DE9F3471E4603680C4636
:10B470005B6905461746BDF92890BDF82C809847B2
:10B480002644B4422B680BDACDF800802146D3F86D
:10B4900020A03A464B4628460134D04724B2F0E774
:10B4A0002846DB6A02B0BDE8F047184713B50191A2
:10B4B000B0F90E1002680091146C0022B0F90C3043
:10B4C0001146A04702B010BD2DE9F7439942164638
:10B4D00080460D461C46BDF92870BDF82C900268C8
:10B4E00012D1BE42C2BF33463E461F46CDF8289019
:10B4F0007B1C946B9B1B324629464046A4461BB2DC
:10B5000003B0BDE8F0436047BE420AD19942C2BFD2
:10B510000B4625461C46CDF82890631C5B1BD46B5C
:10B52000E9E753699847CDE90079D8F800304046FB
:10B530009F6A324623462946B8474046D8F800302D
:10B54000DB6A03B0BDE8F04318472DE9F347044632
:10B550000F4616461D460368BDF82C805B69BDF991
:10B56000289098472368CDF8008032463946204617
:10B57000D3F824A02B46D047236809F1FF32CDF839
:10B580000080324439462046D3F824A012B22B461C
:10B59000D0472368CDF80080324639462046D3F89C
:10B5A00020A04B46D0476B1ED9192368CDF80080E8
:10B5B00020461D6A32464B4609B2A84720462368FA
:10B5C000DB6A02B0BDE8F0471847704701F003039B
:10B5D000B0F90A208376B0F90830C90759BF8381D2
:10B5E000C2818281C381704730B50181002481818D
:10B5F0004FF0FF31054D4281C281054A4460C0E9E8
:10B600000512056004610477046230BD94FA3F02BC
:10B61000010100012DE9F04F2DED028B91B016468E
:10B620001F46026ABDF870308346BDF874809DF8ED
:10B6300078509DF87C4003910493002A40F0C58027
:10B64000B0F90C308B4240F34C81B0F90E30B3426C
:10B6500040F34781062313FB0513002B40F3418180
:10B6600006EBC403002B40F33C81037F1BB9AF2FD3
:10B6700084BF0137FFB2DBF8003058465B6998475A
:10B680000522099200220592984A07EB8703D318F6
:10B690000C93B3B20693059A0C9B02FB05F99B5CD5
:10B6A0000793ABB20B93BDF80C300893039B19FAC8
:10B6B00083F90FFA89F308EE103A08234FF00009D6
:10B6C0000A93039B02EB030A0FFA8AFA079ADBF844
:10B6D0000030D20752D5012D1FFA89F23ED1012C3C
:10B6E0003CD19B6906991F46049B0A445146584623
:10B6F00012B2B84709F101034FFA83F9079B5B08BF
:10B7000007930A9B013B13F0FF030A93DED1059FC9
:10B7100001377BB20593099B013B13F0FF030993AB
:10B72000B9D1049B43450FD0012DDBF800303BD14C
:10B73000012C39D10899CDF8008005311C6A3246B8
:10B740000823584609B2A0475846DBF80030DB6AA8
:10B7500011B0BDEC028BBDE8F04F184714FB02F2AC
:10B7600006990A44049901910094DB6918EE101AB5
:10B770001F4658462B4612B2B847BBE7049A4245CB
:10B78000B8D0012D1FFA89F207D1012C05D19B6990
:10B7900006991F460A444346A8E714FB02F206999D
:10B7A000CDF804800A44DFE70B9AE40002EB820143
:10B7B000089ACDF804800A4411460094DC693246A8
:10B7C0002B46584609B2A047BEE7137A5168FF1AC4
:10B7D0001268FFB20B9231F8372001EBC7030692D3
:10B7E0009A78012D0992DA7893F906A00C9293F9D0
:10B7F00005200A9201D8012C57D9BDF928300893A9
:10B800000FFA8AF307934FF00008C1464746DBF86A
:10B81000003058465B699847B3B20E931AFA86F324
:10B820000F930C9B9F428FD2079B0E9A3B4403FBC6
:10B83000042300221BB208EE103A434605920F9AE9
:10B8400002EB070A0FFA8AFA099A0599914241D246
:10B850005A1CD2B25B070D9207D1069B06990B9A30
:10B8600001339BB212F80190069319F0800F12D0A9
:10B87000012DDBF80030BDF80C101AD1012C18D1C5
:10B880000A9A9B691144059A1E461144584652462D
:10B89000049B09B2B047059E4FEA49090136F3B24D
:10B8A00005935FFA89F90D9BCEE70023CDE90733B5
:10B8B000A9E70598089A024402FB0511049A584624
:10B8C000CDE90042DB6918EE102A1E4609B22B466C
:10B8D000B047E0E7099B013798445FFA88F8FFB268
:10B8E0009FE711B0BDEC028BBDE8F08F8CF53F02F5
:10B8F000F0B5026A04460B4685B0002A34D10A2905
:10B9000008D1438A0282427E03EBC2036382012094
:10B9100005B0F0BD0D29FAD0E17E007E657E71B1E3
:10B920000621B4F9106011FB0061B4F90C60B1425A
:10B93000C1BFB4F91210228201EBC5026282E28A11
:10B94000CDE902050192A28A20460092B4F91010B6
:10B95000B4F91220FFF75EFE237E228A03EB430335
:10B9600002EB43032382D2E70A2907D10023038293
:10B97000417E127B438A01FB0233C7E70D29C6D003
:10B98000157AA942C3D3917A9942C0D351685D1BFD
:10B99000EDB201EBC505A87828B3E97819B3E17ECB
:10B9A000267E677E91B195F905100844B4F9101010
:10B9B00006FB0011B4F90C00814207DD0020208253
:10B9C000B4F91210127B02FB07126282E28A20464F
:10B9D0000192A28ACDE902670092B4F91010B4F97D
:10B9E0001220FFF717FE2979227E238A01FB0233FA
:10B9F000B8E70029F0B566DBB0F90C408C4262DD97
:10BA0000002A60DBB0F90E4094425CDD847E022C9B
:10BA10005AD0032C61D0012C04D1D24304891444A0
:10BA20000A4621B2B0F938408C42A8BF0C460487C0
:10BA3000B0F93A409442A8BF14464487B0F93C405C
:10BA40008C42B8BF0C468487B0F93E409442B8BFE0
:10BA50001446C48790F84C40012C16D1012B42D0DB
:10BA6000022B51D08BB91446002A0589B8BFD41DCA
:10BA7000E41014FB05140125476B02F0070605FAD4
:10BA800006F63D5D25EA06053D5590F84C40042C30
:10BA900019D1048914FB02F202EBD27401EBD172CA
:10BAA00042F34F0202EB6402446BC907A05C4BBF38
:10BAB00003F00F0300F00F0020F00F0040EA031323
:10BAC00048BF0343A354F0BDD2430489013C611A2B
:10BAD000448909B2224412B2A4E74489013C641AA1
:10BAE000114622B29EE71446002A0589B8BFD41D2C
:10BAF000E41014FB05140125466B02F00707BD4056
:10BB0000375D3D433555C0E71446002A0589B8BF67
:10BB1000D41DE41014FB05140125466B02F0070741
:10BB2000BD40375D7D40EDE738B50D461146044612
:10BB30001AB209B2FFF758FD0B4B069A2360002397
:10BB4000E262079AC4E90933C4E90C234FF0FF33DA
:10BB5000C4E910339DF914302046A364049B84F893
:10BB60004C50236538BD00BFECFA3F0238B50C4B92
:10BB700004460360406B18B100F014FE00236363B9
:10BB8000656A35B12846FFF7A7FA38212846FEF73F
:10BB9000E0FEA06A10B11021FEF7DBFE204638BDA2
:10BBA000ECFA3F0230B5856A87B004468DF80F1075
:10BBB0007DB10023CAB2CDE900338DF814308DF881
:10BBC000152001230222284605A9FFF74FFA07B0E6
:10BBD00030BD2946B0F8400002F0D9FD2B460122C5
:10BBE000606A00950DF10F01FFF75AFBEFE700299E
:10BBF00014BFA721A621FFF7D5BF000010B504464A
:10BC0000024B036000F0E6F8204610BD48FB3F02FF
:10BC100010B50446FFF7F2FF20465821FEF799FEC3
:10BC2000204610BD30B5044685B00A9D0295099D99
:10BC300001959DF92050009500F0B2F82046024B86
:10BC4000236005B030BD00BF48FB3F022DE9F04F37
:10BC500089B0044600F01CF940238DF81B30B4F97C
:10BC60000A30B4F93A5094F808A0DA1D94F83880F4
:10BC700048BF03F10E02002DB8BF0735D04528BFDD
:10BC8000D046C2F3C7030393C5F3C705B4F93C30EC
:10BC900005FB0A8B23EAE3730AF1010252FA83F3EC
:10BCA0000493039B9D4271D2049B268994F85420EF
:10BCB0009E1B4244676BA36A4FEA221CA6EB080650
:10BCC000A5F150015F44F6B2C9B20CF1100C02F0BC
:10BCD0000F02002B3AD0D8688DF81D1001381FFADA
:10BCE00080F94FF00000E16A8DF81C0018468DF8CD
:10BCF0001EC08DF81F20FFF7E9F900230422CDE9CB
:10BD00000033A06A012307A9FFF7B0F95FFA89F9A8
:10BD1000A06AA6B10123B1454A4628BF3246019325
:10BD20000DF11B033946009301230592FFF79EF99D
:10BD3000059AB61A1744F6B200F0AAF8E8E7216BA4
:10BD4000FFF7C4F90135EDB2D344AAE7B4F84000D7
:10BD50008DF81C1019468DF81DC08DF81E20059316
:10BD600002F015FD059B0322009307A9606AFFF707
:10BD700097FAB4F84000012102F009FD059B324614
:10BD80003946606A0093FFF78BFADBE74FF0042235
:10BD90004FF0FF33C4E90E2309B0BDE8F08F000077
:10BDA00030B5044685B00A9D0395099D02959DF91D
:10BDB0002050CDE9003513460A460121FFF7B4FEB5
:10BDC000034B20462360002384F8543005B030BD77
:10BDD000A4FB3F0210B50446024B0360FFF7C6FE0A
:10BDE000204610BDA4FB3F0200210A22C0E9001238
:10BDF0007047002310B50446C171837188B202F008
:10BE0000DFFC08B10323A37100F0F8F8206010BD37
:10BE100038B50C4605461146A0B202F0A7FC2146F3
:10BE20002846BDE83840FFF7E4BF8180704738B549
:10BE30000446C07902F0C4FC003818BF0120A5797F
:10BE400025F00803C5F340058542A3710AD000F030
:10BE5000D5F8A379206083F00203A371A079C0F321
:10BE6000C00038BD00F0CAF82368C01AA388984201
:10BE7000F4D3A37903F00103AB42EFD000F0BEF896
:10BE8000A379206083F0010343F00803E5E7000095
:10BE900009B504480068044B03441B68DB6802933F
:10BEA00009BD0000B0A907103000000009B5044822
:10BEB0000068044B03441B68DB69029309BD000062
:10BEC000B0A907103000000009B504480068044B11
:10BED00003441B681B6A029309BD0000B0A9071048
:10BEE0003000000009B504480068044B03441B6897
:10BEF0005B6A029309BD0000B0A907103000000082
:10BF000009B504480068044B03441B689B6A02930C
:10BF100009BD0000B0A907103000000009B50448B1
:10BF20000068044B03441B68DB6A029309BD0000F0
:10BF3000B0A907103000000009B504480068044BA0
:10BF400003441B685B6C029309BD0000B0A9071095
:10BF50003000000009B504480068044B03441B6826
:10BF60009B6C029309BD0000B0A9071030000000CF
:10BF700009B504480068044B03441B68DB6C02935A
:10BF800009BD0000B0A907103000000009B5044841
:10BF90000068044B03441B685B6D029309BD0000FD
:10BFA000B0A907103000000009B504480068044B30
:10BFB00003441B681B6F029309BD0000B0A9071062
:10BFC0003000000009B504480068044B03441B68B6
:10BFD0005B68029309BD0000B0A9071000000000D3
:10BFE00009B504480068044B03441B68DB680293EE
:10BFF00009BD0000B0A907100000000009B5044801
:10C000000068044B03441B685B69029309BD000090
:10C01000B0A907100000000009B504480068044BEF
:10C0200003441B685B68029309BD0000B0A90710B8
:10C030001400000009B504480068044B03441B6861
:10C040009B68029309BD0000B0A90710140000000E
:10C0500009B504480068044B03441B68DB6802937D
:10C0600009BD0000B0A907101400000009B504487C
:10C070000068044B03441B681B69029309BD000060
:10C08000B0A907101400000009B504480068044B6B
:10C0900003441B685B69029309BD0000B0A9071047
:10C0A0001400000009B504480068044B03441B68F1
:10C0B0001B6B029309BD0000B0A90710140000001B
:10C0C00009B504480068044B03441B681B680293CD
:10C0D00009BD0000B0A907101000000009B5044810
:10C0E0000068044B03441B689B69029309BD000070
:10C0F000B0A907101000000009B504480068044BFF
:10C1000003441B68DB69029309BD0000B0A9071056
:10C110001000000009B504480068044B03441B6884
:10C120001B6A029309BD0000B0A9071010000000AF
:10C1300009B504480068044B03441B685B6A02931A
:10C1400009BD0000B0A907101000000009B504489F
:10C150000068044B03441B689B6A029309BD0000FE
:10C16000B0A907101000000009B504480068044B8E
:10C1700003441B68DB6A029309BD0000B0A90710E5
:10C180001000000009B504480068044B03441B6814
:10C190001B6B029309BD0000B0A90710100000003E
:10C1A00009B504480068044B03441B685B6B0293A9
:10C1B00009BD0000B0A907101000000009B504482F
:10C1C0000068044B03441B681B6C029309BD00000C
:10C1D000B0A907101000000009B504480068044B1E
:10C1E00003441B681B6D029309BD0000B0A9071032
:10C1F0001000000009B504480068044B03441B68A4
:10C200005B69029309BD0000B0A907104C00000053
:10C2100009B504480068044B03441B689B680293FB
:10C2200009BD0000B0A907105000000009B504487E
:10C230000068044B03441B68DB68029309BD0000DF
:10C24000B0A907105000000009B504480068044B6D
:10C2500003441B68DB69029309BD0000B0A9071005
:10C260001800000009B504480068044B03441B682B
:10C270001B6A029309BD0000B0A907101800000056
:10C2800009B504480068044B03441B685B6A0293C9
:10C2900009BD0000B0A907101800000009B5044846
:10C2A0000068044B03441B689B6A029309BD0000AD
:10C2B000B0A907101800000009B504480068044B35
:10C2C00003441B689B6B029309BD0000B0A90710D3
:10C2D0001800000009B504480068044B03441B68BB
:10C2E000DB6B029309BD0000B0A907101800000025
:10C2F00009B504480068044B03441B681B6C029397
:10C3000009BD0000B0A907101800000009B50448D5
:10C310000068044B03441B685B6C029309BD00007A
:10C32000B0A907101800000009B504480068044BC4
:10C3300003441B689B68029309BD0000B0A9071065
:10C340002400000009B504480068044B03441B683E
:10C35000DB68029309BD0000B0A9071024000000AB
:10C3600009B504480068044B03441B681B69029329
:10C3700009BD0000B0A907102400000009B5044859
:10C380000068044B03441B685B69029309BD00000D
:10C39000B0A907102400000009B504480068044B48
:10C3A00003441B689B69029309BD0000B0A90710F4
:10C3B0002400000009B504480068044B03441B68CE
:10C3C000DB69029309BD0000B0A90710240000003A
:10C3D00009B504480068044B03441B681B6A0293B8
:10C3E00009BD0000B0A907102400000009B50448E9
:10C3F0000068044B03441B689B6A029309BD00005C
:10C40000B0A907102400000009B504480068044BD7
:10C4100003441B68DB6A029309BD0000B0A9071042
:10C420002400000009B504480068044B03441B685D
:10C430001B6C029309BD0000B0A907102400000086
:10C4400009B504480068044B03441B681B68029349
:10C4500009BD0000B0A907103400000009B5044868
:10C460000068044B03441B685B68029309BD00002D
:10C47000B0A907103400000009B504480068044B57
:10C4800003441B689B68029309BD0000B0A9071014
:10C490003400000009B504480068044B03441B68DD
:10C4A0001B69029309BD0000B0A907103400000009
:10C4B00009B504480068044B03441B685B69029398
:10C4C00009BD0000B0A907103400000009B50448F8
:10C4D0000068044B03441B689B69029309BD00007C
:10C4E000B0A907103400000009B504480068044BE7
:10C4F00003441B68DB69029309BD0000B0A9071063
:10C500003400000009B504480068044B03441B686C
:10C510001B6A029309BD0000B0A907103400000097
:10C5200009B504480068044B03441B685B6B029325
:10C5300009BD0000B0A907104800000009B5044873
:10C540000068044B03441B685B6D029309BD000047
:10C55000B0A907104800000009B504480068044B62
:10C5600003441B68DB6E029309BD0000B0A90710ED
:10C570004800000009B504480068044B03441B68E8
:10C580001B6F029309BD0000B0A90710480000000E
:10C5900009B504480068044B03441B685B680293B8
:10C5A00009BD0000B0A907100800000009B5044843
:10C5B0000068044B03441B685B69029309BD0000DB
:10C5C000B0A907100800000009B504480068044B32
:10C5D00003441B68DB6A029309BD0000B0A9071081
:10C5E0000800000009B504480068044B03441B68B8
:10C5F000D3F88830029309BDB0A9071008000000E5
:10C6000009B504480068044B03441B68D3F8943010
:10C61000029309BDB0A907100800000009B504483D
:10C620000068044B03441B68DB6B029309BD0000E8
:10C63000B0A907102C00000009B504480068044B9D
:10C6400003441B685B68029309BD0000B0A9071092
:10C650002800000009B504480068044B03441B6827
:10C660009B68029309BD0000B0A9071028000000D4
:10C6700009B504480068044B03441B68DB68029357
:10C6800009BD0000B0A907102800000009B5044842
:10C690000068044B03441B681B69029309BD00003A
:10C6A000B0A907102800000009B504480068044B31
:10C6B00003441B685B69029309BD0000B0A9071021
:10C6C0002800000009B504480068044B03441B68B7
:10C6D0009B69029309BD0000B0A907102800000063
:10C6E00009B504480068044B03441B68DB690293E6
:10C6F00009BD0000B0A907102800000009B50448D2
:10C700000068044B03441B681B6A029309BD0000C8
:10C71000B0A907102800000009B504480068044BC0
:10C7200003441B681B6B029309BD0000B0A90710EE
:10C730002800000009B504480068044B03441B6846
:10C740005B6B029309BD0000B0A907102800000030
:10C7500009B504480068044B03441B681B6C029332
:10C7600009BD0000B0A907102800000009B5044861
:10C770000068044B03441B685B6C029309BD000016
:10C78000B0A907102800000009B504480068044B50
:10C7900003441B681B68029309BD0000B0A9071081
:10C7A0000400000009B504480068044B03441B68FA
:10C7B0005B68029309BD0000B0A9071004000000E7
:10C7C00009B504480068044B03441B689B68029346
:10C7D00009BD0000B0A907100400000009B5044815
:10C7E0000068044B03441B685B6A029309BD0000A8
:10C7F000B0A907100400000009B504480068044B04
:10C8000003441B68DB6B029309BD0000B0A907104D
:10C810000400000009B504480068044B03441B6889
:10C820001B6C029309BD0000B0A9071004000000B2
:10C8300009B504480068044B03441B685B6C029311
:10C8400009BD0000B0A90710040000000021FFF797
:10C85000ADBE38B5046805467CB16368013B6360D2
:10C860005BB9236820469B689847A368013BA36097
:10C870001BB923682046DB689847284638BD10B5A9
:10C8800043680446013B436063B903689B6898476B
:10C89000A368013BA3602BB923682046BDE8104084
:10C8A000DB68184710BD70B50446D0E9005305EBAE
:10C8B0000316AE4204D0284601F08FFC1035F8E78D
:10C8C0002068FFF76FFF204670BD0000002302487C
:10C8D0000360FFF731BB00BF5CAE07100022406869
:10C8E0001146FFF70BBF002240681146FFF722BF39
:10C8F00000224068FFF710BF0022406881F001016C
:10C90000FFF7EEBE002340681A461946FFF7DABE6D
:10C91000002340681A461946FFF7C6BE0022406849
:10C920001146FFF7B3BE002240681146FFF792BEE2
:10C93000002202214068FFF79BBE002340681A4690
:10C94000FFF77ABE0322024B5A60024A1A60704710
:10C9500060AE071000FC3F027047F8B5064615466A
:10C960000C468F18BC4206D0336830469B6814F8DA
:10C97000011B9847F6E72846F8BD0022007CFFF728
:10C98000C9BB0021007CFFF7D3BB0021007CFFF76F
:10C99000DDBB0021007CFFF7E7BB0021007CFFF737
:10C9A000F1BB10B504461421FDF7D3FF204610BD9E
:10C9B00038B5044615464FF47A730022C4E90123C2
:10C9C000094B0846217423602946FFF7F7FBBF3067
:10C9D00008D16B69DB0705D56868FFF7E3FEE868F7
:10C9E000FFF7E0FE204638BD3CFC3F020022007C01
:10C9F000FFF766BB7FB500221423CDE90122ADF815
:10CA000004300B78007C8DF808304B680393CB68BA
:10CA100004930B7A01A90593FFF7DEFB07B05DF8DD
:10CA200004FB1FB5003B8DF800104FF0640118BFE8
:10CA300001230391694601928DF80830FFF7DAFF70
:10CA400005B05DF804FB0123FFF7EBBF0022007C7B
:10CA5000FFF744BBC9B2FFF7F9BF0022007CFFF724
:10CA60004BBB0121FFF7F9BF704710B504461821F1
:10CA7000FDF76FFF204610BDF0B5037D0E46062B77
:10CA80004FF000048DB000F1040712D000F108054A
:10CA900015F8011D0A22304601F0CFFAAF420444D6
:10CAA00019D0002CF4D02E21304601F0C3FA0444F2
:10CAB000EEE72F236A4639460A208DF80040FFF73B
:10CAC00099FB6846FDF71CFF33680246694630460D
:10CAD000DB689847044620460DB0F0BD10B504460B
:10CAE000044B1122002140F8043B01F0F2FF2046E4
:10CAF00010BD00BF64FC3F020346074A10B543F86F
:10CB0000042B01F1100251F8044B914243F8044BFD
:10CB1000F9D10A781A7010BD64FC3F0210B59DF877
:10CB2000084044EA032343EA0242042342EA016143
:10CB30004160037510BD000007B5064B0360CB785C
:10CB400000938B784A780978FFF7E8FF03B05DF827
:10CB500004FB00BF64FC3F02012200F1100313F844
:10CB6000101C1846012908D153F8041C02EB41029D
:10CB7000013A03F11003F2D17047022904BF53F8C0
:10CB8000041C5218F4E70EB4F0B588B0102100AFC1
:10CB900007F1340555F8042B04462B4678187A60C3
:10CBA000FD60FFF71BFE0F287A681AD900F1080311
:10CBB00023F007036E46ADEB030D411C2B46684680
:10CBC000FD60FFF70BFE021E04DD23686946204668
:10CBD0009B689847B5462037BD46BDE8F04003B096
:10CBE00070470028F7D0236802469B68204607F16B
:10CBF00010019847EFE738B50B68044603604D68AD
:10CC000043689D4208D015B16B6801336B60606862
:10CC100008B1FFF734FE656038BD07B503688DF8CD
:10CC2000071001229B680DF10701984703B05DF8DA
:10CC300004FB0B461146002210B50446C0E9002251
:10CC400083600BB9204610BDFFF7D5FFFAE7836874
:10CC5000EBB11A78032A1AD8DFE802F00417021B96
:10CC60000520704702685B685268D05C2D2812D09E
:10CC7000A0F13003092B0ED974280ED066280CD0F1
:10CC8000A0F16E03584258417047062070470020BB
:10CC9000704704207047032070470220704710B58A
:10CCA0000446FFF7D4FF02280ED0C31EDBB2012BCF
:10CCB00014D82268A36850685B680A22BDE8104057
:10CCC0000021184402F006B82268A36852685B6825
:10CCD000D05CA0F174035842584110BD0020FCE71D
:10CCE00038B500230446C0E900330E48C4E9020306
:10CCF000A9B10B78032B06D08BB9136858684B6821
:10CD0000C35C6E2B07D013684D6858688B68284445
:10CD10005B1BA060E36011462046FFF76CFF2046D6
:10CD200038BD00BFD3FC3F0238B500250B46044692
:10CD30001146C0E90055C0E90255C0E904554BB1A0
:10CD40001A78012A06D103F11002DB688260436180
:10CD5000FFF751FF204638BD10B54369044663B163
:10CD60008068013BE0601030A0602061636113B116
:10CD7000FFF7F2FEA060012000E0184610BD10B5DC
:10CD80007D210446FFF749FF01232046237110BD92
:10CD900008B50379012B02D0022B04D008BD2C2149
:10CDA000FFF73BFFFAE73A21FAE710B50446FFF731
:10CDB000EFFF20467B21FFF730FF00232046237141
:10CDC00010BD000013B504460191FFF7E1FF236891
:10CDD0002046DB68019A03499847012320462371C6
:10CDE00002B010BDDBF33F0213B504460191FFF71B
:10CDF000CFFF23682046DB68019A03499847012347
:10CE00002046237102B010BD70FC3F022DE9F047AF
:10CE10000D469046222104462F46FFF7FEFEDFF81E
:10CE2000A490A8444745BA463DD017F8016B222E7E
:10CE300006D05C2E04D0304601F01CFE0028F1D153
:10CE40002368294620469B68AAEB050298475C2187
:10CE50002046FFF7E2FE0D2E0AD8072E1CD9A6F1B8
:10CE60000803052B18D8DFE803F00D0F1117131571
:10CE7000222E01D05C2E0FD131462046FFF7CDFE89
:10CE80003D46CFE76221F8E77421F6E76E21F4E72B
:10CE90006621F2E77221F0E72368324649462046D0
:10CEA000DB689847ECE7BD4205D023682946204659
:10CEB0009B687A1B984722212046FFF7AEFEBDE80B
:10CEC000F08700BF73FC3F0213B50446CDE9002193
:10CED000FFF75EFFDDE900212046FFF797FF022301
:10CEE0002046237102B010BD13B50446CDE90021E0
:10CEF000FFF74EFFDDE900212046FFF787FF012302
:10CF00002046237102B010BD80680368DB681847B3
:10CF10007047084611B10B685B6818477047704747
:10CF200070477047704738B504460D4600682E219B
:10CF300001F013FE2368C31A2B6023B1037803B1F9
:10CF4000013023682060184638BD10B504460C2116
:10CF5000FDF7FFFC204610BD10B504460421FDF787
:10CF6000F8FC204610BD10B504460421FDF7F1FC85
:10CF7000204610BDFEF7FCBF08B5FDF7B7FCB0FAC0
:10CF800080F0400908BD704710B50C4601F0A6FAC4
:10CF9000844205D101F0A2FABDE8104001F092BA36
:10CFA00001F0A2FC844205D101F09EFCBDE81040D6
:10CFB00001F02BBA2CB123682046BDE810405B6815
:10CFC000184710BD0B6803604B68436013B15A6883
:10CFD00001325A60704713B5044608460191FDF7C7
:10CFE0008FFC02462046019902B0BDE81040FFF7D1
:10CFF0007BBF13B5044608460191FDF781FC02464C
:10D00000204623680199DB6802B0BDE8104018474C
:10D0100007B503688DF807100122DB680DF10701E1
:10D02000984703B05DF804FB0A6810B502604A68CF
:10D0300042600022C0E9022202618C688A6084603A
:10D04000CC68CA60C4600C690A61046110BD00004C
:10D050002DE9F74F4FF0140AD0E9008417464546F2
:10D060000AFB04F40093174BA4105C43002C21DD51
:10D0700066100AFB06F005EB0009B9F804B03A4661
:10D080005F4528BF5A462858019101F078FD0028D5
:10D090004FF0010301990BD15F4503D1009A137042
:10D0A0003446E3E7FCD9A61B09F11405013EF7E776
:10D0B000F9DBF5E7A5EB08050248AD10684303B0BE
:10D0C000BDE8F08FCDCCCCCC7FB50369057E019156
:10D0D00003B3F9B1002600F10C04039603A901A8DB
:10D0E000FFF721FF0146A8B10DF10B032046039A7B
:10D0F0008DF80B60FFF7ACFF9DF80B3053B1236840
:10D10000142404FB0034B4F906300834002BA8BF03
:10D11000DDB2E3E7284604B070BD0EB4F0B58CB0C4
:10D1200000AF07F1440555F8042B04462B46202197
:10D1300007F110007A60FD60FFF750FB1F287A6846
:10D140001AD900F1080323F007036E46ADEB030D77
:10D15000411C2B466846FD60FFF740FB021E04DDC4
:10D16000236869462046DB689847B5463037BD4698
:10D17000BDE8F04003B070470028F7D023680246AE
:10D18000DB68204607F110019847EFE710B5084C1F
:10D19000D4E88F3FDB0709D42046FDF7E9FB28B12F
:10D1A0002046FDF7EAFB034801F05EFC024810BD93
:10D1B0006CAE071007D53F02CCA9071010B5084C7C
:10D1C000D4E88F3FDB0709D42046FDF7D1FB28B117
:10D1D0002046FDF7D2FB034801F046FC024810BD93
:10D1E00070AE07106FD53F02D0A9071038B50025E3
:10D1F0000446C0E90055C0E904558560856140F8E2
:10D20000245FFEF799FEFFF7C1FFE061FFF7D6FF4D
:10D2100025732062204638BD10B50A4CD4E88F3FF4
:10D22000DB070CD42046FDF7A3FB40B10648FFF70F
:10D23000DDFF2046FDF7A1FB044801F015FC024884
:10D2400010BD00BF68AE071078AE071051DD3F0279
:10D250000023024A02490348FFF78CB939DB3F0239
:10D26000C5DA3F0245DA3F0200231A46194618463E
:10D27000FFF780B937B504468D686846FFF7A2FE10
:10D280006A4629462046FFF74FFD01A8FFF7E1FA5D
:10D29000204603B030BD37B50446CD686846FFF779
:10D2A00091FE6A4629462046FFF71AFD01A8FFF7BE
:10D2B000D0FA204603B030BD37B504460D69684644
:10D2C000FFF780FE6A4629462046FFF7B2FC01A818
:10D2D000FFF7BFFA204603B030BD000070B58AB03A
:10D2E0000D46014604A8FFF7C5FF144E04A8FFF73A
:10D2F00033FDE8B1684604A9FFF7CDFF3146029837
:10D30000FFF73AFE044610B12C1E18BF012401A8F5
:10D31000FFF79FFA002CE9D0684604A9FFF7CCFF7D
:10D320006846FFF7BCFC286001A8FFF792FADDE72A
:10D3300005A8FFF78EFA0AB070BD00BF79FC3F0266
:10D3400037B50C46134920461546FDF7CFFA50B9BC
:10D3500001F0C4F84FF4165101F0B0F803B0BDE885
:10D36000304001F0BBB820460B49FDF7BFFA78B951
:10D370004FF4165301A928460193FFF7AFFF01F0C0
:10D38000B3FA019901F03EF801F0AEFA03B030BDF6
:10D390000020FBE77EFC3F0285FC3F0270B51426AF
:10D3A000D0E90053044606FB0356AE4205D005F112
:10D3B0000800FFF7F3FF1435F7E72068FFF7F2F9ED
:10D3C000204670BD10B504460C30FFF7E7FF20463D
:10D3D000FFF769FA204610BD10B50446034B40F82C
:10D3E000043BFFF7EFFF204610BD00BF44F43F02AF
:10D3F00010B50446FFF7F0FF20462421FDF7A9FAF7
:10D40000204610BD10B50446024B0360FFF7E4FF51
:10D41000204610BD20FD3F0210B50446FFF7F2FF85
:10D4200020462421FDF795FA204610BD0022C0E9D0
:10D430000022826010B50C680A6004604C684A6083
:10D4400044608C688A60846010BD10B5044603682F
:10D450001868FEF79BFD204610BD00002DE9F04F37
:10D4600087B003931C4B80465B688946C3F308036F
:10D4700016466BB9FFF7D0FE044600F12403406A5C
:10D480000593FFF777FD237B2BB105A8FFF7DDFFA1
:10D4900007B0BDE8F08F01235FFA89F92373D4E95F
:10D4A000005305EB830AAA4512D055F8047B314698
:10D4B000381DFFF709FE8145F5D3039A3B680092BA
:10D4C000D3F808B04A46334641463846D847EAE7DB
:10D4D00000232373D9E700BF00ED00E02DE9F74FEB
:10D4E0009B461A4B80465B688946C3F30803164681
:10D4F0006BB9FFF791FE044600F12403406A0193E3
:10D50000FFF738FD237B2BB101A8FFF79EFF03B087
:10D51000BDE8F08F0123F6B22373D4E9005305EB85
:10D52000830A55450ED055F8047B5946381DFFF740
:10D53000CBFD8642F5D33B684A4641463846DB6818
:10D540009847EEE700232373DEE700BF00ED00E01D
:10D550002DE9F341164B05465B680F46C3F30803FC
:10D560001BBBFFF759FE044600F12403406A0193F8
:10D57000FFF700FDD4E90063462406EB8308B045BD
:10D5800009D101A8FFF761FFA542B4BF0020012027
:10D5900002B0BDE8F08156F8040B39460430FFF7BD
:10D5A00093FD8442A8BF0446E9E70020F0E700BFEE
:10D5B00000ED00E0F8B5D0E901539D4204460E4667
:10D5C0000DDB6F1C002F006804DDB900FFF7F8F8D1
:10D5D00018B9F8BDFFF7E6F800202060A7602768BB
:10D5E000626807EB85019200A2EB8502081D01F03D
:10D5F00056FA47F825606368012001336360E8E765
:10D6000037B5044600F12403406A01930D46FFF745
:10D61000B1FCD4E9003203EB8202934219460AD0EE
:10D6200009680433A942F8D101A8FFF70EFF0025CD
:10D63000284603B030BD29462046FFF7BBFF05460C
:10D640000028F1D06368012B01D1FFF701FE01A88A
:10D65000FFF7FBFEECE70B4670B50446D0E900028D
:10D6600000EB820282420FD001461D6851F8046B24
:10D67000AE4207D1521A01F012FA01206368013B51
:10D68000636070BD0846EDE70020FAE71FB5044669
:10D6900000F12403406A01910393FFF76BFC2046DD
:10D6A00001A9FFF7D8FF18B163680BB9FFF7DCFDDC
:10D6B00003A8FFF7CAFE04B010BD182370B50446D6
:10D6C000D0E9045603FB0656AE4215D0204605F1BC
:10D6D0001001FFF7C0FF63680BB9FFF7C5FDE069F4
:10D6E00029690368DB689847696919B1206A03688A
:10D6F000DB6898471835E7E71826D4E9045306FB9A
:10D700000356AE4204D0284600F067FD1835F8E70E
:10D710000023636170BD73B50446FFF7A5FD04F1F6
:10D720002403606A0193FFF725FC2046FFF7C5FF3D
:10D7300001A8FFF78AFE606A08B1FEF70BFCD4E986
:10D740000453182606FB0356AE4204D0284600F0C8
:10D7500044FD1835F8E72069FFF724F82068FFF743
:10D7600021F8204602B070BD0148FFF7D4BF00BFCA
:10D7700078AE07108842F8B504460D46164615D90E
:10D78000904214D2A2F11406751AA1F114072C4488
:10D79000B7421AD01CB131462046FFF745FC06F1CE
:10D7A0000800FFF7FBFD143E143CF1E70DD0B54235
:10D7B0000BD01CB129462046FFF736FC05F10800C6
:10D7C000FFF7ECFD14351434F1E7F8BD8842F8B5E5
:10D7D00004460D46164614D9904213D2A2F1100603
:10D7E000751AA1F110072C44B74218D01CB131466C
:10D7F000204600F06FFD304600F0EFFC103E103C7C
:10D80000F2E70CD0B5420AD01CB12946204600F000
:10D8100061FD284600F0E1FC10351034F2E7F8BD58
:10D8200070B50E1E054611DD3001FEF7ADFF044652
:10D8300058B1D5E9001201EB0212FFF7C7FF2868C3
:10D84000FEF7B0FF01202C60AE6070BD0024F6E74B
:10D850002DE9F04F90460023462295B00391D8F869
:10D86000041004469942C0E90033C0E90233C0E91C
:10D870000433CDE9083302760A9323DCD8E9005754
:10D88000142303FB0757AF423BD029460BA800F0F7
:10D8900021FD0BA90FA8099E00F01CFDDDE909136D
:10D8A00099421BDA089B099A03EB0616314603EBF3
:10D8B000021206F11000FFF789FFEEB9099B013350
:10D8C000099311E008A8FFF7ABFF0028D6D108A8FC
:10D8D000FEF7E9FF204615B0BDE8F08F013108A83A
:10D8E000FFF79EFF0028DDD10FA800F076FC0BA803
:10D8F00000F073FC1435C6E730460FA900F0EAFCCF
:10D90000DCE700264FF01409CDE90B660D96DDE942
:10D9100008239E427CDA3301D35806930BB90136B3
:10D92000F5E70023079309FB06F30BAD029307A964
:10D9300006A8FFF7F8FA82460028F0D04FF000035F
:10D9400001468DF817302846079A0DF11703FFF7A7
:10D950007FFB9DF817700190002F4AD1BDF81C3055
:10D96000CDE91177ADF840304FF6FF73CDF83CA00C
:10D97000ADF842301397D5E90132934217DB03F13A
:10D98000010ABAF1000F30DD09FB0AF0FEF7FCFED8
:10D99000834660B3D5E9001209FB0212FFF7EAFEE5
:10D9A0002868FEF7FFFEC5F800B0C5F808A02B6890
:10D9B000019A09FB023A6A68514609FB02320AF1F0
:10D9C0001400FFF7D7FEBAF1000F03D050460FA99D
:10D9D000FFF72AFB6B6801336B6011A8FFF7DEFCD1
:10D9E0003FB10BA8FFF7DAFC71E7BB46D8E7012788
:10D9F000F3E7019B2D6809FB0355069B1B782BB9A8
:10DA0000D8F80030029A13441B7CEB8008358EE76F
:10DA10002168226062686360A36809920A9A0A9387
:10DA2000E368A2600B9A0B932369E2600C9A0C9353
:10DA3000636922610D9A0D93039B089162612376BD
:10DA4000CFE70000F0B504462646174687B00D46DE
:10DA500068461946FDF7EFF90B4B694646F8043B5B
:10DA600003A8FDF7E8F9394603AA3046FFF7F0FEB0
:10DA700003A8FDF79FF96846FDF79CF92046034B84
:10DA80002562236007B0F0BD44F43F0208FD3F0269
:10DA9000F0B50F4685B038461C4916461D460A9C0F
:10DAA000FCF724FFC0B9A4B1294601A8FFF7BEFCCA
:10DAB0002420174900F0A8FF054630B101AB3246DB
:10DAC0002146FFF7BFFF134B2B6001A8FDF772F94A
:10DAD0002C46204605B0F0BD38460F49FCF706FF3E
:10DAE00090B9002CF5D0294601A8FFF79FFC24200F
:10DAF000074900F089FF05460028E6D03246214656
:10DB000001ABFFF79FFFE0E70024E2E78DFC3F0257
:10DB10005CFE3F0220FD3F0291FC3F02014B024AA6
:10DB20001A60704774AE0710A2FC3F022DE9F0475F
:10DB3000089DD0F8209004460E461746984600F0FF
:10DB4000CDFC81454DD02B79190704D520466A6953
:10DB50005449FFF7E2FAB8F1000F0DD05B212046DF
:10DB6000FFF756FA41462046FFF743FA23680222A0
:10DB70002046DB684C4998472B79DA0724D5D5F83D
:10DB800008802F21404601F00EF808B100F101088D
:10DB900041462046FFF72DFA2B799B0708D53A21FD
:10DBA0002046FFF735FA2046EA684049FFF7B5FA04
:10DBB0002A79236812F0040F20464FF00202DB6836
:10DBC00014BF3B493B4998472B7958071DD5296914
:10DBD0000B461A4613F8010B60B1202808D11946EC
:10DBE000F7E7354800F083F90028ACD0BDE8F087AE
:10DBF0002828EED12368521A2046DB68984723680C
:10DC000004222046DB682D49984700213846FEF75C
:10DC1000A3FC01462046FFF7ECF9236802222046C8
:10DC2000DB68244998471EB131462046FFF7E1F9E9
:10DC30002B7913F0300F2CD023682149DB680222A6
:10DC4000204698472B79D9060AD523680722204613
:10DC50001C49DB6898472046AA691B49FFF75DFA13
:10DC60002B799A0611D5DB0605D5236802222046BA
:10DC7000DB680F4998472368204614490A22DB686D
:10DC800098472046E969FFF7B4F95D212046FFF780
:10DC9000BFF923682046BDE8F0470222DB680C4943
:10DCA000184700BFA6FC3F02ADFC3F02DBF33F027A
:10DCB000B0FC3F02B5FC3F02A0AE0710B3FC3F0230
:10DCC000B8FC3F02BBFC3F02C3FC3F02C6FC3F0264
:10DCD000D1FC3F022DE9F0410446076A0D46164685
:10DCE00000F0FCFB874207D0206A324603682946D1
:10DCF000BDE8F041DB681847034800F0F8F8002859
:10DD0000F2D0BDE8F08100BFA0AE07102DE9F043CE
:10DD100085B0D0F8209005460F4690461E460C9CD4
:10DD200000F0DCFB814505D1494800F0E0F800280F
:10DD300040F08A804FF000092B6A464A01A8019200
:10DD400003938DF80890FFF730F849464046FEF7F8
:10DD500003FC80464049012201A8FFF7B5F841467F
:10DD6000FFF739F93FB13D49012201A8FFF7ACF8AF
:10DD70003946FFF730F93EB13949012201A8FFF7D2
:10DD8000A3F83146FFF727F92379DF070ED5A668F8
:10DD90002F21304600F007FF00B1461C3149012217
:10DDA00001A8FFF791F83146FFF715F923799E078F
:10DDB00007D52D49022201A8FFF786F8E168FFF791
:10DDC00001F82379580714D5266933461F4613F8FE
:10DDD000012B2AB1202A01D11E46F7E7282AF5D1C6
:10DDE0000222224901A8FFF76FF83146BA1BFFF75C
:10DDF0007BF82379190707D51D49012201A8FFF7F0
:10DE000063F86169FEF7F0FF2379DA0608D504228A
:10DE100018490DEB0200FFF757F8A169FEF7D2FF92
:10DE200023799B0607D51449062201A8FFF74CF871
:10DE3000E169FFF7D0F801A8FEF7A1FF286A0222E6
:10DE400003680E49DB68984705B0BDE8F08300BF62
:10DE5000A0AE0710F0FC3F0283FC3F02D4FC3F025F
:10DE6000CBFE3F0223F43F02D6FC3F02D9FC3F0227
:10DE700009F43F02DCFC3F02E1FC3F02D1FC3F021F
:10DE8000002340681A46FEF7D7BB002202214068F3
:10DE9000FEF7EEBB002240681146FEF7DBBB002216
:10DEA00040681146FEF7F2BB002340681A46194647
:10DEB000FEF7FABB002340681A461946FEF702BC7B
:10DEC00000214068FEF744BC00214068FEF74EBCCC
:10DED0000022406881F00101FEF702BC0022406888
:10DEE000FEF71ABC002240681146FEF723BC002250
:10DEF00040681146FEF702BC2DE9F04395B0144688
:10DF00000D460746FEF7EAFD00211C220DA80091F0
:10DF100000F0DFFD402320460C9300216B460CAA45
:10DF2000FEF784F9044600284BD1024601216868B7
:10DF3000FEF7ACFB0221804622466868FEF7A6FB8E
:10DF400021468146009E002E3BD0002939D17368BE
:10DF5000022B03D00A2B11D0F669F4E7B8F1000FB9
:10DF6000FAD0716906A804313C1D07ADFEF7E4FD47
:10DF70000FCD0FC42B6841462370EDE7B9F1000FB8
:10DF8000EAD0102201A8746900F0A3FD062301ADB8
:10DF90008DF8143004F1080318342A4618685968BB
:10DFA000083303C2A3421546F7D101A906A83C1DB8
:10DFB00007ADFEF7A1FD0FCD0FC42B6849462370B6
:10DFC000CAE70098FEF724F9384615B0BDE8F0839B
:10DFD000024B034A1A6000225A607047A0AE071035
:10DFE00068FD3F02F8B506460D4600248F18BD4275
:10DFF0000CD0336830469B6815F8011B9847031E08
:10E0000001DB1C44F3E7002C08BF1C462046F8BD8A
:10E0100013B50446084659B10191FCF771FC02465C
:10E02000204623680199DB6802B0BDE8104018471C
:10E0300002B010BD03689B6818470023012A98BFEF
:10E040000A2230B58BB08DF8243009AC0D46B1FBF7
:10E05000F2F101FB125303F0FF03092B94BF30339D
:10E060003733DBB2AA4204F8013DEFD92146FFF76E
:10E07000CFFF0BB030BD00000022014B9A6070470B
:10E08000A8AE07100021FEF741B90021FEF730B914
:10E0900010B5044608462170FEF7D6F80023204646
:10E0A000636010BD0078FFF7EDBF000030B50024BD
:10E0B000400818601868E5B2884206D90134082C77
:10E0C00002D040081860F5E70725024B5B5D13702E
:10E0D00030BD00BF9CFD3F022DE9F04306468FB0E6
:10E0E00000780C46FFF7D1FF00281BDB142200212B
:10E0F00009A8357800F0EDFC0B230022284609A979
:10E10000ADF82430FEF7BCF89DF82D3013B19DF822
:10E110002C5055B100270125B946B84623795DB189
:10E12000C3B100200FB0BDE8F083DDF830809DF86A
:10E1300034909DF83570F1E7002B35D1A368434545
:10E1400008D18DF820908DF82170BDF82020A3898A
:10E150009A42E6D00023A1688DF80F300A9804ABEC
:10E160000DF10F02FFF7A2FF217985B989B9A368E4
:10E1700043450ED38DF820908DF82170BDF82020F6
:10E18000A3899A4205D1049B434502D1C9E70029DE
:10E19000F9D100230193637B9DF80F200093237B2B
:10E1A0003078FEF797F8BCE72B462A460121CDE9E7
:10E1B0000055F5E730B587B00A9D04460095007814
:10E1C000FEF76CF83DB9207802A9FEF775F89DF8C6
:10E1D0001430DB07F7D407B030BD10B50446006833
:10E1E000FEF7E0FA204610BD10B50446006808B1FD
:10E1F000FEF7D8FA0023C4E90133236010BD38B517
:10E2000004460D4600680131FEF7DAFA10B1C4E9A0
:10E210000005012038BD10B50368044623B14368EA
:10E220008B4201D3012010BD2046FFF7E8FF0028F4
:10E23000F9D0A368002BF5D122681370F2E737B547
:10E240000D46114601920446FFF7E5FF019A28B9F1
:10E250002046FFF7C9FF204603B030BD2946A26023
:10E26000206800F00FFC00212268A368D154F2E777
:10E27000002313B50446C0E900338360037341B142
:10E2800008460191FCF73CFB019902462046FFF746
:10E29000D6FF204602B010BD38B5054600680C46D2
:10E2A00070B16A688B689A4208D3096831B100F08E
:10E2B0005EFCA368AB600023A36038BDFEF772FA72
:10E2C00023682B6063686B60A368AB600023C4E9BC
:10E2D0000033F1E7002310B50446C0E90033836042
:10E2E0000373FFF7D9FF204610BD884210B50446DE
:10E2F00005D00B682BB18A681946FFF7A0FF2046AE
:10E3000010BDFFF771FFFAE7002310B50446C0E91E
:10E31000003383600373FFF7E8FF204610BD000061
:10E3200002220020044B1A60044B054AC3E9000096
:10E330009A60FEF72DB900BFC4AE0710B8AE071043
:10E340000000FFFF024B1A68024B1A60704700BFC3
:10E35000D4A90710C8AE071070474174704708B5BC
:10E36000007CFEF743F820EAE07008BD08B5007CA9
:10E37000FDF7F6FF20EAE07008BD08B5007CFEF767
:10E380000BF840EAE07008BD08B5007CFDF7F6FF29
:10E3900040EAE07008BD007CFEF70CB837B5457C5C
:10E3A00004462DB1207C03B0BDE83040FDF7CABF64
:10E3B000007C0191FEF71AF800280199F2DC28464A
:10E3C00003B030BD10B504461421FCF7C2FA204654
:10E3D00010BD000010B54FF47A730446084611468C
:10E3E0000022C4E90123044B2074236001236374D9
:10E3F000FEF718F8204610BDC8FD3F020023007C40
:10E40000FEF702B80022FFF7F9BF007CFDF78CBFD2
:10E41000007CFDF7DDBF417470477047704708B559
:10E420000021007CFEF752F840EAE07008BD08B514
:10E430000121007CFEF74AF840EAE07008BD08B50B
:10E44000007CFEF735F820EAE07008BD08B5007CD6
:10E45000FEF720F820EAE07008BD13B50446007C02
:10E460000191FEF725F80028019901DC607C20B1BC
:10E47000207CFEF739F820EAE07002B010BD007C85
:10E48000FEF740B810B504461421FCF762FA2046A6
:10E4900010BD000010B54FF47A7304460846002101
:10E4A000C4E90113044B20742360012311466374F3
:10E4B000FDF7C6FF204610BDF8FD3F020022007C9C
:10E4C000FDF7CCBF007CFDF7D7BF10B50446142282
:10E4D000002100F0FEFA204610BD000010B588B003
:10E4E00003A8FFF7F2FF0C4CD4E88F1F11F00101D5
:10E4F0000FD120460191FCF73BFA019948B103AADC
:10E500000648FFF7C7FF2046FCF737FA044800F03B
:10E51000ABFA024808B010BDCCAE0710D0AE071061
:10E5200003EA3F02002240681146FEF7AFB800221E
:10E5300040681146FEF7E2B8002240681146FEF737
:10E54000F9B800224068FEF7E7B80022406881F081
:10E550000101FEF7C5B8002340681A461946FEF7C8
:10E56000B1B8002340681A461946FEF79DB800224C
:10E5700040681146FEF76EB8002202214068FEF79F
:10E5800077B8002340681A46FEF756B80422024BBB
:10E590005A60024A1A607047E4AE071028FE3F0234
:10E5A000014B1860704700BFDCA9071008B50F4B7E
:10E5B00043B1FFF793FF03681B699847002801DD0B
:10E5C00000E000BF0A4B43B100F08EF903681B69FD
:10E5D0009847002801DD00E000BF064B0BB100F0BA
:10E5E000C9F9054B0BB100F0FBF908BD00000000B4
:10E5F00000000000000000000000000008B5FFF768
:10E60000D5FFFDF7FBFC014B186008BDF4AE071009
:10E610000548064A08B5121A054900F033FA054BB9
:10E62000054A1A6008BD00BF00B4071004B4071003
:10E63000A0FA5F0800B407101E1C279A002307B534
:10E640001A466FF077010093FDF7DAFF03B05DF82B
:10E6500004FB000007B543880A2B08D0502B0BD1D0
:10E66000094B1B684BB103B05DF804EB1847FFF78B
:10E67000E5FF03B05DF804FB00231A466FF0770155
:10E680000093FDF7BDFFF4E7F0AE0710002110B5D1
:10E690001148FEF7CDF8114B1A68114B9A420CBF86
:10E6A000012200220F4B1A7001D0FFF7B1FFFDF7D6
:10E6B00089FC044600F016FA0B4B13B1204600E02B
:10E6C00000BF00210848FDF7A9FFBDE81040002168
:10E6D0000648FDF787BF00BF89EB3F0200B4071073
:10E6E0001E1C279AECAE0710000000003DEC3F0214
:10E6F0001B2837B5044602D9002003B030BDA0F175
:10E700000F03022B0BD9012821D800F099F8002122
:10E71000007CFDF745FD80F00100C0B2EDE7114D32
:10E72000D5E88F1F11F001010BD128460191FCF7AC
:10E730001FF9019928B10C48FFF7AAFC2846FCF7FD
:10E740001CF9094B1878FDF78DFD0028D4D1083C41
:10E75000012C05D800F0C8F8007CFDF739FEDAE797
:10E760000120CAE750AE071054AE07101B2838B579
:10E7700004460D460AD8FF2908D0FFF7B9FF28B193
:10E7800029462046BDE83840FDF754BC38BD38B5B1
:10E7900004460D46FDF75CFCFF2810D0062804D87F
:10E7A0004D2323FA00F0C30709D42046FFF7A0FF4A
:10E7B00028B129462046BDE83840FDF757BC38BD92
:10E7C00010B50446FDF744FC031FDBB2012B08D94A
:10E7D0002046FFF78DFF20B12046BDE81040FDF731
:10E7E00053BC002010BD10B50446FFF781FF50B1A7
:10E7F00003212046FDF710FC032804D12046BDE884
:10E800001040FDF74FBC002010BD704738B50A4BD3
:10E8100004460360012309494361202000F0F6F813
:10E820002025606005492846A56000F0EFF8C4E99E
:10E830000305204638BD00BF180001005CFE3F0202
:10E8400030B50E4D87B0D5E88F1F11F0010411D1FE
:10E850002846FCF78DF868B16846FFF7D7FF6A468F
:10E8600021460748FEF7A4F82846FCF786F8054835
:10E8700000F0FAF8024807B030BD00BFF8AE07104C
:10E88000FCAE0710F3ED3F027047000038B51425C9
:10E8900004462A46002100F01CF92580402507493E
:10E8A00028462581258200F0B1F804496060284699
:10E8B00000F0ACF8E060204638BD00BF5CFE3F02CF
:10E8C0007047704710B50446FFF7E0FF204610BDC3
:10E8D00010B50446FFF7DAFF204610BD10B5044618
:10E8E000FFF7D4FF204610BD30B50E4D87B0D5E8F8
:10E8F0008F1F11F0010411D12846FCF739F868B1D7
:10E9000001A8FFF7DFFF214601AA0748FFF762FDD4
:10E910002846FCF732F8054800F0A6F8024807B090
:10E9200030BD00BF10AF07101CAF071071EE3F02E3
:10E9300010B50D4C86B0D4E88F3FDB0711D42046CC
:10E94000FCF716F868B101A8FFF7C2FF012101AA80
:10E950000648FFF73FFD2046FCF70FF8044800F09B
:10E9600083F8024806B010BD14AF071030AF07108F
:10E97000ABEE3F0210B5FFF7DBFF074B044653B188
:10E98000FFF746FD38B1236820461B6998470028E9
:10E9900001DD00E000BF10BD0000000010B50D4C0F
:10E9A00086B0D4E88F3FDB0711D42046FBF7E0FFA9
:10E9B00068B101A8FFF792FF022101AA0648FFF7FC
:10E9C00009FD2046FBF7D9FF044800F04DF8024846
:10E9D00006B010BD18AF071044AF0710A9EE3F02F4
:10E9E00010B5FFF7DBFF074B044653B1FFF710FDEF
:10E9F00038B1236820461B699847002801DD00E0F4
:10EA000000BF10BD00000000FBF79FBFFBF79FBFDA
:10EA100008B52DED028BB0EE408A00F021F80E4BC8
:10EA200093F9003001330BD0B4EE488AF1EE10FABE
:10EA300006D6DFED0A8AB4EEE88AF1EE10FA02D4C7
:10EA4000BDEC028B08BDFDF7D7FE88EEA80A212396
:10EA50000360BDEC028B08BDD8A9071000000000C0
:10EA6000B1EEC00A704700BF002301461A4618469F
:10EA700000F03AB9024B1844407800F09700704714
:10EA8000CDFE3F020A44431E914200D1704710B5AB
:10EA900011F8014B914203F8014FF9D110BD8842A2
:10EAA00010B501EB020402D98442234607D8431E65
:10EAB000A14208D011F8012B03F8012FF8E7024416
:10EAC00001468A4200D110BD13F8014D02F8014DF4
:10EAD000F7E702440346934200D1704703F8011B55
:10EAE000F9E7000038B5104B04461D68AB6BB3B9AD
:10EAF0001820FDF749FE0246A86320B90B4B4221BE
:10EB00000B48FDF787FE0B490B4BC0E900130B4B7D
:10EB1000002183600B2383810120C2E90401AB6BD8
:10EB200000221C615A6138BDDCA907105DFE3F025E
:10EB300074FE3F020E33CDAB34126DE6ECDE050001
:10EB4000C9B2034610F8012B1AB18A42F9D118460E
:10EB50007047002918BF0023F9E710B50446FFF7F6
:10EB6000EFFF18B92046FBF7CBFE204410BD03464B
:10EB700011F8012B03F8012B002AF9D1704710B5C9
:10EB80007AB103460139841813F8010B11F8012FEB
:10EB9000904201D1A34201D1801A10BD0028F3D1C7
:10EBA000FAE71046F9E738B503460C4669B9BDE8FF
:10EBB0003840FFF7C5BF431C054621461846FFF7FE
:10EBC000BFFF0028F7D1284638BD0025F5E7000033
:10EBD000012B2DE9F04701D0242B06D9FDF70CFEBF
:10EBE000162303600020BDE8F0870D46DFF8E0C083
:10EBF0002E4615F8014B14F80C7017F00807F7D1E2
:10EC00002D2C32D12C780127B51C002B5BD0102B7A
:10EC100009D1302C07D12C7804F0DF04582C4DD1C9
:10EC20006C781023023507F100484FF0000C08F112
:10EC3000FF386646B8FBF3F903FB198AA4F1300EDE
:10EC4000BEF1090F16D87446A34224DDBCF1000FB3
:10EC50001EDBB1451CD301D1A24519DB06FB0346DF
:10EC60004FF0010C15F8014BE8E72B2C04BF2C7872
:10EC7000B51CCAE7A4F1410EBEF1190F01D8373C0B
:10EC8000E2E7A4F1610EBEF1190F04D8573CDBE7AF
:10EC90004FF0FF3CE6E7BCF1000F05DA22234646C1
:10ECA000036042B930469EE707B17642002AF9D0A8
:10ECB000BCF1000F00D0691E1160F3E73024002B77
:10ECC000B1D10823AFE7302CA5D00A23ABE700BFB2
:10ECD000CEFE3F0213460A46014602480068FFF78F
:10ECE00077BF00BFDCA907102DE9F843DFF8BC802F
:10ECF00006461F460D46D8F80000914600F058F829
:10ED0000264B1C6834B9264C1C60264B13B11B687B
:10ED1000C4F8883063681F2B07DDD8F8000000F0C6
:10ED200049F84FF0FF30BDE8F8835EB3D4F88800AF
:10ED300088B91D4B23B9D8F8000000F03AF8F0E785
:10ED40004FF48470FDF720FD0028F4D00023C0E9C3
:10ED50004033C4F8880063680122022E40F82390F3
:10ED600002FA03F200EB8301D0F8003143EA020318
:10ED7000C0F80031C1F8807002BFD0F804311343ED
:10ED8000C0F804316368D8F800005A1C023362608E
:10ED900044F8235000F00EF80020C4E7E4AF071059
:10EDA00058AF07100000000071CD3F0240AA0710C5
:10EDB0007047704770470000F9AE3F0221AF3F0235
:10EDC00025AF3F020000000043616C6C206F6E2095
:10EDD00070757265207669727475616C0053554365
:10EDE000434553532053455454494E4720474149C6
:10EDF0004E3A202564004641494C454420544F205A
:10EE0000534554204741494E3A202564004F4C4514
:10EE100044204665617468657257696E6720746541
:10EE2000737400524D532043757272656E743A20AC
:10EE3000256600506F7765723A2025660000000055
:10EE4000000000000000000081B13F02C5B13F0298
:10EE50006BAF3F0200000000000000000000000057
:10EE60000000000041AF3F0269AF3F020000000018
:10EE70000000000025B13F0259B13F0215E13F02F9
:10EE8000BDE23F02000000000000007E0001FF80A4
:10EE90000381C00600600C703018F01818F81830A4
:10EEA000780C30200C301BCC305BCC30E7CC31E31D
:10EEB0008C19E01818E0180C00300600600381C0BF
:10EEC00001FF80007E000000000000000000000044
:10EED00000000380000383C003FFC007FFC00FE3EF
:10EEE000C01FF0C01FF0E01FF0E01FF060000078CE
:10EEF0000000780000780000F80000E00001C00089
:10EF00000380000700000700007FC0007FC00000F2
:10EF10000000000000000000000007FFE00FFFF00D
:10EF20000C00300C00300CC0300CC0300C00300C29
:10EF300000300FFFF00FFFF00C00300C00300CC061
:10EF4000300CC0300CC0300CC0300C00300C003025
:10EF50000FFFF007FFE000000000000000000000CD
:10EF600000001FFFF81FFFFC1FFFCC0FFFCC0FF9A5
:10EF7000CC07F9CC07F9CC07F9CC07F9CC07F9C0D5
:10EF800007FFC003FFC003FFC003FFC00000000075
:10EF9000000007FFE00FE7F00FE7F00FFFF00000C1
:10EFA0000000000000000000003E5B4F5B3E3E6B37
:10EFB0004F6B3E1C3E7C3E1C183C7E3C181C577D13
:10EFC000571C1C5E7F5E1C00183C1800FFE7C3E75F
:10EFD000FF0018241800FFE7DBE7FF30483A060E71
:10EFE0002629792926407F050507407F05253F5AB8
:10EFF0003CE73C5A7F3E1C1C08081C1C3E7F142228
:10F000007F22145F5F005F5F06097F017F006689D2
:10F01000956A606060606094A2FFA29408047E0418
:10F020000810207E201008082A1C08081C2A08083E
:10F030001E101010100C1E0C1E0C30383E383006FE
:10F040000E3E0E06000000000000005F00000007FA
:10F05000000700147F147F14242A7F2A1223130828
:10F06000646236495620500008070300001C224104
:10F07000000041221C002A1C7F1C2A08083E0808A8
:10F080000080703000080808080800006060002058
:10F09000100804023E5149453E00427F400072493B
:10F0A0004949462141494D331814127F10274545DF
:10F0B00045393C4A494931412111090736494949F5
:10F0C00036464949291E0000140000004034000063
:10F0D00000081422411414141414004122140802CC
:10F0E000015909063E415D594E7C1211127C7F493F
:10F0F0004949363E414141227F4141413E7F494994
:10F1000049417F090909013E414151737F080808BF
:10F110007F00417F41002040413F017F0814224190
:10F120007F404040407F021C027F7F0408107F3EEA
:10F130004141413E7F090909063E4151215E7F0957
:10F14000192946264949493203017F01033F4040BE
:10F15000403F1F2040201F3F4038403F63140814A9
:10F160006303047804036159494D43007F414141E1
:10F170000204081020004141417F040201020440C2
:10F1800040404040000307080020545478407F2846
:10F190004444383844444428384444287F3854543C
:10F1A000541800087E090218A4A49C787F0804045F
:10F1B0007800447D40002040403D007F10284400FE
:10F1C00000417F40007C047804787C08040478388F
:10F1D00044444438FC1824241818242418FC7C08BF
:10F1E000040408485454542404043F44243C40403C
:10F1F000207C1C2040201C3C4030403C44281028EF
:10F20000444C9090907C4464544C44000836410037
:10F210000000770000004136080002010204023CB1
:10F220002623263C1EA1A161123A4040207A385480
:10F2300054555921555579412254547842215554F9
:10F24000784020545579400C1E527212395555554C
:10F2500059395454545939555454580000457C4137
:10F260000002457D420001457C407D1211127DF077
:10F27000282528F07C545545002054547C547C0AA1
:10F28000097F4932494949323A4444443A324A486A
:10F2900048303A4141217A3A42402078009DA0A06E
:10F2A0007D3D4242423D3D4040403D3C24FF2424C0
:10F2B000487E4943662B2FFC2F2BFF0929F620C0DF
:10F2C000887E090320545479410000447D41304830
:10F2D000484A32384040227A007A0A0A727D0D1973
:10F2E000317D2629292F28262929292630484D40D5
:10F2F00020380808080808080808382F10C8ACBAD1
:10F300002F102834FA00007B000008142A1422224F
:10F31000142A14085500550055AA55AA55AAFF5598
:10F32000FF55FF000000FF00101010FF0014141420
:10F33000FF001010FF00FF1010F010F0141414FC68
:10F34000001414F700FF0000FF00FF1414F404FC85
:10F35000141417101F10101F101F1414141F001066
:10F360001010F0000000001F101010101F101010DF
:10F3700010F010000000FF101010101010101010EE
:10F38000FF10000000FF140000FF00FF00001F102E
:10F39000170000FC04F414141710171414F404F4E8
:10F3A0000000FF00F714141414141414F700F714D9
:10F3B0001414171410101F101F141414F414101028
:10F3C000F010F000001F101F0000001F14000000CC
:10F3D000FC140000F010F01010FF10FF141414FFC4
:10F3E000141010101F00000000F010FFFFFFFFFFBF
:10F3F000F0F0F0F0F0FFFFFF0000000000FFFF0F53
:10F400000F0F0F0F3844443844FC4A4A4A347E02F6
:10F41000020606027E027E02635549416338444477
:10F420003C04407E201E2006027E020299A5E7A52C
:10F43000991C2A492A1C4C7201724C304A4D4D309D
:10F440003048784830BC625A463D3E494949007EC2
:10F450000101017E2A2A2A2A2A44445F4444405159
:10F460004A444040444A51400000FF0103E080FF0D
:10F47000000008086B6B083612362436060F090F99
:10F4800006000018180000001010003040FF0101B5
:10F49000001F01011E00191D1712003C3C3C3C00DE
:10F4A000000000000000000000000000000000005C
:10F4B00000000000D9BE3F02CDE53F0241AF3F0250
:10F4C0008BB93F028DB93F02BFB93F029BB93F02E2
:10F4D000ADB93F02CDB83F028BB93F02B5BB3F0289
:10F4E000B3BB3F02D7B93F0215BA3F024FBA3F0242
:10F4F00095BA3F02B1BA3F0233BB3F0200000000A1
:10F50000000000000000000000000000D9BE3F0223
:10F51000CDE53F02DBBF3F028BB93F028DB93F0211
:10F52000BFB93F029BB93F02ADB93F02CDB83F0220
:10F530008BB93F02B5BB3F02D7C13F02D7B93F02EB
:10F5400015BA3F024FBA3F0295BA3F02B1BA3F0225
:10F5500033BB3F0241AF3F0200000000000000004B
:10F56000E5C13F02F9C13F02D9BE3F02CDE53F02EE
:10F57000DBBF3F028BB93F028DB93F02BFB93F02EB
:10F580009BB93F02ADB93F02CDB83F028BB93F02F4
:10F59000B5BB3F02D7C13F02D7B93F0215BA3F0200
:10F5A0004FBA3F0295BA3F02B1BA3F0233BB3F02A6
:10F5B00035C23F02000000000000000041AF3F02E2
:10F5C00041AF3F02D9BE3F02CDE53F02DBBF3F0264
:10F5D0008BB93F028DB93F02BFB93F029BB93F02D1
:10F5E000ADB93F02CDB83F028BB93F02B5BB3F0278
:10F5F000D7C13F02D7B93F0215BA3F024FBA3F0207
:10F6000095BA3F02B1BA3F0233BB3F0235C23F0257
:10F61000000000000000000023CF3F0219CF3F028E
:10F620000FCF3F0205CF3F02F9CE3F02EDCE3F02A2
:10F63000A9E43F02B1E43F02E1CE3F02D9CE3F024E
:10F64000CFCE3F02C5CE3F02E1E43F020000000002
:10F650000000000041CF3F028BCF3F0263CF3F024B
:10F6600043CF3F026BCF3F0273CF3F027BCF3F02BE
:10F6700083CF3F02000000000000000061D03F0285
:10F6800051D03F0253D03F022575007525303478A4
:10F6900000626175640053657269616C0053657244
:10F6A00069616C31004A534F4E53747265616D4C01
:10F6B0006F6748616E646C65720061707000253020
:10F6C00031307520005D20002C200028293A2000D0
:10F6D000205B00636F6465203D2000256900646540
:10F6E0007461696C73203D20000D0A006D006C6E22
:10F6F00000666E00636F64650064657461696C0028
:10F7000000000000000000000DD53F0233D53F028D
:10F71000F1D43F026FD13F02000000000000000062
:10F72000C1D93F02D9D93F0215E13F02BDE23F02F4
:10F730000000000000000000EDD93F0201DA3F02A6
:10F74000F5E23F02F9D43F02000000000000000093
:10F750000BD53F0241D53F0279E03F02FBD43F0287
:10F76000000000000000000009D53F024FD53F0215
:10F7700029D93F0271D53F020000000000000000BF
:10F7800069E43F0273E43F027DE43F0287E43F0205
:10F7900091E43F029DE43F02A9E43F02B1E43F024D
:10F7A000B9E43F02C5E43F02CDE43F02D7E43F02A3
:10F7B000E1E43F02000810182028303825592D2593
:10F7C0006D2D25645425483A254D3A2553257A0058
:10F7D00061736374696D6500000000000000000043
:10F7E00041E93F02ADE93F0285E93F02CDE53F0235
:10F7F00055E93F0271E93F0263E93F027FE93F02B9
:10F8000043E93F0247E93F0200000000000000001A
:10F8100005EA3F026DEA3F0243EA3F02CDE53F02BF
:10F8200035EA3F0207EA3F0217EA3F0267EA3F0272
:10F8300027EA3F02FFE93F0200000000000000004D
:10F840006BEB3F0261EB3F0257EB3F020DEB3F02D8
:10F850004BEB3F023FEB3F02A9E43F02B1E43F0222
:10F8600033EB3F022BEB3F0221EB3F0217EB3F0252
:10F87000E1E43F02005245454E54206D616C6C6FCF
:10F880006320737563636565646564002F746D70D0
:10F890002F6A656E6B696E732D4743432D31302D92
:10F8A000706970656C696E652D34385F3230323046
:10F8B000313132345F313630363138303633392FEA
:10F8C0007372632F6E65776C69622F6E65776C69F2
:10F8D000622F6C6962632F7374646C69622F72614A
:10F8E0006E642E630000202020202020202020286D
:10F8F00028282828202020202020202020202020E8
:10F90000202020202020881010101010101010101F
:10F91000101010101010040404040404040404045F
:10F9200010101010101010414141414141010101DE
:10F9300001010101010101010101010101010101B7
:10F9400001101010101010424242424242020202C4
:10F950000202020202020202020202020202020287
:10F960000210101010200000000000000000000035
:10F970000000000000000000000000000000000087
:10F980000000000000000000000000000000000077
:10F990000000000000000000000000000000000067
:10F9A0000000000000000000000000000000000057
:10F9B0000000000000000000000000000000000047
:10F9C0000000000000000000000000000000000037
:10F9D0000000000000000000000000000000000027
:10F9E000000000000000000085B43F02B5CE3F02D9
:10F9F0002DCF3F0205E13F02B9E53F0261E63F023C
:0CFA000009E93F022DE93F0275EB3F02CF
:10FA0C000000000200000000C617EDF1423A9C3FD6
:10FA1C000E000000030000000D00000038FD3F0246
:10FA2C0050FD3F02B8FD3F02FF000000E0A90710A7
:10FA3C0000000000000000000000000000000000BA
:10FA4C0000000000000000000000000000000000AA
:10FA5C00000000000000000000000000000000009A
:10FA6C00000000000000000000000000000000008A
:10FA7C00000000000000000000000000000000007A
:10FA8C00000000000000000000000000000000006A
:04FA9C00E8AF0710B8
:04FAA0000000000062
:10FFBE000200100000A05F08A8A05F0890A63F02F4
:10FFCE0001000A00FFFFFFFFFFFF00000102030414
:10FFDE0005060708090A0B0C0D0E0F10111213144B
