:02000004085F93
:1090000000905F08FCFF5F080000060020000501DB
:0890100004017D1500000000C1
:109018001348144908B5884205D0134A824202D041
:10902800124B121A98471248124A0021124B121A70
:10903800984712481249884205D0124A824202D003
:109048000A4B121A984710481049884205D0104A0E
:10905800824202D0054B121A9847014808BD00BF4A
:10906800A8A50710B0F75F0844A607102D0D11102A
:1090780048A60710ECAF0710A10E1110E8983F02A0
:10908800A8905F08F0983F02F0983F02B0905F0800
:0C909800F0FF3F0219905F08000000008C
:0890A8009C905F0838EF3F02C5
:1090B00081F0004102E000BF83F0004330B54FEA89
:1090C00041044FEA430594EA050F08BF90EA020FF6
:1090D0001FBF54EA000C55EA020C7FEA645C7FEA89
:1090E000655C00F0E2804FEA5454D4EB5555B8BFAC
:1090F0006D420CDD2C4480EA020281EA030382EA1D
:10910000000083EA010180EA020281EA0303362DAE
:1091100088BF30BD11F0004F4FEA01314FF4801C81
:109120004CEA113102D0404261EB410113F0004F93
:109130004FEA03334CEA133302D0524263EB43034A
:1091400094EA050F00F0A780A4F10104D5F1200EE8
:109150000DDB02FA0EFC22FA05F2801841F1000143
:1091600003FA0EF2801843FA05F359410EE0A5F117
:1091700020050EF1200E012A03FA0EFC28BF4CF048
:10918000020C43FA05F3C01851EBE37101F00045FE
:1091900007D54FF0000EDCF1000C7EEB00006EEB0B
:1091A0000101B1F5801F1BD3B1F5001F0CD3490895
:1091B0005FEA30004FEA3C0C04F101044FEA4452EC
:1091C00012F5800F80F09A80BCF1004F08BF5FEA73
:1091D000500C50F1000041EB045141EA050130BD53
:1091E0005FEA4C0C404141EB0101013C28BFB1F565
:1091F000801FE9D291F0000F04BF01460020B1FAB0
:1092000081F308BF2033A3F10B03B3F120020CDA82
:109210000C3208DD02F1140CC2F10C0201FA0CF060
:1092200021FA02F10CE002F11402D8BFC2F1200CC5
:1092300001FA02F120FA0CFCDCBF41EA0C0190407B
:10924000E41AA2BF01EB0451294330BD6FEA0404C4
:109250001F3C1CDA0C340EDC04F11404C4F12002AF
:1092600020FA04F001FA02F340EA030021FA04F3C1
:1092700045EA030130BDC4F10C04C4F1200220FA18
:1092800002F001FA04F340EA0300294630BD21FA56
:1092900004F0294630BD94F0000F83F4801306BF1C
:1092A00081F480110134013D4EE77FEA645C18BF10
:1092B0007FEA655C29D094EA050F08BF90EA020FA7
:1092C00005D054EA000C04BF1946104630BD91EA9F
:1092D000030F1EBF0021002030BD5FEA545C05D1A2
:1092E0004000494128BF41F0004130BD14F58004E1
:1092F0003CBF01F5801130BD01F0004545F0FE4155
:1093000041F470014FF0000030BD7FEA645C1ABF89
:10931000194610467FEA655C1CBF0B46024650EAC0
:10932000013406BF52EA033591EA030F41F40021EC
:1093300030BD00BF90F0000F04BF0021704730B572
:109340004FF4806404F132044FF000054FF0000147
:1093500050E700BF90F0000F04BF0021704730B508
:109360004FF4806404F1320410F0004548BF4042DD
:109370004FF000013EE700BF42004FEAE2014FEA32
:1093800031014FEA02701FBF12F07F4393F07F4F0D
:1093900081F06051704732F07F4208BF704793F010
:1093A0007F4F04BF41F40021704730B54FF4607423
:1093B00001F0004521F000411CE700BF50EA010226
:1093C00008BF704730B54FF000050AE050EA0102CF
:1093D00008BF704730B511F0004502D5404261EB3F
:1093E00041014FF4806404F132045FEA915C3FF480
:1093F000D8AE4FF003025FEADC0C18BF03325FEA1D
:10940000DC0C18BF033202EBDC02C2F1200300FACD
:1094100003FC20FA02F001FA03FE40EA0E0021FAF2
:1094200002F11444BDE600BF70B54FF0FF0C4CF4E0
:10943000E06C1CEA11541DBF1CEA135594EA0C0F92
:1094400095EA0C0F00F0DEF82C4481EA030621EACD
:109450004C5123EA4C5350EA013518BF52EA033508
:1094600041F4801143F4801338D0A0FB02CE4FF0BA
:109470000005E1FB02E506F00042E0FB03E54FF0EA
:109480000006E1FB03569CF0000F18BF4EF0010EE2
:10949000A4F1FF04B6F5007F64F5407404D25FEADE
:1094A0004E0E6D4146EB060642EAC62141EA555191
:1094B0004FEAC52040EA5E504FEACE2EB4F1FD0CD3
:1094C00088BFBCF5E06F1ED8BEF1004F08BF5FEA51
:1094D000500E50F1000041EB045170BD06F0004603
:1094E00046EA010140EA020081EA0301B4EB5C04B0
:1094F000C2BFD4EB0C0541EA045170BD41F48011A8
:109500004FF0000E013C00F3AB8014F1360FDEBFCC
:10951000002001F0004170BDC4F10004203C35DAA8
:109520000C341BDC04F11404C4F1200500FA05F32B
:1095300020FA04F001FA05F240EA020001F00042CC
:1095400021F0004110EBD37021FA04F642EB060142
:109550005EEA430E08BF20EAD37070BDC4F10C046C
:10956000C4F1200500FA04F320FA05F001FA04F230
:1095700040EA020001F0004110EBD37041F100011C
:109580005EEA430E08BF20EAD37070BDC4F1200527
:1095900000FA05F24EEA020E20FA04F301FA05F28F
:1095A00043EA020321FA04F001F0004121FA04F237
:1095B00020EA020000EBD3705EEA430E08BF20EA07
:1095C000D37070BD94F0000F0FD101F00046400041
:1095D00041EB010111F4801F08BF013CF7D041EAC3
:1095E000060195F0000F18BF704703F000465200C7
:1095F00043EB030313F4801F08BF013DF7D043EA98
:109600000603704794EA0C0F0CEA135518BF95EA4D
:109610000C0F0CD050EA410618BF52EA4306D1D1D4
:1096200081EA030101F000414FF0000070BD50EAF3
:10963000410606BF1046194652EA430619D094EA7D
:109640000C0F02D150EA013613D195EA0C0F05D167
:1096500052EA03361CBF104619460AD181EA0301BB
:1096600001F0004141F0FE4141F470014FF0000073
:1096700070BD41F0FE4141F4780170BD70B54FF00E
:10968000FF0C4CF4E06C1CEA11541DBF1CEA13558E
:1096900094EA0C0F95EA0C0F00F0A7F8A4EB050470
:1096A00081EA030E52EA03354FEA013100F0888067
:1096B0004FEA03334FF0805545EA131343EA126330
:1096C0004FEA022245EA111545EA10654FEA0026E5
:1096D0000EF000419D4208BF964244F1FD0404F59E
:1096E000407402D25B084FEA3202B61A65EB0305FA
:1096F0005B084FEA32024FF480104FF4002CB6EBB7
:10970000020E75EB030E22BFB61A754640EA0C0036
:109710005B084FEA3202B6EB020E75EB030E22BF76
:10972000B61A754640EA5C005B084FEA3202B6EBB7
:10973000020E75EB030E22BFB61A754640EA9C0076
:109740005B084FEA3202B6EB020E75EB030E22BF46
:10975000B61A754640EADC0055EA060E18D04FEA04
:10976000051545EA16754FEA06164FEAC30343EAA4
:1097700052734FEAC2025FEA1C1CC0D111F4801F71
:109780000BD141EA00014FF000004FF0004CB6E76A
:1097900011F4801F04BF01430020B4F1FD0C88BF09
:1097A000BCF5E06F3FF6AFAEB5EB030C04BFB6EB14
:1097B000020C5FEA500C50F1000041EB045170BD07
:1097C0000EF0004E4EEA113114EB5C04C2BFD4EB34
:1097D0000C0541EA045170BD41F480114FF0000EB8
:1097E000013C90E645EA060E8DE60CEA135594EA34
:1097F0000C0F08BF95EA0C0F3FF43BAF94EA0C0F37
:109800000AD150EA01347FF434AF95EA0C0F7FF4AB
:1098100025AF104619462CE795EA0C0F06D152EAFF
:1098200003353FF4FDAE1046194622E750EA4106E3
:1098300018BF52EA43067FF4C5AE50EA41047FF4F4
:109840000DAF52EA43057FF4EBAE12E74FEA410257
:10985000B2F1E04324BFB3F5001CDCF1FE5C0DD98E
:1098600001F0004C4FEAC0024CEA5070B2F1004FD8
:1098700040EB830008BF20F00100704711F0804FDB
:1098800021D113F13872BCBF01F00040704741F4A0
:1098900080114FEA5252C2F11802C2F1200C10FAA4
:1098A0000CF320FA02F018BF40F001004FEAC12388
:1098B0004FEAD32303FA0CFC40EA0C0023FA02F32C
:1098C0004FEA4303CCE77FEA625307D150EA013302
:1098D0001EBF4FF0FE4040F44000704701F00040D2
:1098E00040F0FE4040F40000704700BF10F8012B2C
:1098F00011F8013B012A28BF9A42F7D0D01A7047CD
:10990000034613F8012B002AFBD1181A01387047BF
:1099100070B504F039FB0025054E064CA41BA408C5
:10992000AC4200D170BD56F8043B98470135F7E7CB
:10993000CCFF3F02F0FF3F0200F0AAB908B500F0EB
:109940001FFABDE8084004F0D7BA02F063B802F08D
:1099500061B802F06DB800000C2008B5024A034956
:1099600001F0D0FEFEE700BF05BA3F0248EF3F021C
:109970000078B0FA80F04009704701230370704707
:109980007047436913B183690C301847704713B5AA
:1099900000210446084601F07BFB0023204601A974
:1099A000019301F09FFB019C0CB101232371002165
:1099B000012001F06DFB2CB1236820469B6898477D
:1099C0000023237102B010BD012A02D101600020E2
:1099D0007047022A04BF0B680360F8E70368184762
:1099E00007B5806830B10023CDE900131A46022183
:1099F00001F086FB03B05DF804FB30B5054685B089
:109A00000C4611460392FFF7EBFFA86830B1002324
:109A1000039A1946CDE9004301F072FB05B030BD51
:109A20002DE9F0412DED028B354B364D188804F0B1
:109A300058FB354B2860188804F053FBDFF8F8809A
:109A4000324B2A68D8F800401860314B314D43F84A
:109A5000242004F1500243F822000134A0F50060F4
:109A6000C8F80040FFF776FC02460B46C5E9002324
:109A7000FFF7DAFC06460F46274B284DC3E900677F
:109A80002868FFF779FC32463B46FFF717FBFFF7E4
:109A9000DDFE502C28602ED10122214B6FF00041B9
:109AA0001A7000231F48C8F80030FFF799FFDFED58
:109AB0001E7A95ED000A80EE270A04F02BFCF2EEE8
:109AC000007A9FED1A8A30EE670AB4EEC80AF1EE0A
:109AD00010FA54BF10EE100A18EE100AFFF74CFCF3
:109AE000134BD3E90023FFF79FFCFFF7AFFE85ED93
:109AF000008A104B1860BDEC028BBDE8F08100BFFE
:109B0000C8A507104CAE0710BCA5071054AA071033
:109B10008CAA071060AA071058AD071060AD071097
:109B200050AD071020AD07100000A042000000005B
:109B3000B0A507101CAD07103CAD071010B50446CA
:109B4000094B036002F0D0FF214603F007FA04F04E
:109B500043F904F035F92046044B40F8043B03F088
:109B600099F8204610BD00BFF8EF3F02E0EF3F023A
:109B700010B50446FFF7E2FF20462421FFF7E9FE77
:109B8000204610BD10B58368044613B10322014678
:109B90009847204610BD000038B50F4B04460360BF
:109BA00083689BB16FF00041FFF71AFF0021A068A6
:109BB00001F0ECFA237903F0FF0513B101F05AFA32
:109BC000F8E72946A06801F07FFAA56004F10C00CF
:109BD000FFF7D8FF204638BDCCEF3F0210B5044652
:109BE000FFF7DAFF20461C21FFF7B3FE204610BD29
:109BF0000EB44FF0200C002300B58CB00DAA52F823
:109C0000041BCDE904C3CDE900120392016804AA44
:109C10001E2001F085FD0CB05DF804EB03B0704729
:109C200010B504F08BFA2F2102F032FB04F086FA13
:109C3000036800219B68984704F080FA0368F521C7
:109C40009B68984704F07AFA02F029FB052001F09E
:109C50005FFF04F073FA2F21012202F012FB04F0DF
:109C60006DFA03685B699847044604F067FA02F0EE
:109C700016FBE2B2F52A0CBF024903490348FFF77D
:109C8000B7FF10BD5DEF3F0276EF3F0274AE0710E5
:109C900008B5134B0121188804F0E6F904F09CF88C
:109CA0004FF4165104F088F80E490F48FFF7A0FF53
:109CB00002220E48114601F099F90A210B4801F0E1
:109CC000A2F901F0C7FD052001F022FFFFF7A8FF70
:109CD000BDE8084000226FF000410548FFF78DBE47
:109CE000C4A507108DEF3F0274AE071058AA0710E5
:109CF00020AD071030B5204B85B01B7802681F4996
:109D00008DF8003002A83C2302F09CF80020029C51
:109D100001F05AFD651C28B12B78DBB213B901F0B4
:109D20008BFDF9E7D5E88F3FDBB2ABB90025039C8B
:109D30007CB16368013B63605BB9236820469B6824
:109D40009847A368013BA3601BB923682046DB68E2
:109D50009847284605B030BD002001F035FD28B1F8
:109D60002B78DBB213B901F067FDF9E72378DBB29A
:109D7000012BDBD1257BDAE74CA60710A3EF3F02CE
:109D8000F0B5494C8DB0D4E88F3FDB070AD42046AC
:109D9000FFF7EEFD30B101F023FA444B1860204686
:109DA000FFF7EBFD424C0021208804F06EF941489A
:109DB00001F02BF93F4801F058F920B93E4A1378D9
:109DC00083F00103137001F053FD00286AD03B4D6E
:109DD0002B7883B13A4800F0D3F901F001FA40F64C
:109DE000B737324E306001F0FBF93368C01AB84221
:109DF000F9D900232B70304B1B78002B52D001F087
:109E0000EFF92A4D2B68C01A322808D900226FF0CA
:109E100000412C48FFF7F1FD01F0E2F928602A4EDD
:109E20003378002B3ED02088012104F02EF9274BF7
:109E30004FF480621846002104F0CDFA002440F26D
:109E4000FF33234ACDE90A34224D8DF82040079292
:109E5000099007A802F006FC55F8041B07A802F0B9
:109E600019FCD5F83C1107A802F014FC013407A82E
:109E700002F0D9FB502CECD114491748FFF7B8FE7B
:109E8000124903A803F072FE03A8FFF733FF019005
:109E900003A803F020FE019A10490F48FFF7A8FE1F
:109EA000002333700DB0F0BD48A6071050A6071070
:109EB000C4A5071058AA0710B8A50710C0A5071019
:109EC00064AD071020AD071050AD071054A6071061
:109ED00060FC3F028CAA071074AE0710B7EF3F0278
:109EE00070B51426D0E90053044606FB0356AE4273
:109EF00004D0284603F0EFFD1435F8E7206801F0A0
:109F000097FD204670BD8842F8B504460D461646BA
:109F100016D9904215D2A2F11406751AA1F11407B0
:109F20002C44B7421CD02CB13146204603F050FEE1
:109F3000337C2374304603F0CEFD143E143CF0E72E
:109F40000ED0B5420CD02CB12946204603F040FE7D
:109F50002B7C2374284603F0BEFD14351434F0E73F
:109F6000F8BD00232DE9F041C0E9003383604F685C
:109F700004469F420E4624DD4FF0140808FB07F00C
:109F800001F048FD0546E0B1D4E9001208FB0212D9
:109F9000FFF7B9FF206801F04BFD2560A760D6E907
:109FA000007308FB0378B84509D03946284603F00A
:109FB00029FE3B7C143505F8043C1437F3E773683D
:109FC00063602046BDE8F0812DE9F0474FF00108BD
:109FD00000253D4B90B083F800800021404601F001
:109FE000E5FBCDE90355059503F0F6FE374F8146B5
:109FF000BA4609AE03A906A8FFF7B3FF06A9304683
:10A00000FFF7AFFF324B0CAC4AF8043B3146204619
:10A01000FFF7A7FF22461E21504603F081F8204695
:10A02000FFF75EFF3046FFF75BFF2A4B06A83B6059
:10A03000C7F82090FFF754FF274B3B6003F0CCFE9E
:10A040004FF4165103F0B8FE02F04EFD394602F00F
:10A050003FFF03A8FFF744FF2049214803F086FD96
:10A060001E49204803F082FD1F4800F04DF81F4BA9
:10A070001F4A0C9394E803001E4B86E803001A6005
:10A0800003F10C0292E8030084E8030096E8030061
:10A0900082E80300184A1D715A619A699D600F9207
:10A0A000164A41469A6103F10800154ACDE9005568
:10A0B0000E9500F0FBFF2046FFF764FD114810B03D
:10A0C000BDE8F04700F07EBF4CA6071068AA071055
:10A0D000E0EF3F0204FD3F02F8EF3F02CAFC3F02FF
:10A0E0000CAD071040AD071064AD071061A23F0230
:10A0F000CCEF3F0220AD071009A23F021DA23F0294
:10A10000CFA13F0258AA07101FB5044604F016F865
:10A11000154A16490346CDE901214FF0FF3240218F
:10A1200000922046802200F06BFE002310491A4660
:10A1300004F1580000F046F81C2300220D4904F1F8
:10A140007C0000F03FF8382300220B4904F1A00006
:10A1500000F038F854230022084904F1C40000F04C
:10A1600031F8204604B010BD801A0600A086010018
:10A1700074F43F0204F53F02BCF43F022CF43F02AA
:10A1800010B5044600F00BFE204600F04DFE2046C0
:10A190000A4900F0F2FC2046012100F0E8FC4FF4EF
:10A1A00040224FF001132046C4E90423044903F080
:10A1B000B8FB2046BDE8104000F036BE1CF43F025C
:10A1C00008F03F02C0E900128360402218232221D8
:10A1D000C0E903231B23C0E905131123C361012335
:10A1E00010B580F8203010BD2DE9F8431F46DDE999
:10A1F0000896C368154632449A420446884602D9F6
:10A200000020BDE8F8830178406802F03DF87EB98F
:10A2100060682A4603684146DB6898478542EFD16B
:10A220003946606802F037F8B0FA80F04009E8E794
:10A23000B9F1000FECD06068324603684946DB682C
:10A2400098478642DCD1E3E708B5406801F0ECFFAF
:10A25000012008BD10B50446406810B103689B6832
:10A260009847204610BD00002DE9F04F04460068D5
:10A270000D4685B040B10023009313460A4603F013
:10A2800017FC05B0BDE8F08F237BA068002B0CBF46
:10A290004FF0010B4FF0800B0B78444F1BEA030F7C
:10A2A000B7FBF0F70CBF4FF001094FF000098B1816
:10A2B000FFB20393039BAB42E3D05E464FF000082E
:10A2C00095F800A017B1384600F07CFF637B13F0CF
:10A2D000FD0F41D194F910305A1C0FD01AEA060133
:10A2E00014BF012300234B4508D06369606A1A68D4
:10A2F00000292CD04FF0010902431A60A169E36ADA
:10A300000A6813430B6017B1384600F05BFF94F9FD
:10A310001130013306D0E3691A68A36A1A4218BFE4
:10A3200046EA0808A169E36A0A6822EA03030B60A7
:10A3300094F91130013318BF85F80080237B002B7E
:10A3400032D17600F6B2002EBCD10135B2E722EA56
:10A35000000289461A60D1E7A169E36A0A681343DB
:10A360000B6017B1384600F02DFF94F9103001331F
:10A3700008D06369616A1A681AEA060F14BF0A43B3
:10A380008A431A60A169E36A0A6822EA03030B6040
:10A3900094F911300133CBD0E3691A68A36A1A42E9
:10A3A00018BF46EA0808C3E77608CCE720A10700F3
:10A3B00007B501228DF807100DF10701FFF754FFD3
:10A3C0009DF8070003B05DF804FB03681BB141680A
:10A3D000184603F0FFBA7047006808B103F0E0BA0E
:10A3E000704790F90E00431C03D0C9B280B203F04D
:10A3F0004CBE704710B50446FFF7E7FF2046BDE8A6
:10A4000010400021FFF7EDBF10B504460121FFF712
:10A41000E8FF2046BDE81040FFF7DEBF2DE9F04120
:10A420001C4606460D461746FFF7E4FF069B04EB65
:10A430000308444508D12F44BD420BD0304615F8DF
:10A44000011BFFF7B5FFF7E7304614F8011BFFF7D4
:10A45000AFFFEEE73046FFF7D7FF0120BDE8F08100
:10A460002DE9F04F1F4685B0BDF93880A7EB010AF2
:10A47000A8EB0209B9F1000FB8BFC9F10009BAF1A0
:10A48000000FB8BFCAF1000AD14583460C461546F5
:10A49000BDF83C3004DD3A462C4647460D46904612
:10A4A000BC4205DD2A464546904622463C461746B4
:10A4B0003E1BB2B20092A8EB050282EAE271A1EB68
:10A4C000E271C6F3C03202FA86F64545B4BF0122F6
:10A4D0004FF0FF32019176100292BC421CDCDBF897
:10A4E0000020D145D2F81880C7BF294622462A4607
:10A4F000214603935846C047019A039BB61AB1B24E
:10A5000036B2002E05DA029A1544009A2DB256187A
:10A5100036B2013424B2E0E705B0BDE8F08F7047F1
:10A5200010B404682469A4465DF8044B604730B455
:10A53000BDF8085004680295A46BA44630BC60477F
:10A5400030B4BDF8085004680295E46BA44630BCF2
:10A55000604770B4BDF90C50BDF810600468CDE9D7
:10A560000356246CA44670BC60472DE9F3411C4699
:10A57000164605460F460368013CBDF820805B691E
:10A580003444984724B22B68CDF8048000942846C0
:10A590009C6A32463B463946A04728462B68DB6A10
:10A5A00002B0BDE8F04118472DE9F34117460446D3
:10A5B0001D460E460368BDF820805B699847CDE9CB
:10A5C000007822686B1E33442046956A31463A462D
:10A5D0001BB2A84720462368DB6A02B0BDE8F04101
:10A5E00018472DE9F3471E4603680C465B6905468C
:10A5F0001746BDF92890BDF82C8098472644B442F0
:10A600002B680BDACDF800802146D3F820A03A461B
:10A610004B4628460134D04724B2F0E72846DB6A8F
:10A6200002B0BDE8F047184713B50191B0F90E101C
:10A6300002680091146C0022B0F90C301146A0475A
:10A6400002B010BD2DE9F7439942164680460D46EB
:10A650001C46BDF92870BDF82C90026812D1BE428C
:10A66000C2BF33463E461F46CDF828907B1C946BF4
:10A670009B1B324629464046A4461BB203B0BDE8A8
:10A68000F0436047BE420AD19942C2BF0B462546FD
:10A690001C46CDF82890631C5B1BD46BE9E753691B
:10A6A0009847CDE90079D8F8003040469F6A324695
:10A6B00023462946B8474046D8F80030DB6A03B045
:10A6C000BDE8F04318472DE9F34704460F46164608
:10A6D0001D460368BDF82C805B69BDF9289098473A
:10A6E0002368CDF80080324639462046D3F824A0AE
:10A6F0002B46D047236809F1FF32CDF80080324461
:10A7000039462046D3F824A012B22B46D0472368FE
:10A71000CDF80080324639462046D3F820A04B467B
:10A72000D0476B1ED9192368CDF8008020461D6ADA
:10A7300032464B4609B2A84720462368DB6A02B07E
:10A74000BDE8F0471847704701F00303B0F90A204D
:10A750008376B0F90830C90759BF8381C2818281ED
:10A76000C381704730B50181002481814FF0FF31F2
:10A77000054D4281C281054A4460C0E90512056069
:10A7800004610477046230BD54FA3F020101000104
:10A790002DE9F04F2DED028B91B016461F46026A4F
:10A7A000BDF870308346BDF874809DF878509DF8F0
:10A7B0007C4003910493002A40F0C580B0F90C302E
:10A7C0008B4240F34C81B0F90E30B34240F34781E5
:10A7D000062313FB0513002B40F3418106EBC40352
:10A7E000002B40F33C81037F1BB9AF2F84BF01379F
:10A7F000FFB2DBF8003058465B69984705220992A2
:10A8000000220592984A07EB8703D3180C93B3B242
:10A810000693059A0C9B02FB05F99B5C0793ABB270
:10A820000B93BDF80C300893039B19FA83F90FFAC8
:10A8300089F308EE103A08234FF000090A93039BAE
:10A8400002EB030A0FFA8AFA079ADBF80030D20704
:10A8500052D5012D1FFA89F23ED1012C3CD19B69C2
:10A8600006991F46049B0A445146584612B2B847FF
:10A8700009F101034FFA83F9079B5B0807930A9BD1
:10A88000013B13F0FF030A93DED1059F01377BB232
:10A890000593099B013B13F0FF030993B9D1049B76
:10A8A00043450FD0012DDBF800303BD1012C39D1CD
:10A8B0000899CDF8008005311C6A324608235846B5
:10A8C00009B2A0475846DBF80030DB6A11B0BDEC96
:10A8D000028BBDE8F04F184714FB02F206990A44B8
:10A8E000049901910094DB6918EE101A1F4658462E
:10A8F0002B4612B2B847BBE7049A4245B8D0012DA7
:10A900001FFA89F207D1012C05D19B6906991F46D0
:10A910000A444346A8E714FB02F20699CDF80480E6
:10A920000A44DFE70B9AE40002EB8201089ACDF8B3
:10A9300004800A4411460094DC6932462B4658468E
:10A9400009B2A047BEE7137A5168FF1A1268FFB236
:10A950000B9231F8372001EBC70306929A78012D4C
:10A960000992DA7893F906A00C9293F905200A92DD
:10A9700001D8012C57D9BDF9283008930FFA8AF372
:10A9800007934FF00008C1464746DBF800305846B1
:10A990005B699847B3B20E931AFA86F30F930C9B38
:10A9A0009F428FD2079B0E9A3B4403FB0423002255
:10A9B0001BB208EE103A434605920F9A02EB070AC3
:10A9C0000FFA8AFA099A0599914241D25A1CD2B2D9
:10A9D0005B070D9207D1069B06990B9A01339BB238
:10A9E00012F80190069319F0800F12D0012DDBF8B8
:10A9F0000030BDF80C101AD1012C18D10A9A9B69AD
:10AA00001144059A1E46114458465246049B09B209
:10AA1000B047059E4FEA49090136F3B205935FFA44
:10AA200089F90D9BCEE70023CDE90733A9E7059807
:10AA3000089A024402FB0511049A5846CDE90042E7
:10AA4000DB6918EE102A1E4609B22B46B047E0E734
:10AA5000099B013798445FFA88F8FFB29FE711B06D
:10AA6000BDEC028BBDE8F08F4CF53F02F0B5026AF9
:10AA700004460B4685B0002A34D10A2908D1438AFE
:10AA80000282427E03EBC2036382012005B0F0BD67
:10AA90000D29FAD0E17E007E657E71B10621B4F900
:10AAA000106011FB0061B4F90C60B142C1BFB4F990
:10AAB0001210228201EBC5026282E28ACDE9020510
:10AAC0000192A28A20460092B4F91010B4F9122023
:10AAD000FFF75EFE237E228A03EB430302EB430370
:10AAE0002382D2E70A2907D100230382417E127B09
:10AAF000438A01FB0233C7E70D29C6D0157AA94264
:10AB0000C3D3917A9942C0D351685D1BEDB201EB7A
:10AB1000C505A87828B3E97819B3E17E267E677E5B
:10AB200091B195F905100844B4F9101006FB001115
:10AB3000B4F90C00814207DD00202082B4F9121024
:10AB4000127B02FB07126282E28A20460192A28AED
:10AB5000CDE902670092B4F91010B4F91220FFF7A2
:10AB600017FE2979227E238A01FB0233B8E70129E7
:10AB700038BF0121017641767047036A29B113B9C4
:10AB8000438A0633438201627047002BFBD0438A1D
:10AB9000063BF7E70029F0B566DBB0F90C408C42C4
:10ABA00062DD002A60DBB0F90E4094425CDD847EF9
:10ABB000022C5AD0032C61D0012C04D1D243048939
:10ABC00014440A4621B2B0F938408C42A8BF0C4662
:10ABD0000487B0F93A409442A8BF14464487B0F9BC
:10ABE0003C408C42B8BF0C468487B0F93E4094424A
:10ABF000B8BF1446C48790F84C40012C16D1012BE5
:10AC000042D0022B51D08BB91446002A0589B8BF17
:10AC1000D41DE41014FB05140125476B02F0070650
:10AC200005FA06F63D5D25EA06053D5590F84C40CF
:10AC3000042C19D1048914FB02F202EBD27401EB4B
:10AC4000D17242F34F0202EB6402446BC907A05C6D
:10AC50004BBF03F00F0300F00F0020F00F0040EA9D
:10AC6000031348BF0343A354F0BDD2430489013CFE
:10AC7000611A448909B2224412B2A4E74489013C12
:10AC8000641A114622B29EE71446002A0589B8BF0D
:10AC9000D41DE41014FB05140125466B02F00707D0
:10ACA000BD40375D3D433555C0E71446002A058950
:10ACB000B8BFD41DE41014FB05140125466B02F047
:10ACC0000707BD40375D7D40EDE7000038B50D4614
:10ACD000114604461AB209B2FFF744FD0B4B069A1F
:10ACE00023600023E262079AC4E90933C4E90C2314
:10ACF0004FF0FF33C4E910339DF914302046A364AC
:10AD0000049B84F84C50236538BD00BFACFA3F0269
:10AD100038B50C4B04460360406B18B100F088FE58
:10AD200000236363656A35B12846FFF793FA38213B
:10AD30002846FEF70EFEA06A10B11021FEF709FEAC
:10AD4000204638BDACFA3F0230B5856A87B004466C
:10AD50008DF80F107DB10023CAB2CDE900338DF814
:10AD600014308DF8152001230222284605A9FFF78B
:10AD70003BFA07B030BD2946B0F8400003F085F932
:10AD80002B460122606A00950DF10F01FFF746FB8B
:10AD9000EFE7002914BFA721A621FFF7D5BF10B503
:10ADA000038990F84C20B0F90A1012FB03F2CB1D76
:10ADB00048BF01F10E03DB1004465A430021406BEB
:10ADC00003F009FB0023A3632389013BA387638965
:10ADD000013BE38710BD000010B50446024B036041
:10ADE00000F0E6F8204610BD08FB3F0210B504460F
:10ADF000FFF7F2FF20465821FEF7ABFD204610BDBD
:10AE000030B5044685B00A9D0295099D01959DF9CE
:10AE10002050009500F0B2F82046024B236005B0A8
:10AE200030BD00BF08FB3F022DE9F04F89B004465A
:10AE300000F020F940238DF81B30B4F90A30B4F942
:10AE40003A5094F808A0DA1D94F8388048BF03F10E
:10AE50000E02002DB8BF0735D04528BFD046C2F33B
:10AE6000C7030393C5F3C705B4F93C3005FB0A8B50
:10AE700023EAE3730AF1010252FA83F30493039B7A
:10AE80009D4271D2049B268994F854209E1B424413
:10AE9000676BA36A4FEA221CA6EB0806A5F15001D6
:10AEA0005F44F6B2C9B20CF1100C02F00F02002B95
:10AEB0003AD0D8688DF81D1001381FFA80F94FF08C
:10AEC0000000E16A8DF81C0018468DF81EC08DF850
:10AED0001F20FFF7B9F900230422CDE90033A06A4F
:10AEE000012307A9FFF780F95FFA89F9A06AA6B1E3
:10AEF0000123B1454A4628BF324601930DF11B0399
:10AF00003946009301230592FFF76EF9059AB61AA8
:10AF10001744F6B200F0AEF8E8E7216BFFF794F9BA
:10AF20000135EDB2D344AAE7B4F840008DF81C1007
:10AF300019468DF81DC08DF81E20059303F0A5F865
:10AF4000059B0322009307A9606AFFF767FAB4F82C
:10AF50004000012103F099F8059B32463946606AAA
:10AF60000093FFF75BFADBE74FF004224FF0FF336B
:10AF7000C4E90E2309B0BDE8F08F000030B50446E7
:10AF800085B00A9D0395099D02959DF92050CDE954
:10AF9000003513460A460121FFF798FE034B204671
:10AFA0002360002384F8543005B030BD64FB3F02B9
:10AFB00010B50446024B0360FFF7AAFE204610BD01
:10AFC00064FB3F0200210A22C0E9001270470023FF
:10AFD00010B50446C171837188B203F06FF808B1EF
:10AFE0000323A37100F0FCF8206010BD38B50C46B7
:10AFF00005461146A0B203F037F821462846BDE8C1
:10B000003840FFF7E4BF8180704738B50446C07907
:10B0100003F054F8003818BF0120A57925F0080383
:10B02000C5F340058542A3710AD000F0D9F8A37991
:10B03000206083F00203A371A079C0F3C00038BD83
:10B0400000F0CEF82368C01AA3889842F4D3A379FD
:10B0500003F00103AB42EFD000F0C2F8A379206007
:10B0600083F0010343F00803E5E7807900F0010075
:10B070007047000009B504480068044B03441B688E
:10B08000DB68029309BD0000A8A50710300000008E
:10B0900009B504480068044B03441B68DB6902934C
:10B0A00009BD0000A8A507103000000009B504483C
:10B0B0000068044B03441B681B6A029309BD00002F
:10B0C000A8A507103000000009B504480068044B2B
:10B0D00003441B685B6A029309BD0000A8A5071022
:10B0E0003000000009B504480068044B03441B68A5
:10B0F0009B6A029309BD0000A8A50710300000005C
:10B1000009B504480068044B03441B68DB6A0293DA
:10B1100009BD0000A8A507103000000009B50448CB
:10B120000068044B03441B685B6C029309BD00007C
:10B13000A8A507103000000009B504480068044BBA
:10B1400003441B689B6C029309BD0000A8A507106F
:10B150003000000009B504480068044B03441B6834
:10B16000DB6C029309BD0000A8A5071030000000A9
:10B1700009B504480068044B03441B685B6D0293E7
:10B1800009BD0000A8A507103000000009B504485B
:10B190000068044B03441B681B6F029309BD000049
:10B1A000A8A507103000000009B504480068044B4A
:10B1B00003441B685B68029309BD0000A8A5071043
:10B1C0000000000009B504480068044B03441B68F4
:10B1D000DB68029309BD0000A8A50710000000006D
:10B1E00009B504480068044B03441B685B6902937B
:10B1F00009BD0000A8A507100000000009B504481B
:10B200000068044B03441B685B68029309BD00009F
:10B21000A8A507101400000009B504480068044BF5
:10B2200003441B689B68029309BD0000A8A5071092
:10B230001400000009B504480068044B03441B686F
:10B24000DB68029309BD0000A8A5071014000000E8
:10B2500009B504480068044B03441B681B6902934A
:10B2600009BD0000A8A507101400000009B5044896
:10B270000068044B03441B685B69029309BD00002E
:10B28000A8A507101400000009B504480068044B85
:10B2900003441B681B6B029309BD0000A8A507109F
:10B2A0001400000009B504480068044B03441B68FF
:10B2B0001B68029309BD0000A8A50710100000003C
:10B2C00009B504480068044B03441B689B6902935A
:10B2D00009BD0000A8A507101000000009B504482A
:10B2E0000068044B03441B68DB69029309BD00003E
:10B2F000A8A507101000000009B504480068044B19
:10B3000003441B681B6A029309BD0000A8A507102F
:10B310001000000009B504480068044B03441B6892
:10B320005B6A029309BD0000A8A507101000000089
:10B3300009B504480068044B03441B689B6A0293E8
:10B3400009BD0000A8A507101000000009B50448B9
:10B350000068044B03441B68DB6A029309BD0000CC
:10B36000A8A507101000000009B504480068044BA8
:10B3700003441B681B6B029309BD0000A8A50710BE
:10B380001000000009B504480068044B03441B6822
:10B390005B6B029309BD0000A8A507101000000018
:10B3A00009B504480068044B03441B681B6C0293F6
:10B3B00009BD0000A8A507101000000009B5044849
:10B3C0000068044B03441B681B6D029309BD000019
:10B3D000A8A507101000000009B504480068044B38
:10B3E00003441B685B69029309BD0000A8A5071010
:10B3F0004C00000009B504480068044B03441B6876
:10B400009B68029309BD0000A8A50710500000002A
:10B4100009B504480068044B03441B68DB680293C9
:10B4200009BD0000A8A507105000000009B5044898
:10B430000068044B03441B68DB69029309BD0000EC
:10B44000A8A507101800000009B504480068044BBF
:10B4500003441B681B6A029309BD0000A8A50710DE
:10B460001800000009B504480068044B03441B6839
:10B470005B6A029309BD0000A8A507101800000030
:10B4800009B504480068044B03441B689B6A029397
:10B4900009BD0000A8A507101800000009B5044860
:10B4A0000068044B03441B689B6B029309BD0000BA
:10B4B000A8A507101800000009B504480068044B4F
:10B4C00003441B68DB6B029309BD0000A8A50710AD
:10B4D0001800000009B504480068044B03441B68C9
:10B4E0001B6C029309BD0000A8A5071018000000FE
:10B4F00009B504480068044B03441B685B6C029365
:10B5000009BD0000A8A507101800000009B50448EF
:10B510000068044B03441B689B68029309BD00004C
:10B52000A8A507102400000009B504480068044BD2
:10B5300003441B68DB68029309BD0000A8A507103F
:10B540002400000009B504480068044B03441B684C
:10B550001B69029309BD0000A8A507102400000084
:10B5600009B504480068044B03441B685B690293F7
:10B5700009BD0000A8A507102400000009B5044873
:10B580000068044B03441B689B69029309BD0000DB
:10B59000A8A507102400000009B504480068044B62
:10B5A00003441B68DB69029309BD0000A8A50710CE
:10B5B0002400000009B504480068044B03441B68DC
:10B5C0001B6A029309BD0000A8A507102400000013
:10B5D00009B504480068044B03441B689B6A029346
:10B5E00009BD0000A8A507102400000009B5044803
:10B5F0000068044B03441B68DB6A029309BD00002A
:10B60000A8A507102400000009B504480068044BF1
:10B6100003441B681B6C029309BD0000A8A507101A
:10B620002400000009B504480068044B03441B686B
:10B630001B68029309BD0000A8A507103400000094
:10B6400009B504480068044B03441B685B68029317
:10B6500009BD0000A8A507103400000009B5044882
:10B660000068044B03441B689B68029309BD0000FB
:10B67000A8A507103400000009B504480068044B71
:10B6800003441B681B69029309BD0000A8A50710AD
:10B690003400000009B504480068044B03441B68EB
:10B6A0005B69029309BD0000A8A5071034000000E3
:10B6B00009B504480068044B03441B689B69029366
:10B6C00009BD0000A8A507103400000009B5044812
:10B6D0000068044B03441B68DB69029309BD00004A
:10B6E000A8A507103400000009B504480068044B01
:10B6F00003441B681B6A029309BD0000A8A507103C
:10B700003400000009B504480068044B03441B687A
:10B710005B6B029309BD0000A8A50710480000005C
:10B7200009B504480068044B03441B685B6D029331
:10B7300009BD0000A8A507104800000009B504488D
:10B740000068044B03441B68DB6E029309BD0000D4
:10B75000A8A507104800000009B504480068044B7C
:10B7600003441B681B6F029309BD0000A8A50710C6
:10B770004800000009B504480068044B03441B68F6
:10B780005B68029309BD0000A8A50710080000002F
:10B7900009B504480068044B03441B685B690293C5
:10B7A00009BD0000A8A507100800000009B504485D
:10B7B0000068044B03441B68DB6A029309BD000068
:10B7C000A8A507100800000009B504480068044B4C
:10B7D00003441B68DB6C029309BD0000A8A5071099
:10B7E0000800000009B504480068044B03441B68C6
:10B7F0005B6D029309BD0000A8A5071008000000BA
:10B8000009B504480068044B03441B68D3F888302A
:10B81000029309BDA8A507100800000009B5044857
:10B820000068044B03441B68D3F89430029309BDAD
:10B83000A8A507100800000009B504480068044BDB
:10B8400003441B689B68029309BD0000A8A507106C
:10B850002C00000009B504480068044B03441B6831
:10B86000DB68029309BD0000A8A507102C000000AA
:10B8700009B504480068044B03441B685B690293E4
:10B8800009BD0000A8A507102C00000009B5044858
:10B890000068044B03441B681B6A029309BD000047
:10B8A000A8A507102C00000009B504480068044B47
:10B8B00003441B68DB6B029309BD0000A8A50710B9
:10B8C0002C00000009B504480068044B03441B68C1
:10B8D0005B68029309BD0000A8A5071028000000BE
:10B8E00009B504480068044B03441B689B68029335
:10B8F00009BD0000A8A507102800000009B50448EC
:10B900000068044B03441B68DB68029309BD000018
:10B91000A8A507102800000009B504480068044BDA
:10B9200003441B681B69029309BD0000A8A507100A
:10B930002800000009B504480068044B03441B6854
:10B940005B69029309BD0000A8A50710280000004C
:10B9500009B504480068044B03441B689B690293C3
:10B9600009BD0000A8A507102800000009B504487B
:10B970000068044B03441B68DB69029309BD0000A7
:10B98000A8A507102800000009B504480068044B6A
:10B9900003441B681B6A029309BD0000A8A5071099
:10B9A0002800000009B504480068044B03441B68E4
:10B9B0001B6B029309BD0000A8A50710280000001A
:10B9C00009B504480068044B03441B685B6B029391
:10B9D00009BD0000A8A507102800000009B504480B
:10B9E0000068044B03441B681B6C029309BD0000F4
:10B9F000A8A507102800000009B504480068044BFA
:10BA000003441B685B6C029309BD0000A8A50710E6
:10BA10002800000009B504480068044B03441B6873
:10BA20001B68029309BD0000A8A5071004000000D0
:10BA300009B504480068044B03441B685B68029323
:10BA400009BD0000A8A507100400000009B50448BE
:10BA50000068044B03441B689B68029309BD000007
:10BA6000A8A507100400000009B504480068044BAD
:10BA700003441B685B6A029309BD0000A8A5071078
:10BA80000400000009B504480068044B03441B6827
:10BA9000DB6A029309BD0000A8A50710040000009E
:10BAA00009B504480068044B03441B681B6B0293F0
:10BAB00009BD0000A8A507100400000009B504484E
:10BAC0000068044B03441B68DB6B029309BD000054
:10BAD000A8A507100400000009B504480068044B3D
:10BAE00003441B681B6C029309BD0000A8A5071046
:10BAF0000400000009B504480068044B03441B68B7
:10BB00005B6C029309BD0000A8A5071004000000AB
:10BB10000021FFF73DBE38B5046805467CB1636877
:10BB2000013B63605BB9236820469B689847A36824
:10BB3000013BA3601BB923682046DB689847284671
:10BB400038BD10B5836804460BB902F0DFFBC3684B
:10BB50009847A3681BB103222146204698472046F8
:10BB6000BDE810401021FDF7F4BE10B5436804464F
:10BB7000013B436063B903689B689847A368013B36
:10BB8000A3602BB923682046BDE81040DB68184746
:10BB900010BD70B50446D0E9005305EB0316AE4264
:10BBA00004D0284601F097FF1035F8E72068FFF72A
:10BBB0003FFF204670BD13B56C460B460246D0E9E8
:10BBC000000184E8030093E8030082E8030094E89E
:10BBD000030083E8030002B010BD00000023024808
:10BBE0000360FFF79BBA00BF5CAE071070470020F0
:10BBF000704710B504461021FDF7ABFE204610BD7E
:10BC000008B5FFF7F6FF08BD002230B54FF69C746B
:10BC1000026084808D888C800C68858004600A6056
:10BC200030BD10B504460068FFF702FF204610BD86
:10BC300038B5C46814B32378DBB2022B03D104F106
:10BC40000C00FFF7EEFF231D1D6835B12846FDF7F8
:10BC500099FF10212846FDF77CFE04F108031D68BA
:10BC600035B12846FDF78EFF10212846FDF771FEFD
:10BC70002046BDE838401421FDF76BBE38BD0B6887
:10BC800003604B68436013B15A6801325A607047D1
:10BC900037B5044668460D46FFF7F1FF009B019A51
:10BCA00023600023626001A801930093FFF733FF34
:10BCB00035B1281DFFF72FFF08212846FDF749FE63
:10BCC000204603B030BD826810B50AB902F01EFBF1
:10BCD000C368BDE81040184708B5006800F11001BE
:10BCE000FFF7F1FF08BD826810B50AB902F00EFB3C
:10BCF000C368BDE81040184708B5006800F110019E
:10BD0000FFF7F1FF08BD000038B5002304460360CB
:10BD100010200D46FDF719FE28B10123C0E90133BB
:10BD2000024BC56003602060204638BDC0FB3F0267
:10BD300038B5002383608B6804460D462BB1022280
:10BD40009847EB68E360AB68A360204638BD00000D
:10BD5000F0B589B004686846FFF756FF4FF002035C
:10BD6000D4E84F2F002A03D1C4E8413F0029F7D17E
:10BD700021D104F10C0569462846FFF745FF012251
:10BD8000631CC3E88F2F002004F10803D3E8EF6F92
:10BD9000C3E8E20F002AF9D16EB1FFF715FD78B1C3
:10BDA00029463046FFF78FFF3046FDF7EBFE1021A6
:10BDB0003046FDF7CEFD6846FFF733FF09B0F0BD12
:10BDC000314602A8FFF7B4FFE068B4F9105008B19B
:10BDD00002F058FB06901020ADF81C50FDF7B5FDA1
:10BDE0000546E8B1002787601820FDF7AEFD044640
:10BDF00088B10146876002A8FFF7DDFE049BA268B8
:10BE0000A360059B0492E26806A9E36004F11000B8
:10BE10000592FFF7F9FE084B2C60EB60074BAB6017
:10BE200006A8FFF7FEFE02A8FDF7ACFE0022294699
:10BE30000348FFF7D7FCB7E719C53F0295C73F0294
:10BE400083C33F022DE9F04F8BB005460F46904665
:10BE500099469DF850A0FFF70BFD07AE834638BB0F
:10BE60004FF62E73059005A93046ADF81830FFF750
:10BE7000CBFE1420FDF769FD044648B10223037090
:10BE80000123C0E901BB437031460C30FFF7BCFE13
:10BE90002846214640F8044BFFF736FF3046FFF7AF
:10BEA000C0FE05A8FFF7BDFE28460BB0BDE8F08F29
:10BEB0000C2300241420CDE908440793FDF745FD29
:10BEC000014618B1C0E901440470447004A803910C
:10BED000FFF71AFF1E4B08200893FDF736FD0446B6
:10BEE00010B103A9FFF7CBFE4A46414638460096FB
:10BEF0005FFA8AF30994FFF7C9FCB8B9039B0133D1
:10BF00001B78DBB293B905934FF69C7305A903A880
:10BF1000ADF81830FFF71CFF05A8FFF782FE05A853
:10BF20000999FFF7B5FE06A8FFF7F5FD03A905A8D7
:10BF3000FFF7A5FE059B069A2B6000236A6006A802
:10BF400006930593FFF7E7FD04A8FFF7E4FDABE7D1
:10BF500011C83F02012AF8B5054603D10B680360FA
:10BF60000020F8BD022A10D0032AF9D10468002C61
:10BF7000F6D004F11000FFF754FE2046FDF702FE54
:10BF800018212046FDF7E5FCEAE718200E68FDF7CA
:10BF9000DCFC044650B13146FFF7CAFE3069B6F901
:10BFA000147008B102F06EFA2061A7822C60D7E706
:10BFB00038B5002383608B6804460D462BB10222FE
:10BFC0009847EB68E360AB68A360204638BD00008B
:10BFD000F0B5044689B00D4601A81146FFF758FE9A
:10BFE000A4B124B21DB1284602F04CFA054601A8BE
:10BFF00003A90395ADF81040FFF7AAFE03A8FFF7C9
:10C0000010FE02A8FFF787FD09B0F0BD0123019DD6
:10C01000D5E84F2F002A03D1C5E8413F0029F7D1C9
:10C02000EFD12B730122EB18C3E88F2F2B1DD3E820
:10C03000EF6FC3E8E24F002AF9D1002EE1D020468D
:10C04000FFF7C2FB074660B1304605F10C01FFF770
:10C050004AFE3046FDF796FD10213046FDF779FC8B
:10C06000CFE7314603A8FFF7A3FF2B7B10208DF805
:10C070001C30FDF76AFC0546D0B187601420FDF73F
:10C0800064FC044678B10146876003A8FFF793FD7E
:10C09000059BA268A360069B0592E268E3609DF899
:10C0A0001C3006922374074B2C60EB60064BAB6090
:10C0B00003A8FDF767FD002229460448FFF792FB1D
:10C0C000C7E700BF39C53F0211C93F0283C33F0222
:10C0D000012A70B5044603D10B680360002070BDCF
:10C0E000022A0CD0032AF9D10468002CF6D020468D
:10C0F000FDF748FD14212046FDF72BFCEEE7142048
:10C100000E68FDF722FC054620B13146FFF750FFCF
:10C11000337C2B742560E1E7002240681146FFF76D
:10C1200033BC002240681146FFF74ABC0022406839
:10C13000FFF738BC0022406881F00101FFF716BC10
:10C14000002340681A461946FFF702BC00234068E6
:10C150001A461946FFF7EEBB002240681146FFF76A
:10C16000DBBB002240681146FFF7BABB0022022168
:10C170004068FFF7C3BB002340681A46FFF7A2BB25
:10C180000322024B5A60024A1A60704760AE0710E1
:10C19000DCFB3F027047F8B5064615460C468F1883
:10C1A000BC4206D0336830469B6814F8011B9847A0
:10C1B000F6E72846F8BD0022007CFFF79DB8002175
:10C1C000007CFFF7A7B80021007CFFF7B1B8002181
:10C1D000007CFFF7BBB80021007CFFF7C5B810B5A5
:10C1E00004461421FDF7B5FB204610BD38B50446C2
:10C1F00015464FF47A730022C4E90123094B08461F
:10C20000217423602946FFF7CBF8BF3008D16B6952
:10C21000DB0705D56868FFF70BFCE868FFF708FC4B
:10C22000204638BD18FC3F020022007CFFF73AB8D8
:10C230007FB500221423CDE90122ADF804300B783C
:10C24000007C8DF808304B680393CB6804930B7A1D
:10C2500001A90593FFF7B2F807B05DF804FB1FB51D
:10C26000003B8DF800104FF0640118BF01230391CB
:10C27000694601928DF80830FFF7DAFF05B05DF8E6
:10C2800004FB0123FFF7EBBF0022007CFFF718B887
:10C29000C9B2FFF7F9BF0022007CFFF71FB80121E8
:10C2A000FFF7F9BF704710B504461821FDF751FBA1
:10C2B000204610BDF0B5037D0E46062B4FF000045E
:10C2C0008DB000F1040712D000F1080515F8011D2A
:10C2D0000A22304601F02FFBAF42044419D0002C53
:10C2E000F4D02E21304601F00DFB0444EEE72F235D
:10C2F0006A4639460A208DF80040FFF76DF8684617
:10C30000FDF7FEFA3368024669463046DB68984717
:10C31000044620460DB0F0BD10B50446044B112272
:10C32000002140F8043B02F056F8204610BD00BF43
:10C3300040FC3F020346074A10B543F8042B01F1C5
:10C34000100251F8044B914243F8044BF9D10A789A
:10C350001A7010BD40FC3F0210B59DF8084044EA39
:10C36000032343EA0242042342EA01614160037568
:10C3700010BD000007B5064B0360CB7800938B78A7
:10C380004A780978FFF7E8FF03B05DF804FB00BFC7
:10C3900040FC3F02012200F1100313F8101C184664
:10C3A000012908D153F8041C02EB4102013A03F1C0
:10C3B0001003F2D17047022904BF53F8041C52182D
:10C3C000F4E7704710B504461421FDF7C2FA204681
:10C3D00010BD38B51546D0E903239342044607D271
:10C3E000D21A8068AA4228BF2A46184401F0CCFF1E
:10C3F00022692A44226138BD0EB417B5044605AB44
:10C4000053F8042BE1680193036980688B4234BFC1
:10C41000C91A00211844019BFFF726FB2369184421
:10C42000206103B0BDE8104003B070470EB4F0B512
:10C4300088B0102100AF07F1340555F8042B0446ED
:10C440002B4678187A60FD60FFF70EFB0F287A689C
:10C450001AD900F1080323F007036E46ADEB030D74
:10C46000411C2B466846FD60FFF7FEFA021E04DD04
:10C470002368694620469B689847B5462037BD46E5
:10C48000BDE8F04003B070470028F7D023680246AB
:10C490009B68204607F110019847EFE738B50B6815
:10C4A000044603604D6843689D4208D015B16B682F
:10C4B00001336B60606808B1FFF757FB656038BDFA
:10C4C00007B503688DF8071001229B680DF107017D
:10C4D000984703B05DF804FB0B461146002210B5E7
:10C4E0000446C0E9002283600BB9204610BDFFF767
:10C4F000D5FFFAE78368EBB11A78032A1AD8DFE888
:10C5000002F00417021B0520704702685B6852683E
:10C51000D05C2D2812D0A0F13003092B0ED974283D
:10C520000ED066280CD0A0F16E03584258417047D7
:10C530000620704700207047042070470320704792
:10C540000220704710B50446FFF7D4FF02280ED032
:10C55000C31EDBB2012B14D82268A36850685B6845
:10C560000A22BDE810400021184402F053B82268A6
:10C57000A36852685B68D05CA0F1740358425841CC
:10C5800010BD0020FCE7000038B500230446C0E9D8
:10C5900000330E48C4E90203A9B10B78032B06D07F
:10C5A0008BB9136858684B68C35C6E2B07D013684F
:10C5B0004D6858688B6828445B1BA060E360114697
:10C5C0002046FFF76BFF204638BD00BFCAFC3F0284
:10C5D00038B500250B4604461146C0E90055C0E9B0
:10C5E0000255C0E904554BB11A78012A06D103F16E
:10C5F0001002DB6882604361FFF750FF204638BDC0
:10C6000010B54369044663B18068013BE0601030B7
:10C61000A0602061636113B1FFF7BCFEA060012040
:10C6200000E0184610BD10B55D210446FFF748FF35
:10C6300001232046237110BD10B57D210446FFF76C
:10C640003FFF01232046237110BD08B50379012B5C
:10C6500002D0022B04D008BD2C21FFF731FFFAE7EE
:10C660003A21FAE710B50446FFF7EFFF20465B21B9
:10C67000FFF726FF00232046237110BD10B50446A6
:10C68000FFF7E3FF20467B21FFF71AFF0023204638
:10C69000237110BD13B504460191FFF7D6FF23683F
:10C6A0002046DB68019A03499847012320462371FD
:10C6B00002B010BD73EF3F0213B504460191FFF7BE
:10C6C000C4FF23682046DB68019A03499847012389
:10C6D0002046237102B010BD4CFC3F022DE9F0470B
:10C6E0000D469046222104462F46FFF7E9FEDFF86B
:10C6F000A490A8444745BA463DD017F8016B222EB6
:10C7000006D05C2E04D0304601F036FE0028F1D170
:10C710002368294620469B68AAEB050298475C21BE
:10C720002046FFF7CDFE0D2E0AD8072E1CD9A6F104
:10C730000803052B18D8DFE803F00D0F11171315A8
:10C74000222E01D05C2E0FD131462046FFF7B8FED5
:10C750003D46CFE76221F8E77421F6E76E21F4E762
:10C760006621F2E77221F0E7236832464946204607
:10C77000DB689847ECE7BD4205D023682946204690
:10C780009B687A1B984722212046FFF799FEBDE857
:10C79000F08700BF4FFC3F0213B50446CDE90021EE
:10C7A000FFF753FFDDE900212046FFF797FF022343
:10C7B0002046237102B010BD13B50446CDE9002117
:10C7C000FFF743FFDDE900212046FFF787FF012344
:10C7D0002046237102B010BD80680368DB681847EB
:10C7E0007047084611B10B685B681847704770477F
:10C7F00070477047704738B504460D4600682E21D3
:10C8000001F02DFE2368C31A2B6023B1037803B116
:10C81000013023682060184638BD10B504460C214D
:10C82000FDF797F8204610BD10B504460421FDF72A
:10C8300090F8204610BD10B504460421FDF789F894
:10C84000204610BDFEF786BC08B5FDF74FF8B0FADC
:10C8500080F0400908BD704710B50C4601F0BCFAE5
:10C86000844205D101F0B8FABDE8104001F0A8BA41
:10C8700001F0B8FC844205D101F0B4FCBDE81040E1
:10C8800001F041BA2CB123682046BDE810405B6836
:10C89000184710BD0B6803604B68436013B15A68BA
:10C8A00001325A60704713B5044608460191FDF7FE
:10C8B00027F802462046019902B0BDE81040FFF774
:10C8C0007BBF13B5044608460191FDF719F80246EF
:10C8D000204623680199DB6802B0BDE81040184784
:10C8E00007B503688DF807100122DB680DF1070119
:10C8F000984703B05DF804FB0A6810B502604A6807
:10C9000042600022C0E9022202618C688A60846071
:10C91000CC68CA60C4600C690A61046110BD000083
:10C920002DE9F74F4FF0140AD0E900841746454629
:10C930000AFB04F40093174BA4105C43002C21DD88
:10C9400066100AFB06F005EB0009B9F804B03A4698
:10C950005F4528BF5A462858019101F0B0FD0028D4
:10C960004FF0010301990BD15F4503D1009A137079
:10C970003446E3E7FCD9A61B09F11405013EF7E7AD
:10C98000F9DBF5E7A5EB08050248AD10684303B0F5
:10C99000BDE8F08FCDCCCCCC7FB50369057E01918D
:10C9A00003B3F9B1002600F10C04039603A901A812
:10C9B000FFF721FF0146A8B10DF10B032046039AB2
:10C9C0008DF80B60FFF7ACFF9DF80B3053B1236877
:10C9D000142404FB0034B4F906300834002BA8BF3B
:10C9E000DDB2E3E7284604B070BD0EB4F0B58CB0FC
:10C9F00000AF07F1440555F8042B04462B462021CF
:10CA000007F110007A60FD60FFF72EF81F287A68A2
:10CA10001AD900F1080323F007036E46ADEB030DAE
:10CA2000411C2B466846FD60FFF71EF8021E04DD20
:10CA3000236869462046DB689847B5463037BD46CF
:10CA4000BDE8F04003B070470028F7D023680246E5
:10CA5000DB68204607F110019847EFE710B5084C56
:10CA6000D4E88F3FDB0709D42046FCF781FF28B1CB
:10CA70002046FCF782FF034801F078FC024810BD15
:10CA80006CAE07102FD03F02CCA5071010B5084C94
:10CA9000D4E88F3FDB0709D42046FCF769FF28B1B3
:10CAA0002046FCF76AFF034801F060FC024810BD15
:10CAB00070AE071097D03F02D0A5071038B50025FB
:10CAC0000446C0E90055C0E904558560856140F819
:10CAD000245FFEF723FBFFF7C1FFE061FFF7D6FFFE
:10CAE00025732062204638BD10B50A4CD4E88F3F2C
:10CAF000DB070CD42046FCF73BFF40B10648FFF7AC
:10CB0000DDFF2046FCF739FF044801F02FFC024806
:10CB100010BD00BF68AE071078AE071079D83F028D
:10CB20000023024A02490348FEF716BE61D63F02BF
:10CB3000EDD53F026DD53F0200231A46194618462F
:10CB4000FEF70ABE37B504468D686846FFF7A2FEB9
:10CB50006A4629462046FFF73BFD01A8FEF7DBFFAA
:10CB6000204603B030BD37B50446CD686846FFF7B0
:10CB700091FE6A4629462046FFF706FD01A8FEF70A
:10CB8000CAFF204603B030BD37B504460D6968467C
:10CB9000FFF780FE6A4629462046FFF79DFC01A864
:10CBA000FEF7B9FF204603B030BD000070B58AB073
:10CBB0000D46014604A8FFF7C5FF144E04A8FFF771
:10CBC0001FFDE8B1684604A9FFF7CDFF3146029882
:10CBD000FFF73AFE044610B12C1E18BF012401A82D
:10CBE000FEF799FF002CE9D0684604A9FFF7CCFFB7
:10CBF0006846FFF7A7FC286001A8FEF78CFFDDE779
:10CC000005A8FEF788FF0AB070BD00BF70FC3F02A8
:10CC100037B50C46134920461546FCF767FE50B958
:10CC200001F0DAF84FF4165101F0C6F803B0BDE890
:10CC3000304001F0D1B820460B49FCF757FE78B9D7
:10CC40004FF4165301A928460193FFF7AFFF01F0F7
:10CC5000C9FA019901F054F801F0C4FA03B030BDEB
:10CC60000020FBE775FC3F027CFC3F0270B51426F8
:10CC7000D0E90053044606FB0356AE4205D005F149
:10CC80000800FFF7F3FF1435F7E72068FEF7D0FE42
:10CC9000204670BD10B504460C30FFF7E7FF204674
:10CCA000FEF777FF204610BD10B50446034B40F851
:10CCB000043BFFF7EFFF204610BD00BFE0EF3F024F
:10CCC00010B50446FFF7F0FF20462421FCF741FE93
:10CCD000204610BD10B50446024B0360FFF7E4FF89
:10CCE000204610BD1CFD3F0210B50446FFF7F2FFC1
:10CCF00020462421FCF72DFE204610BD0022C0E96D
:10CD00000022826010B50C680A6004604C684A60BA
:10CD100044608C688A60846010BD10B50446036866
:10CD20001868FEF725FA204610BD00002DE9F04FE7
:10CD300087B003931C4B80465B688946C3F30803A6
:10CD400016466BB9FFF7D0FE044600F12403406A93
:10CD50000593FFF777FD237B2BB105A8FFF7DDFFD8
:10CD600007B0BDE8F08F01235FFA89F92373D4E996
:10CD7000005305EB830AAA4512D055F8047B3146CF
:10CD8000381DFFF709FE8145F5D3039A3B680092F1
:10CD9000D3F808B04A46334641463846D847EAE712
:10CDA00000232373D9E700BF00ED00E02DE9F74F22
:10CDB0009B461A4B80465B688946C3F308031646B8
:10CDC0006BB9FFF791FE044600F12403406A01931A
:10CDD000FFF738FD237B2BB101A8FFF79EFF03B0BF
:10CDE000BDE8F08F0123F6B22373D4E9005305EBBD
:10CDF000830A55450ED055F8047B5946381DFFF778
:10CE0000CBFD8642F5D33B684A4641463846DB684F
:10CE10009847EEE700232373DEE700BF00ED00E054
:10CE20002DE9F341164B05465B680F46C3F3080333
:10CE30001BBBFFF759FE044600F12403406A01932F
:10CE4000FFF700FDD4E90063462406EB8308B045F4
:10CE500009D101A8FFF761FFA542B4BF002001205E
:10CE600002B0BDE8F08156F8040B39460430FFF7F4
:10CE700093FD8442A8BF0446E9E70020F0E700BF25
:10CE800000ED00E0F8B5D0E901539D4204460E469E
:10CE90000DDB6F1C002F006804DDB900FEF7D6FD26
:10CEA00018B9F8BDFEF7C4FD00202060A760276810
:10CEB000626807EB85019200A2EB8502081D01F074
:10CEC00070FA47F825606368012001336360E8E782
:10CED00037B5044600F12403406A01930D46FFF77D
:10CEE000B1FCD4E9003203EB8202934219460AD026
:10CEF00009680433A942F8D101A8FFF70EFF002505
:10CF0000284603B030BD29462046FFF7BBFF054643
:10CF10000028F1D06368012B01D1FFF701FE01A8C1
:10CF2000FFF7FBFEECE70B4670B50446D0E90002C4
:10CF300000EB820282420FD001461D6851F8046B5B
:10CF4000AE4207D1521A01F02CFA01206368013B6E
:10CF5000636070BD0846EDE70020FAE71FB50446A0
:10CF600000F12403406A01910393FFF76BFC204614
:10CF700001A9FFF7D8FF18B163680BB9FFF7DCFD13
:10CF800003A8FFF7CAFE04B010BD182370B504460D
:10CF9000D0E9045603FB0656AE4215D0204605F1F3
:10CFA0001001FFF7C0FF63680BB9FFF7C5FDE0692B
:10CFB00029690368DB689847696919B1206A0368C1
:10CFC000DB6898471835E7E71826D4E9045306FBD1
:10CFD0000356AE4204D0284600F07DFD1835F8E730
:10CFE0000023636170BD73B50446FFF7A5FD04F12E
:10CFF0002403606A0193FFF725FC2046FFF7C5FF75
:10D0000001A8FFF78AFE606A08B1FEF795F8D4E937
:10D010000453182606FB0356AE4204D0284600F0FF
:10D020005AFD1835F8E72069FEF702FD2068FEF783
:10D03000FFFC204602B070BD0148FFF7D4BF00BF1F
:10D0400078AE07108842F8B504460D46164615D945
:10D05000904214D2A2F11406751AA1F114072C44BF
:10D06000B7421AD01CB131462046FFF745FC06F105
:10D070000800FFF7FBFD143E143CF1E70DD0B5426C
:10D080000BD01CB129462046FFF736FC05F10800FD
:10D09000FFF7ECFD14351434F1E7F8BD8842F8B51C
:10D0A00004460D46164614D9904213D2A2F110063A
:10D0B000751AA1F110072C44B74218D01CB13146A3
:10D0C000204600F085FD304600F005FD103E103C86
:10D0D000F2E70CD0B5420AD01CB12946204600F038
:10D0E00077FD284600F0F7FC10351034F2E7F8BD64
:10D0F00070B50E1E054611DD3001FEF78BFC0446AF
:10D1000058B1D5E9001201EB0212FFF7C7FF2868FA
:10D11000FEF78EFC01202C60AE6070BD0024F6E7A7
:10D120002DE9F04F90460023462295B00391D8F8A0
:10D13000041004469942C0E90033C0E90233C0E953
:10D140000433CDE9083302760A9323DCD8E900578B
:10D15000142303FB0757AF423BD029460BA800F02E
:10D1600037FD0BA90FA8099E00F032FDDDE9091378
:10D1700099421BDA089B099A03EB0616314603EB2A
:10D18000021206F11000FFF789FFEEB9099B013387
:10D19000099311E008A8FFF7ABFF0028D6D108A833
:10D1A000FEF7F7FC204615B0BDE8F08F013108A866
:10D1B000FFF79EFF0028DDD10FA800F08CFC0BA824
:10D1C00000F089FC1435C6E730460FA900F000FDD9
:10D1D000DCE700264FF01409CDE90B660D96DDE97A
:10D1E00008239E427CDA3301D35806930BB90136EB
:10D1F000F5E70023079309FB06F30BAD029307A99C
:10D2000006A8FFF7F8FA82460028F0D04FF0000396
:10D2100001468DF817302846079A0DF11703FFF7DE
:10D220007FFB9DF817700190002F4AD1BDF81C308C
:10D23000CDE91177ADF840304FF6FF73CDF83CA043
:10D24000ADF842301397D5E90132934217DB03F171
:10D25000010ABAF1000F30DD09FB0AF0FEF7DAFB34
:10D26000834660B3D5E9001209FB0212FFF7EAFE1C
:10D270002868FEF7DDFBC5F800B0C5F808A02B68EC
:10D28000019A09FB023A6A68514609FB02320AF127
:10D290001400FFF7D7FEBAF1000F03D050460FA9D4
:10D2A000FFF72AFB6B6801336B6011A8FFF7DEFC08
:10D2B0003FB10BA8FFF7DAFC71E7BB46D8E70127BF
:10D2C000F3E7019B2D6809FB0355069B1B782BB9DF
:10D2D000D8F80030029A13441B7CEB8008358EE7A7
:10D2E0002168226062686360A36809920A9A0A93BF
:10D2F000E368A2600B9A0B932369E2600C9A0C938B
:10D30000636922610D9A0D93039B089162612376F4
:10D31000CFE70000F0B504462646174687B00D4615
:10D3200068461946FCF71DFE0B4B694646F8043B60
:10D3300003A8FCF716FE394603AA3046FFF7F0FEB5
:10D3400003A8FCF7CDFD6846FCF7CAFD2046034B59
:10D350002562236007B0F0BDE0EF3F0204FD3F020D
:10D36000F0B50F4685B038461C4916461D460A9C46
:10D37000FCF7BCFAC0B9A4B1294601A8FFF7BEFC6E
:10D380002420174900F0BEFF054630B101AB3246FC
:10D390002146FFF7BFFF134B2B6001A8FCF7A0FD50
:10D3A0002C46204605B0F0BD38460F49FCF79EFAE2
:10D3B00090B9002CF5D0294601A8FFF79FFC242046
:10D3C000074900F09FFF05460028E6D03246214677
:10D3D00001ABFFF79FFFE0E70024E2E784FC3F0298
:10D3E00058FE3F021CFD3F0288FC3F02014B024AEF
:10D3F0001A60704774AE071099FC3F022DE9F047A0
:10D40000089DD0F8209004460E461746984600F036
:10D41000E3FC81454DD02B79190704D520466A6974
:10D420005449FFF7E2FAB8F1000F0DD05B21204616
:10D43000FFF756FA41462046FFF743FA23680222D7
:10D440002046DB684C4998472B79DA0724D5D5F874
:10D4500008802F21404601F046F808B100F101088C
:10D4600041462046FFF72DFA2B799B0708D53A2134
:10D470002046FFF735FA2046EA684049FFF7B5FA3B
:10D480002A79236812F0040F20464FF00202DB686D
:10D4900014BF3B493B4998472B7958071DD529694B
:10D4A0000B461A4613F8010B60B1202808D1194623
:10D4B000F7E7354800F083F90028ACD0BDE8F087E5
:10D4C0002828EED12368521A2046DB689847236843
:10D4D00004222046DB682D49984700213846FEF794
:10D4E0002DF901462046FFF7ECF923680222204679
:10D4F000DB68244998471EB131462046FFF7E1F921
:10D500002B7913F0300F2CD023682149DB680222DD
:10D51000204698472B79D9060AD52368072220464A
:10D520001C49DB6898472046AA691B49FFF75DFA4A
:10D530002B799A0611D5DB0605D5236802222046F1
:10D54000DB680F4998472368204614490A22DB68A4
:10D5500098472046E969FFF7B4F95D212046FFF7B7
:10D56000BFF923682046BDE8F0470222DB680C497A
:10D57000184700BF9DFC3F02A4FC3F0273EF3F022F
:10D58000A7FC3F02ACFC3F02A0AE0710AAFC3F0282
:10D59000AFFC3F02B2FC3F02BAFC3F02BDFC3F02BF
:10D5A000C8FC3F022DE9F0410446076A0D461646C5
:10D5B00000F012FC874207D0206A324603682946F1
:10D5C000BDE8F041DB681847034800F0F8F8002890
:10D5D000F2D0BDE8F08100BFA0AE07102DE9F04306
:10D5E00085B0D0F8209005460F4690461E460C9C0C
:10D5F00000F0F2FB814505D1494800F0E0F8002831
:10D6000040F08A804FF000092B6A464A01A8019237
:10D6100003938DF80890FFF731F849464046FEF72E
:10D620008DF880464049012201A8FFF7B5F8414630
:10D63000FFF739F93FB13D49012201A8FFF7ACF8E6
:10D640003946FFF730F93EB13949012201A8FFF709
:10D65000A3F83146FFF727F92379DF070ED5A6682F
:10D660002F21304600F03FFF00B1461C3149012216
:10D6700001A8FFF791F83146FFF715F923799E07C6
:10D6800007D52D49022201A8FFF786F8E168FFF7C8
:10D6900001F82379580714D5266933461F4613F835
:10D6A000012B2AB1202A01D11E46F7E7282AF5D1FD
:10D6B0000222224901A8FFF76FF83146BA1BFFF793
:10D6C0007BF82379190707D51D49012201A8FFF727
:10D6D00063F86169FEF7F0FF2379DA0608D50422C2
:10D6E00018490DEB0200FFF757F8A169FEF7D2FFCA
:10D6F00023799B0607D51449062201A8FFF74CF8A9
:10D70000E169FFF7D0F801A8FEF796FF286A022228
:10D7100003680E49DB68984705B0BDE8F08300BF99
:10D72000A0AE0710ECFC3F027AFC3F02CBFC3F02AC
:10D73000C7FE3F02CDFC3F02CFFC3F02D2FC3F02BE
:10D74000A1EF3F02D5FC3F02DAFC3F02C8FC3F02DA
:10D75000002340681A46FEF7B5B80022022140684F
:10D76000FEF7CCB8002240681146FEF7B9B8002297
:10D7700040681146FEF7D0B8002340681A461946A3
:10D78000FEF7D8B8002340681A461946FEF7E0B8FD
:10D7900000214068FEF722B900214068FEF72CB94D
:10D7A0000022406881F00101FEF7E0B800224068E5
:10D7B000FEF7F8B8002240681146FEF701B90022D2
:10D7C00040681146FEF7E0B82DE9F04395B01446E5
:10D7D0000D460746FEF7A0FD00211C220DA8009172
:10D7E00000F0F9FD402320460C9300216B460CAA63
:10D7F000FDF70EFE044600284BD102460121686861
:10D80000FEF78AF80221804622466868FEF784F80F
:10D8100021468146009E002E3BD0002939D17368F5
:10D82000022B03D00A2B11D0F669F4E7B8F1000FF0
:10D83000FAD0716906A804313C1D07ADFEF79AFDC8
:10D840000FCD0FC42B6841462370EDE7B9F1000FEF
:10D85000EAD0102201A8746900F0BDFD062301ADD5
:10D860008DF8143004F1080318342A4618685968F2
:10D87000083303C2A3421546F7D101A906A83C1DEF
:10D8800007ADFEF757FD0FCD0FC42B684946237037
:10D89000CAE70098FDF7AEFD384615B0BDE8F08345
:10D8A000024B034A1A6000225A607047A0AE07106C
:10D8B00064FD3F02F8B506460D4600248F18BD42B0
:10D8C0000CD0336830469B6815F8011B9847031E3F
:10D8D00001DB1C44F3E7002C08BF1C462046F8BDC2
:10D8E00013B50446084659B10191FCF709F8024600
:10D8F000204623680199DB6802B0BDE81040184754
:10D9000002B010BD03689B68184738B50D21054665
:10D91000FFF7F8FF0A2104462846FFF7F3FF2044EB
:10D9200038BD38B50546FFF7DBFF04462846FFF74C
:10D93000ECFF204438BD0023012A98BF0A2230B5ED
:10D940008BB08DF8243009AC0D46B1FBF2F101FB30
:10D95000125303F0FF03092B94BF30333733DBB28C
:10D96000AA4204F8013DEFD92146FFF7B9FF0BB0F9
:10D9700030BD00000022014B9A607047A8AE07102E
:10D980000021FDF7B5BD0021FDF7A4BD10B504468B
:10D9900008462170FDF74AFD00232046636010BD54
:10D9A0000078FFF7EDBF000030B500244008186094
:10D9B0001868E5B2884206D90134082C02D0400824
:10D9C0001860F5E70725024B5B5D137030BD00BFA3
:10D9D00098FD3F022DE9F04306468FB000780C46D3
:10D9E000FFF7D1FF00281BDB1422002109A835789E
:10D9F00000F0F1FC0B230022284609A9ADF82430E1
:10DA0000FDF730FD9DF82D3013B19DF82C5055B128
:10DA100000270125B946B84623795DB1C3B100207E
:10DA20000FB0BDE8F083DDF830809DF834909DF8AC
:10DA30003570F1E7002B35D1A368434508D18DF847
:10DA400020908DF82170BDF82020A3899A42E6D05D
:10DA50000023A1688DF80F300A9804AB0DF10F0276
:10DA6000FFF7A2FF217985B989B9A36843450ED391
:10DA70008DF820908DF82170BDF82020A3899A425E
:10DA800005D1049B434502D1C9E70029F9D1002300
:10DA90000193637B9DF80F200093237B3078FDF783
:10DAA0000BFDBCE72B462A460121CDE90055F5E7E1
:10DAB00030B587B00A9D044600950078FDF7E0FC7C
:10DAC0003DB9207802A9FDF7E9FC9DF81430DB0789
:10DAD000F7D407B030BD10B504460068FDF7A8FFC5
:10DAE000204610BD10B50446006808B1FDF7A0FF40
:10DAF0000023C4E90133236010BD38B504460D4648
:10DB000000680131FDF7A2FF10B1C4E90005012052
:10DB100038BD10B50368044623B143688B4201D376
:10DB2000012010BD2046FFF7E8FF0028F9D0A368C8
:10DB3000002BF5D122681370F2E737B50D46114678
:10DB400001920446FFF7E5FF019A28B92046FFF746
:10DB5000C9FF204603B030BD2946A260206800F00E
:10DB600013FC00212268A368D154F2E7002313B507
:10DB70000446C0E900338360037341B10846019154
:10DB8000FBF7BEFE019902462046FFF7D6FF20466E
:10DB900002B010BD38B5054600680C4670B16A6821
:10DBA0008B689A4208D3096831B100F062FCA3681F
:10DBB000AB600023A36038BDFDF73AFF23682B60FC
:10DBC00063686B60A368AB600023C4E90033F1E7CE
:10DBD000002310B50446C0E9003383600373FFF7E8
:10DBE000D9FF204610BD884210B5044605D00B6809
:10DBF0002BB18A681946FFF7A0FF204610BDFFF73A
:10DC000071FFFAE7002310B50446C0E900338360D2
:10DC10000373FFF7E8FF204610BD0000022200203A
:10DC2000044B1A60044B054AC3E900009A60FDF7F3
:10DC3000A1BD00BFC4AE0710B8AE07100000FFFFC3
:10DC4000024B1A68024B1A60704700BFD4A5071038
:10DC5000C8AE071070474174704708B5007CFDF7E7
:10DC6000B7FC20EAE07008BD08B5007CFDF76AFC4F
:10DC700020EAE07008BD08B5007CFDF77FFC40EAB3
:10DC8000E07008BD08B5007CFDF76AFC40EAE07072
:10DC900008BD007CFDF780BC37B5457C04462DB13E
:10DCA000207C03B0BDE83040FDF73EBC007C019114
:10DCB000FDF78EFC00280199F2DC284603B030BD48
:10DCC00010B504461421FBF744FE204610BD0000A9
:10DCD00010B54FF47A730446084611460022C4E991
:10DCE0000123044B2074236001236374FDF78CFC33
:10DCF000204610BDC4FD3F020023007CFDF776BC2A
:10DD00000022FFF7F9BF007CFDF700BC007CFDF7A7
:10DD100051BC417470477047704708B50021007CC2
:10DD2000FDF7C6FC40EAE07008BD08B50121007CA3
:10DD3000FDF7BEFC40EAE07008BD08B5007CFDF7C9
:10DD4000A9FC20EAE07008BD08B5007CFDF794FC52
:10DD500020EAE07008BD13B50446007C0191FDF790
:10DD600099FC0028019901DC607C20B1207CFDF742
:10DD7000ADFC20EAE07002B010BD007CFDF7B4BC41
:10DD800010B504461421FBF7E4FD204610BD000049
:10DD900010B54FF47A73044608460021C4E9011314
:10DDA000044B20742360012311466374FDF73AFC91
:10DDB000204610BDF4FD3F020022007CFDF740BC70
:10DDC000007CFDF74BBC10B504461422002100F086
:10DDD00002FB204610BD000010B588B003A8FFF775
:10DDE000F2FF0C4CD4E88F1F11F001010FD1204637
:10DDF0000191FBF7BDFD019948B103AA0648FFF761
:10DE0000C7FF2046FBF7B9FD044800F0AFFA02480F
:10DE100008B010BDCCAE0710D0AE071057E53F02DA
:10DE2000002240681146FDF777BD00224068114688
:10DE3000FDF7AABD002240681146FDF7C1BD0022D2
:10DE40004068FDF7AFBD0022406881F00101FDF799
:10DE50008DBD002340681A461946FDF779BD0023A1
:10DE600040681A461946FDF765BD00224068114614
:10DE7000FDF736BD002202214068FDF73FBD0023BB
:10DE800040681A46FDF71EBD0422024B5A60024A42
:10DE90001A607047E4AE071024FE3F02014B186081
:10DEA000704700BFDCA5071008B50F4B43B1FFF763
:10DEB00093FF03681B699847002801DD00E000BF5D
:10DEC0000A4B43B100F08EF903681B69984700289C
:10DED00001DD00E000BF064B0BB100F0C9F9054BB6
:10DEE0000BB100F0FBF908BD0000000000000000CD
:10DEF000000000000000000008B5FFF7D5FFFDF7A7
:10DF00006FF9014B186008BDF4AE07100548064ACA
:10DF100008B5121A054900F037FA054B054A1A6090
:10DF200008BD00BF00B4071004B407104CF85F0828
:10DF300000B407101E1C279A002307B51A466FF07D
:10DF400077010093FDF76AFC03B05DF804FB000065
:10DF500007B543880A2B08D0502B0BD1094B1B68FF
:10DF60004BB103B05DF804EB1847FFF7E5FF03B0D2
:10DF70005DF804FB00231A466FF077010093FDF76C
:10DF80004DFCF4E7F0AE0710002110B51148FDF785
:10DF9000B1FD114B1A68114B9A420CBF01220022AD
:10DFA0000F4B1A7001D0FFF7B1FFFDF7FDF80446E3
:10DFB00000F01AFA0B4B13B1204600E000BF00211D
:10DFC0000848FDF771FCBDE8104000210648FDF748
:10DFD00017BC00BFDDE63F0200B407101E1C279AE5
:10DFE000ECAE07100000000091E73F021B2837B598
:10DFF000044602D9002003B030BDA0F10F03022B6C
:10E000000BD9012821D800F099F80021007CFDF7F8
:10E01000B9F980F00100C0B2EDE7114DD5E88F1FCE
:10E0200011F001010BD128460191FBF7A1FC0199E8
:10E0300028B10C48FFF7AAFC2846FBF79EFC094BC9
:10E040001878FDF701FA0028D4D1083C012C05D836
:10E0500000F0C8F8007CFDF7ADFADAE70120CAE766
:10E0600050AE071054AE07101B2838B504460D46B5
:10E070000AD8FF2908D0FFF7B9FF28B12946204662
:10E08000BDE83840FDF7C8B838BD38B504460D4680
:10E09000FDF7D0F8FF2810D0062804D84D2323FA26
:10E0A00000F0C30709D42046FFF7A0FF28B1294696
:10E0B0002046BDE83840FDF7CBB838BD10B5044662
:10E0C000FDF7B8F8031FDBB2012B08D92046FFF794
:10E0D0008DFF20B12046BDE81040FDF7C7B80020F5
:10E0E00010BD10B50446FFF781FF50B10321204653
:10E0F000FDF784F8032804D12046BDE81040FDF761
:10E10000C3B8002010BD704738B50A4B0446036001
:10E11000012309494361202000F0F6F820256060C2
:10E1200005492846A56000F0EFF8C4E9030520463C
:10E1300038BD00BF1800010058FE3F0230B50E4D3B
:10E1400087B0D5E88F1F11F0010411D12846FBF7E5
:10E150000FFC68B16846FFF7D7FF6A4621460748BB
:10E16000FEF744F82846FBF708FC054800F0FEF8E7
:10E17000024807B030BD00BFF8AE0710FCAE071074
:10E1800047E93F027047000038B5142504462A4687
:10E19000002100F020F925804025074928462581E7
:10E1A000258200F0B1F804496060284600F0ACF820
:10E1B000E060204638BD00BF58FE3F027047704700
:10E1C00010B50446FFF7E0FF204610BD10B5044629
:10E1D000FFF7DAFF204610BD10B50446FFF7D4FF65
:10E1E000204610BD30B50E4D87B0D5E88F1F11F019
:10E1F000010411D12846FBF7BBFB68B101A8FFF76A
:10E20000DFFF214601AA0748FFF762FD2846FBF71A
:10E21000B4FB054800F0AAF8024807B030BD00BFC3
:10E2200010AF07101CAF0710C5E93F0210B50D4C29
:10E2300086B0D4E88F3FDB0711D42046FBF798FB6C
:10E2400068B101A8FFF7C2FF012101AA0648FFF744
:10E250003FFD2046FBF791FB044800F087F8024899
:10E2600006B010BD14AF071030AF0710FFE93F0232
:10E2700010B5FFF7DBFF074B044653B1FFF746FD30
:10E2800038B1236820461B699847002801DD00E06B
:10E2900000BF10BD0000000010B50D4C86B0D4E8E2
:10E2A0008F3FDB0711D42046FBF762FB68B101A862
:10E2B000FFF792FF022101AA0648FFF709FD204659
:10E2C000FBF75BFB044800F051F8024806B010BDB4
:10E2D00018AF071044AF0710FDE93F0210B5FFF774
:10E2E000DBFF074B044653B1FFF710FD38B123683D
:10E2F00020461B699847002801DD00E000BF10BDE3
:10E3000000000000FBF721BBFBF721BB08B5FDF7C0
:10E31000B9FB000008B52DED028BB0EE408A00F08D
:10E3200021F80E4B93F9003001330BD0B4EE488A3C
:10E33000F1EE10FA06D6DFED0A8AB4EEE88AF1EEC5
:10E3400010FA02D4BDEC028B08BDFDF7B7FB88EED6
:10E35000A80A21230360BDEC028B08BDD8A50710D5
:10E3600000000000B1EEC00A704700BF0023014664
:10E370001A46184600F058B9024B1844407800F08D
:10E3800097007047C9FE3F020A44431E914200D1E4
:10E39000704710B511F8014B914203F8014FF9D1C4
:10E3A00010BD884210B501EB020402D98442234615
:10E3B00007D8431EA14208D011F8012B03F8012F02
:10E3C000F8E7024401468A4200D110BD13F8014D1E
:10E3D00002F8014DF7E702440346934200D170472B
:10E3E00003F8011BF9E7000038B5104B04461D681F
:10E3F000AB6BB3B91820FDF70DFB0246A86320B93B
:10E400000B4B42210B48FDF767FB0B490B4BC0E957
:10E4100000130B4B002183600B2383810120C2E991
:10E420000401AB6B00221C615A6138BDDCA50710EA
:10E4300059FE3F0270FE3F020E33CDAB34126DE643
:10E44000ECDE0500C9B2034610F8012B1AB18A426E
:10E45000F9D118467047002918BF0023F9E710B515
:10E460000446FFF7EFFF18B92046FBF749FA2044AE
:10E4700010BD034611F8012B03F8012B002AF9D136
:10E4800070470000024B0146186800F003B800BF57
:10E49000DCA5071037B5044608460D46FBF730FAF1
:10E4A000421C204611460192FDF7FAFA044618B1C3
:10E4B000019A2946FFF768FF204603B030BD10B52A
:10E4C0007AB103460139841813F8010B11F8012FB2
:10E4D000904201D1A34201D1801A10BD0028F3D18E
:10E4E000FAE71046F9E738B503460C4669B9BDE8C6
:10E4F0003840FFF7A7BF431C054621461846FFF7E3
:10E50000A1FF0028F7D1284638BD0025F5E7000017
:10E51000012B2DE9F04701D0242B06D9FDF7CEFAC7
:10E52000162303600020BDE8F0870D46DFF8E0C049
:10E530002E4615F8014B14F80C7017F00807F7D1A8
:10E540002D2C32D12C780127B51C002B5BD0102B41
:10E5500009D1302C07D12C7804F0DF04582C4DD190
:10E560006C781023023507F100484FF0000C08F1D9
:10E57000FF386646B8FBF3F903FB198AA4F1300EA5
:10E58000BEF1090F16D87446A34224DDBCF1000F7A
:10E590001EDBB1451CD301D1A24519DB06FB0346A6
:10E5A0004FF0010C15F8014BE8E72B2C04BF2C7839
:10E5B000B51CCAE7A4F1410EBEF1190F01D8373CD2
:10E5C000E2E7A4F1610EBEF1190F04D8573CDBE776
:10E5D0004FF0FF3CE6E7BCF1000F05DA2223464688
:10E5E000036042B930469EE707B17642002AF9D06F
:10E5F000BCF1000F00D0691E1160F3E73024002B3E
:10E60000B1D10823AFE7302CA5D00A23ABE700BF78
:10E61000CAFE3F0213460A46014602480068FFF759
:10E6200077BF00BFDCA507102DE9F843DFF8BC80F9
:10E6300006461F460D46D8F80000914600F058F8EF
:10E64000264B1C6834B9264C1C60264B13B11B6842
:10E65000C4F8883063681F2B07DDD8F8000000F08D
:10E6600049F84FF0FF30BDE8F8835EB3D4F8880076
:10E6700088B91D4B23B9D8F8000000F03AF8F0E74C
:10E680004FF48470FDF7C6F90028F4D00023C0E9E8
:10E690004033C4F8880063680122022E40F82390BA
:10E6A00002FA03F200EB8301D0F8003143EA0203DF
:10E6B000C0F80031C1F8807002BFD0F804311343B4
:10E6C000C0F804316368D8F800005A1C0233626055
:10E6D00044F8235000F00EF80020C4E7E4AF071020
:10E6E00058AF07100000000055C23F0240A60710B7
:10E6F000704770477047000051A13F0279A13F0267
:10E700007DA13F020000000043616C6C206F6E2011
:10E7100070757265207669727475616C005355432B
:10E72000434553532053455454494E47204741498C
:10E730004E3A202564004641494C454420544F2020
:10E74000534554204741494E3A202564004F4C45DB
:10E7500044204665617468657257696E6720746508
:10E76000737400656467652F696E676573742F62E3
:10E770006C656E64657200726573756C743A202501
:10E78000640000000000000000000000D9A33F0268
:10E790001DA43F02C3A13F020000000000000000D2
:10E7A000000000000000000099A13F02C1A13F024B
:10E7B00000000000000000007DA33F02B1A33F0263
:10E7C0003DDC3F02E5DD3F02436F6E6E65637465BD
:10E7D00064210000000000000600010000000105A7
:10E7E0000200FC00010003010400FC00020005051A
:10E7F0000600FC00060005050600FC000A000505F1
:10E800000600FC000E0005050600FC0012000101D8
:10E810000200FC00130002050300FC0015000205C5
:10E820000300FC00170003030400FD0019000303AC
:10E830000400FD001B000102020000001C00040196
:10E840000500FE001D000101020000001E0005057C
:10E850000600FC00220005050600FC00260001055C
:10E860000200FC00270005050600FC002B00050542
:10E870000600FC002F0005050600FC00330005051E
:10E880000600FC00370005050600FC003B000505FE
:10E890000600FC003F0005050600FC0043000505DE
:10E8A0000600FC00470001040200FD0048000104CE
:10E8B0000200FD00490003050400FC004B000403B6
:10E8C0000500FD004D0003050400FC004F00050598
:10E8D0000600FC00530005050600FC005700050576
:10E8E0000600FC005B0005050600FC005F00050556
:10E8F0000600FC00630005050600FC006700050536
:10E900000600FC006B0005050600FC006F00050515
:10E910000600FC00730005050600FC0077000505F5
:10E920000600FC007B0005050600FC007F000505D5
:10E930000600FC00830005050600FC0087000505B5
:10E940000600FC008B0005050600FC008F00050595
:10E950000600FC00930005050600FC009700050575
:10E960000600FC009B0005050600FC009F00050555
:10E970000600FC00A30005050600FC00A700050535
:10E980000600FC00AB0005050600FC00AF00050515
:10E990000600FC00B30005050600FC00B7000505F5
:10E9A0000600FC00BB0005050600FC00BF000205D8
:10E9B0000300FC00C10005050600FC00C5000205BF
:10E9C0000300FC00C70003020400FC00C8000501AE
:10E9D00006000100C90001010200FC00CA00040495
:10E9E0000500FD00CC0004050500FC00CF00040478
:10E9F0000500FD00D10004050500FC00D40004045E
:10EA00000500FD00D60003050400FC00D800040545
:10EA10000500FD00DB0004050500FC00DE0001042C
:10EA20000200FD00DF0002050300FD00E100040517
:10EA30000500FC00E40001050200FC00E5000504FF
:10EA40000600FD00E80004040500FD00EA000404DF
:10EA50000500FD00EC0004050500FD00EF000405C5
:10EA60000500FD00F20004040500FD00F4000404AC
:10EA70000500FD00F60005050600FC00FA00040490
:10EA80000500FD00FC0004040500FD00FE00050477
:10EA90000600FD00010104040500FD00030104055A
:10EAA0000500FD00060104040500FD000801030542
:10EAB0000400FC000A0101050200FC000B01030533
:10EAC0000400FC000D0105030600FD00E8A057D579
:10EAD000F500FD3E5F8088888880F4BF2E80806AC4
